{
  "_format": "hh-sol-artifact-1",
  "contractName": "Arena",
  "sourceName": "contracts/Arena.sol",
  "abi": [
    {
      "inputs": [],
      "stateMutability": "nonpayable",
      "type": "constructor"
    },
    {
      "anonymous": false,
      "inputs": [
        {
          "indexed": true,
          "internalType": "address",
          "name": "previousOwner",
          "type": "address"
        },
        {
          "indexed": true,
          "internalType": "address",
          "name": "newOwner",
          "type": "address"
        }
      ],
      "name": "OwnershipTransferred",
      "type": "event"
    },
    {
      "anonymous": false,
      "inputs": [
        {
          "indexed": false,
          "internalType": "address",
          "name": "account",
          "type": "address"
        }
      ],
      "name": "Paused",
      "type": "event"
    },
    {
      "anonymous": false,
      "inputs": [
        {
          "indexed": true,
          "internalType": "address",
          "name": "owner",
          "type": "address"
        },
        {
          "indexed": true,
          "internalType": "uint256",
          "name": "tokenId",
          "type": "uint256"
        },
        {
          "indexed": false,
          "internalType": "bool",
          "name": "unstaked",
          "type": "bool"
        },
        {
          "indexed": false,
          "internalType": "uint256",
          "name": "earned",
          "type": "uint256"
        }
      ],
      "name": "TokenClaimed",
      "type": "event"
    },
    {
      "anonymous": false,
      "inputs": [
        {
          "indexed": true,
          "internalType": "address",
          "name": "owner",
          "type": "address"
        },
        {
          "indexed": true,
          "internalType": "uint256",
          "name": "tokenId",
          "type": "uint256"
        }
      ],
      "name": "TokenStaked",
      "type": "event"
    },
    {
      "anonymous": false,
      "inputs": [
        {
          "indexed": true,
          "internalType": "address",
          "name": "owner",
          "type": "address"
        },
        {
          "indexed": false,
          "internalType": "uint16[]",
          "name": "tokenIds",
          "type": "uint16[]"
        }
      ],
      "name": "TokensClaimed",
      "type": "event"
    },
    {
      "anonymous": false,
      "inputs": [
        {
          "indexed": true,
          "internalType": "address",
          "name": "owner",
          "type": "address"
        },
        {
          "indexed": false,
          "internalType": "uint16[]",
          "name": "tokenIds",
          "type": "uint16[]"
        }
      ],
      "name": "TokensStaked",
      "type": "event"
    },
    {
      "anonymous": false,
      "inputs": [
        {
          "indexed": false,
          "internalType": "address",
          "name": "account",
          "type": "address"
        }
      ],
      "name": "Unpaused",
      "type": "event"
    },
    {
      "anonymous": false,
      "inputs": [
        {
          "indexed": true,
          "internalType": "address",
          "name": "owner",
          "type": "address"
        },
        {
          "indexed": true,
          "internalType": "uint256",
          "name": "tokenId",
          "type": "uint256"
        },
        {
          "indexed": true,
          "internalType": "uint256",
          "name": "amount",
          "type": "uint256"
        }
      ],
      "name": "WorldStolen",
      "type": "event"
    },
    {
      "inputs": [],
      "name": "MINIMUM_DAYS_TO_EXIT",
      "outputs": [
        {
          "internalType": "uint256",
          "name": "",
          "type": "uint256"
        }
      ],
      "stateMutability": "view",
      "type": "function"
    },
    {
      "inputs": [],
      "name": "Villain_TAX_PERCENTAGE",
      "outputs": [
        {
          "internalType": "uint256",
          "name": "",
          "type": "uint256"
        }
      ],
      "stateMutability": "view",
      "type": "function"
    },
    {
      "inputs": [
        {
          "internalType": "address",
          "name": "addr",
          "type": "address"
        }
      ],
      "name": "addAdmin",
      "outputs": [],
      "stateMutability": "nonpayable",
      "type": "function"
    },
    {
      "inputs": [
        {
          "internalType": "uint16[]",
          "name": "tokenIds",
          "type": "uint16[]"
        },
        {
          "internalType": "bool",
          "name": "unstake",
          "type": "bool"
        }
      ],
      "name": "claimManyFromArena",
      "outputs": [],
      "stateMutability": "nonpayable",
      "type": "function"
    },
    {
      "inputs": [
        {
          "internalType": "uint256",
          "name": "tokenId",
          "type": "uint256"
        }
      ],
      "name": "getStake",
      "outputs": [
        {
          "components": [
            {
              "internalType": "uint16",
              "name": "tokenId",
              "type": "uint16"
            },
            {
              "internalType": "uint256",
              "name": "WorldPerRank",
              "type": "uint256"
            },
            {
              "internalType": "uint256",
              "name": "stakeTimestamp",
              "type": "uint256"
            },
            {
              "internalType": "address",
              "name": "owner",
              "type": "address"
            }
          ],
          "internalType": "struct IArena.Stake",
          "name": "",
          "type": "tuple"
        }
      ],
      "stateMutability": "view",
      "type": "function"
    },
    {
      "inputs": [
        {
          "internalType": "address",
          "name": "owner",
          "type": "address"
        }
      ],
      "name": "getStakedTokenIds",
      "outputs": [
        {
          "internalType": "uint256[]",
          "name": "",
          "type": "uint256[]"
        }
      ],
      "stateMutability": "view",
      "type": "function"
    },
    {
      "inputs": [],
      "name": "getTotalHerosStaked",
      "outputs": [
        {
          "internalType": "uint256",
          "name": "",
          "type": "uint256"
        }
      ],
      "stateMutability": "view",
      "type": "function"
    },
    {
      "inputs": [],
      "name": "getTotalRankStaked",
      "outputs": [
        {
          "internalType": "uint256",
          "name": "",
          "type": "uint256"
        }
      ],
      "stateMutability": "view",
      "type": "function"
    },
    {
      "inputs": [],
      "name": "getTotalVillainStaked",
      "outputs": [
        {
          "internalType": "uint256",
          "name": "",
          "type": "uint256"
        }
      ],
      "stateMutability": "view",
      "type": "function"
    },
    {
      "inputs": [],
      "name": "getWorldPerRank",
      "outputs": [
        {
          "internalType": "uint256",
          "name": "",
          "type": "uint256"
        }
      ],
      "stateMutability": "view",
      "type": "function"
    },
    {
      "inputs": [
        {
          "internalType": "uint256",
          "name": "tokenId",
          "type": "uint256"
        }
      ],
      "name": "isStaked",
      "outputs": [
        {
          "internalType": "bool",
          "name": "",
          "type": "bool"
        }
      ],
      "stateMutability": "view",
      "type": "function"
    },
    {
      "inputs": [
        {
          "internalType": "address",
          "name": "",
          "type": "address"
        },
        {
          "internalType": "address",
          "name": "from",
          "type": "address"
        },
        {
          "internalType": "uint256",
          "name": "",
          "type": "uint256"
        },
        {
          "internalType": "bytes",
          "name": "",
          "type": "bytes"
        }
      ],
      "name": "onERC721Received",
      "outputs": [
        {
          "internalType": "bytes4",
          "name": "",
          "type": "bytes4"
        }
      ],
      "stateMutability": "pure",
      "type": "function"
    },
    {
      "inputs": [],
      "name": "owner",
      "outputs": [
        {
          "internalType": "address",
          "name": "",
          "type": "address"
        }
      ],
      "stateMutability": "view",
      "type": "function"
    },
    {
      "inputs": [],
      "name": "paused",
      "outputs": [
        {
          "internalType": "bool",
          "name": "",
          "type": "bool"
        }
      ],
      "stateMutability": "view",
      "type": "function"
    },
    {
      "inputs": [
        {
          "internalType": "uint256",
          "name": "seed",
          "type": "uint256"
        }
      ],
      "name": "randomVillainOwner",
      "outputs": [
        {
          "internalType": "address",
          "name": "",
          "type": "address"
        }
      ],
      "stateMutability": "view",
      "type": "function"
    },
    {
      "inputs": [
        {
          "internalType": "address",
          "name": "addr",
          "type": "address"
        }
      ],
      "name": "removeAdmin",
      "outputs": [],
      "stateMutability": "nonpayable",
      "type": "function"
    },
    {
      "inputs": [],
      "name": "renounceOwnership",
      "outputs": [],
      "stateMutability": "nonpayable",
      "type": "function"
    },
    {
      "inputs": [
        {
          "internalType": "address",
          "name": "_uNFT",
          "type": "address"
        },
        {
          "internalType": "address",
          "name": "_uWorld",
          "type": "address"
        },
        {
          "internalType": "address",
          "name": "_uGame",
          "type": "address"
        }
      ],
      "name": "setContracts",
      "outputs": [],
      "stateMutability": "nonpayable",
      "type": "function"
    },
    {
      "inputs": [
        {
          "internalType": "uint256",
          "name": "number",
          "type": "uint256"
        }
      ],
      "name": "setMinimumDaysToExit",
      "outputs": [],
      "stateMutability": "nonpayable",
      "type": "function"
    },
    {
      "inputs": [
        {
          "internalType": "uint256",
          "name": "number",
          "type": "uint256"
        }
      ],
      "name": "setVillainTaxPercentage",
      "outputs": [],
      "stateMutability": "nonpayable",
      "type": "function"
    },
    {
      "inputs": [
        {
          "internalType": "uint16[]",
          "name": "tokenIds",
          "type": "uint16[]"
        }
      ],
      "name": "stakeManyToArena",
      "outputs": [],
      "stateMutability": "nonpayable",
      "type": "function"
    },
    {
      "inputs": [],
      "name": "totalWorldEarned",
      "outputs": [
        {
          "internalType": "uint256",
          "name": "",
          "type": "uint256"
        }
      ],
      "stateMutability": "view",
      "type": "function"
    },
    {
      "inputs": [
        {
          "internalType": "address",
          "name": "newOwner",
          "type": "address"
        }
      ],
      "name": "transferOwnership",
      "outputs": [],
      "stateMutability": "nonpayable",
      "type": "function"
    },
    {
      "inputs": [],
      "name": "uGame",
      "outputs": [
        {
          "internalType": "contract IGame",
          "name": "",
          "type": "address"
        }
      ],
      "stateMutability": "view",
      "type": "function"
    },
    {
      "inputs": [],
      "name": "uNFT",
      "outputs": [
        {
          "internalType": "contract INFT",
          "name": "",
          "type": "address"
        }
      ],
      "stateMutability": "view",
      "type": "function"
    },
    {
      "inputs": [],
      "name": "uWorld",
      "outputs": [
        {
          "internalType": "contract IWorld",
          "name": "",
          "type": "address"
        }
      ],
      "stateMutability": "view",
      "type": "function"
    }
  ],
  "bytecode": "0x6080604052600160055560146006556000600f55600060105534801561002457600080fd5b5061002e33610041565b600180556002805460ff19169055610091565b600080546001600160a01b038381166001600160a01b0319831681178455604051919092169283917f8be0079c531659141344cd1fd0a4f28419497f9722a3daafe3b4186f6b6457e09190a35050565b61301480620000a16000396000f3fe608060405234801561001057600080fd5b506004361061016e5760003560e01c8063809deb63116100ce578063cbcc1cc511610087578063cbcc1cc5146102f8578063cd2b9a951461030b578063ce325bf814610313578063d3d5879614610366578063dac55cd41461036e578063f2fde38b14610381578063f4e86e841461039457600080fd5b8063809deb631461028c5780638da5cb5b146102a45780639e496641146102ac5780639fb6ea12146102bf578063b3066d49146102d2578063baa51f86146102e557600080fd5b80634abc1b221161012b5780634abc1b22146101f357806352b8bedf146102065780635c975abb146102315780636ee1b577146102485780637047bc52146102515780637048027514610271578063715018a61461028457600080fd5b80630a8913c9146101735780630d33505d1461018f578063150b7a02146101a45780631785f53c146101d0578063219bec0b146101e357806349f73187146101eb575b600080fd5b61017c60065481565b6040519081526020015b60405180910390f35b6101a261019d366004612894565b61039d565b005b6101b76101b23660046128ff565b6107ba565b6040516001600160e01b03199091168152602001610186565b6101a26101de36600461299d565b610831565b61017c610881565b61017c6108b7565b6101a26102013660046129ba565b6109a1565b600454610219906001600160a01b031681565b6040516001600160a01b039091168152602001610186565b60025460ff165b6040519015158152602001610186565b61017c60075481565b61026461025f36600461299d565b6109d5565b60405161018691906129d3565b6101a261027f36600461299d565b610ae5565b6101a2610b38565b6002546102199061010090046001600160a01b031681565b610219610b73565b6102196102ba3660046129ba565b610b82565b6101a26102cd366004612a17565b610d44565b6101a26102e0366004612a58565b6111ed565b6102386102f33660046129ba565b611264565b6101a26103063660046129ba565b611275565b61017c6112a9565b6103266103213660046129ba565b611393565b6040516101869190815161ffff16815260208083015190820152604080830151908201526060918201516001600160a01b03169181019190915260800190565b61017c6113a4565b600354610219906001600160a01b031681565b6101a261038f36600461299d565b61148e565b61017c60055481565b60025460ff16156103c95760405162461bcd60e51b81526004016103c090612a98565b60405180910390fd5b323314806103ea57506003546001600160a01b0316336001600160a01b0316145b6104065760405162461bcd60e51b81526004016103c090612ac2565b600260015414156104295760405162461bcd60e51b81526004016103c090612aeb565b60026001819055506000600260019054906101000a90046001600160a01b03166001600160a01b0316634a5f3a736040518163ffffffff1660e01b8152600401602060405180830381865afa158015610486573d6000803e3d6000fd5b505050506040513d601f19601f820116820180604052508101906104aa9190612b39565b905043816001600160401b0316106104d45760405162461bcd60e51b81526004016103c090612b54565b600080858560008181106104ea576104ea612b7a565b90506020020160208101906104ff9190612ba0565b905060006105108261ffff1661152e565b905060005b868110156106db5760608201516001600160a01b031633148061054757503360009081526011602052604090205460ff165b61059e5760405162461bcd60e51b81526020600482015260346024820152600080516020612fbf83398151915260448201527328636c61696d4d616e7946726f6d4172656e612960601b60648201526084016103c0565b60025461010090046001600160a01b03166336a54b908989848181106105c6576105c6612b7a565b90506020020160208101906105db9190612ba0565b6040516001600160e01b031960e084901b16815261ffff9091166004820152602401602060405180830381865afa15801561061a573d6000803e3d6000fd5b505050506040513d601f19601f8201168201806040525081019061063e9190612bc8565b156106885761067788888381811061065857610658612b7a565b905060200201602081019061066d9190612ba0565b61ffff1687611824565b6106819085612bfb565b93506106c9565b6106bc88888381811061069d5761069d612b7a565b90506020020160208101906106b29190612ba0565b61ffff1687611c5b565b6106c69085612bfb565b93505b806106d381612c13565b915050610515565b5082156107665782600760008282546106f49190612bfb565b90915550506004805460608301516040516340c10f1960e01b81526001600160a01b03918216938101939093526024830186905216906340c10f1990604401600060405180830381600087803b15801561074d57600080fd5b505af1158015610761573d6000803e3d6000fd5b505050505b80606001516001600160a01b03167f0b72396e27beefc01b063f54ec183588de779d2b4b98f7724ffd8c9683b8edd688886040516107a5929190612c2e565b60405180910390a25050600180555050505050565b60006001600160a01b0385161561081f5760405162461bcd60e51b8152602060048201526024808201527f4172656e613a2043616e6e6f742073656e6420746f204172656e61206469726560448201526363746c7960e01b60648201526084016103c0565b50630a85bd0160e11b95945050505050565b3361083a610b73565b6001600160a01b0316146108605760405162461bcd60e51b81526004016103c090612c77565b6001600160a01b03166000908152601160205260409020805460ff19169055565b3360009081526011602052604081205460ff166108b05760405162461bcd60e51b81526004016103c090612cac565b5060105490565b6000323314806108da57506003546001600160a01b0316336001600160a01b0316145b6108f65760405162461bcd60e51b81526004016103c090612ac2565b6000600260019054906101000a90046001600160a01b03166001600160a01b0316634a5f3a736040518163ffffffff1660e01b8152600401602060405180830381865afa15801561094b573d6000803e3d6000fd5b505050506040513d601f19601f8201168201806040525081019061096f9190612b39565b905043816001600160401b0316106109995760405162461bcd60e51b81526004016103c090612b54565b505060085490565b336109aa610b73565b6001600160a01b0316146109d05760405162461bcd60e51b81526004016103c090612c77565b600555565b60606000600260019054906101000a90046001600160a01b03166001600160a01b0316634a5f3a736040518163ffffffff1660e01b8152600401602060405180830381865afa158015610a2c573d6000803e3d6000fd5b505050506040513d601f19601f82011682018060405250810190610a509190612b39565b905043816001600160401b031610610a7a5760405162461bcd60e51b81526004016103c090612b54565b6001600160a01b0383166000908152600b602090815260409182902080548351818402810184019094528084529091830182828015610ad857602002820191906000526020600020905b815481526020019060010190808311610ac4575b5050505050915050919050565b33610aee610b73565b6001600160a01b031614610b145760405162461bcd60e51b81526004016103c090612c77565b6001600160a01b03166000908152601160205260409020805460ff19166001179055565b33610b41610b73565b6001600160a01b031614610b675760405162461bcd60e51b81526004016103c090612c77565b610b716000612228565b565b6000546001600160a01b031690565b3360009081526011602052604081205460ff16610bb15760405162461bcd60e51b81526004016103c090612cac565b600a54610bc057506000919050565b6000600a548363ffffffff16610bd69190612cf7565b90506000602084901c93506000600260019054906101000a90046001600160a01b03166001600160a01b031663a5a57fdf6040518163ffffffff1660e01b8152600401608060405180830381865afa158015610c36573d6000803e3d6000fd5b505050506040513d601f19601f82011682018060405250810190610c5a9190612d32565b8051909150600082610c6e60016004612db6565b60048110610c7e57610c7e612b7a565b60200201519050815b8160ff168160ff1611610d345760ff81166000818152600d6020526040902054610cb19190612dcd565b610cbb9086612bfb565b9450848610610cc957610d22565b60ff81166000908152600d602052604090208054610ce7908a612cf7565b81548110610cf757610cf7612b7a565b60009182526020909120600360049092020101546001600160a01b03169650610d3f95505050505050565b80610d2c81612dec565b915050610c87565b506000955050505050505b919050565b60025460ff1615610d675760405162461bcd60e51b81526004016103c090612a98565b32331480610d8857506003546001600160a01b0316336001600160a01b0316145b610da45760405162461bcd60e51b81526004016103c090612ac2565b60026001541415610dc75760405162461bcd60e51b81526004016103c090612aeb565b60026001819055506000600260019054906101000a90046001600160a01b03166001600160a01b0316634a5f3a736040518163ffffffff1660e01b8152600401602060405180830381865afa158015610e24573d6000803e3d6000fd5b505050506040513d601f19601f82011682018060405250810190610e489190612b39565b905043816001600160401b031610610e725760405162461bcd60e51b81526004016103c090612b54565b60005b828110156111a0576003546001600160a01b0316336001600160a01b03161461104857600254339061010090046001600160a01b0316636352211e868685818110610ec257610ec2612b7a565b9050602002016020810190610ed79190612ba0565b6040516001600160e01b031960e084901b16815261ffff9091166004820152602401602060405180830381865afa158015610f16573d6000803e3d6000fd5b505050506040513d601f19601f82011682018060405250810190610f3a9190612e0c565b6001600160a01b031614610f995760405162461bcd60e51b81526020600482015260326024820152600080516020612fbf833981519152604482015271287374616b654d616e79546f4172656e612960701b60648201526084016103c0565b60025461010090046001600160a01b03166323b872dd3330878786818110610fc357610fc3612b7a565b9050602002016020810190610fd89190612ba0565b6040516001600160e01b031960e086901b1681526001600160a01b03938416600482015292909116602483015261ffff166044820152606401600060405180830381600087803b15801561102b57600080fd5b505af115801561103f573d6000803e3d6000fd5b5050505061107c565b83838281811061105a5761105a612b7a565b905060200201602081019061106f9190612ba0565b61ffff1661107c5761118e565b60025461010090046001600160a01b03166336a54b908585848181106110a4576110a4612b7a565b90506020020160208101906110b99190612ba0565b6040516001600160e01b031960e084901b16815261ffff9091166004820152602401602060405180830381865afa1580156110f8573d6000803e3d6000fd5b505050506040513d601f19601f8201168201806040525081019061111c9190612bc8565b1561115a576111553385858481811061113757611137612b7a565b905060200201602081019061114c9190612ba0565b61ffff16612278565b61118e565b61118e3385858481811061117057611170612b7a565b90506020020160208101906111859190612ba0565b61ffff16612357565b8061119881612c13565b915050610e75565b50336001600160a01b03167f316db5667106666e1f87fccb98328c1a775184d0587e34918cfb073a1b69c0a684846040516111dc929190612c2e565b60405180910390a250506001805550565b336111f6610b73565b6001600160a01b03161461121c5760405162461bcd60e51b81526004016103c090612c77565b600280546001600160a01b0394851661010002610100600160a81b0319909116179055600480549284166001600160a01b031993841617905560038054919093169116179055565b600061126f82612494565b92915050565b3361127e610b73565b6001600160a01b0316146112a45760405162461bcd60e51b81526004016103c090612c77565b600655565b6000323314806112cc57506003546001600160a01b0316336001600160a01b0316145b6112e85760405162461bcd60e51b81526004016103c090612ac2565b6000600260019054906101000a90046001600160a01b03166001600160a01b0316634a5f3a736040518163ffffffff1660e01b8152600401602060405180830381865afa15801561133d573d6000803e3d6000fd5b505050506040513d601f19601f820116820180604052508101906113619190612b39565b905043816001600160401b03161061138b5760405162461bcd60e51b81526004016103c090612b54565b5050600a5490565b61139b6127a6565b61126f8261152e565b6000323314806113c757506003546001600160a01b0316336001600160a01b0316145b6113e35760405162461bcd60e51b81526004016103c090612ac2565b6000600260019054906101000a90046001600160a01b03166001600160a01b0316634a5f3a736040518163ffffffff1660e01b8152600401602060405180830381865afa158015611438573d6000803e3d6000fd5b505050506040513d601f19601f8201168201806040525081019061145c9190612b39565b905043816001600160401b0316106114865760405162461bcd60e51b81526004016103c090612b54565b505060095490565b33611497610b73565b6001600160a01b0316146114bd5760405162461bcd60e51b81526004016103c090612c77565b6001600160a01b0381166115225760405162461bcd60e51b815260206004820152602660248201527f4f776e61626c653a206e6577206f776e657220697320746865207a65726f206160448201526564647265737360d01b60648201526084016103c0565b61152b81612228565b50565b6115366127a6565b61153f82612494565b61159a5760405162461bcd60e51b815260206004820152602660248201527f4172656e613a20546f6b656e206973206e6f74207374616b656420285f6765746044820152655374616b652960d01b60648201526084016103c0565b6002546040516332385e2560e01b81526004810184905260009161010090046001600160a01b0316906332385e2590602401602060405180830381865afa1580156115e9573d6000803e3d6000fd5b505050506040513d601f19601f8201168201806040525081019061160d9190612b39565b905043816001600160401b0316106116375760405162461bcd60e51b81526004016103c090612b54565b61163f6127a6565b60025460405163036a54b960e41b8152600481018690526101009091046001600160a01b0316906336a54b9090602401602060405180830381865afa15801561168c573d6000803e3d6000fd5b505050506040513d601f19601f820116820180604052508101906116b09190612bc8565b1561170957506000838152600c60209081526040918290208251608081018452815461ffff1681526001820154928101929092526002810154928201929092526003909101546001600160a01b0316606082015261179c565b60006117148561252f565b60ff81166000908152600d60209081526040808320898452600e9092529091205481549293509091811061174a5761174a612b7a565b6000918252602091829020604080516080810182526004909302909101805461ffff1683526001810154938301939093526002830154908201526003909101546001600160a01b031660608201529150505b60608101516001600160a01b0316336001600160a01b031614806117cf57503360009081526011602052604090205460ff165b61181d5760405162461bcd60e51b815260206004820152602b6024820152600080516020612fbf83398151915260448201526a285f6765745374616b652960a81b60648201526084016103c0565b9392505050565b600061182f83612494565b61188b5760405162461bcd60e51b815260206004820152602760248201527f4172656e613a20546f6b656e206973206e6f74207374616b656420285f636c61604482015266696d4865726f2960c81b60648201526084016103c0565b60006118968461152e565b60608101519091506001600160a01b03163314806118c357503360009081526011602052604090205460ff165b6119125760405162461bcd60e51b815260206004820152602c6024820152600080516020612fbf83398151915260448201526b285f636c61696d4865726f2960a01b60648201526084016103c0565b82801561192e5750600554604082015161192c9042612db6565b105b1561194b5760405162461bcd60e51b81526004016103c090612e29565b600354604051630ee2bb3160e01b8152600481018690526001600160a01b0390911690630ee2bb3190602401602060405180830381865afa158015611994573d6000803e3d6000fd5b505050506040513d601f19601f820116820180604052508101906119b89190612e6b565b91508215611b3e57604080514260208201526bffffffffffffffffffffffff193360601b1691810191909152605481018590526000906002906074016040516020818303038152906040528051906020012060001c611a179190612cf7565b90508060011660011415611a6f57611a2e836125b1565b828583606001516001600160a01b03167f0b5f13f265376b5b156b7bd7f618c7a10b1a8a2934400a2be4ab87edca7ba4a060405160405180910390a4600092505b6000858152600c60205260408120805461ffff1916815560018101829055600281019190915560030180546001600160a01b03191690556060820151611ab5908661260a565b60088054906000611ac583612e84565b90915550506002546060830151604051635c46a7ef60e11b81526101009092046001600160a01b03169163b88d4fde91611b06913091908a90600401612e9b565b600060405180830381600087803b158015611b2057600080fd5b505af1158015611b34573d6000803e3d6000fd5b5050505050611c08565b611b60606460065484611b519190612dcd565b611b5b9190612ece565b6125b1565b60646006546064611b719190612db6565b611b7b9084612dcd565b611b859190612ece565b60408051608081018252835161ffff908116825260006020808401828152428587019081526060808a01516001600160a01b039081169188019182528d8652600c909452969093209451855461ffff19169416939093178455915160018401555160028301559151600390910180546001600160a01b0319169190921617905591505b60608101516040805185151581526020810185905286926001600160a01b0316917f60796456d2cbc01db83a572dd50a0cec896a1574a783222ff39fd5567b744fdb910160405180910390a35092915050565b6000611c6683612494565b611cc55760405162461bcd60e51b815260206004820152602a60248201527f4172656e613a20546f6b656e206973206e6f74207374616b656420285f636c61604482015269696d56696c6c61696e2960b01b60648201526084016103c0565b6002546040516331a9108f60e11b815260048101859052309161010090046001600160a01b031690636352211e90602401602060405180830381865afa158015611d13573d6000803e3d6000fd5b505050506040513d601f19601f82011682018060405250810190611d379190612e0c565b6001600160a01b031614611d885760405162461bcd60e51b815260206004820152601860248201527720b932b7309d102237b2b9b713ba1037bbb7103a37b5b2b760411b60448201526064016103c0565b6000611d938461252f565b90506000611da08561152e565b60608101519091506001600160a01b0316331480611dcd57503360009081526011602052604090205460ff165b611e1f5760405162461bcd60e51b815260206004820152602f6024820152600080516020612fbf83398151915260448201526e285f636c61696d56696c6c61696e2960881b60648201526084016103c0565b838015611e3b57506005546040820151611e399042612db6565b105b15611e585760405162461bcd60e51b81526004016103c090612e29565b600354604051630ee2bb3160e01b8152600481018790526001600160a01b0390911690630ee2bb3190602401602060405180830381865afa158015611ea1573d6000803e3d6000fd5b505050506040513d601f19601f82011682018060405250810190611ec59190612e6b565b92508315612106578160ff16600a6000828254611ee29190612db6565b909155505060098054906000611ef783612e84565b909155505060ff82166000908152600d602052604081208054611f1c90600190612db6565b81548110611f2c57611f2c612b7a565b60009182526020808320604080516080810182526004909402909101805461ffff168452600181015484840152600281015484830152600301546001600160a01b0316606084015260ff87168452600d82528084208a8552600e9092529092205482549193508392918110611fa357611fa3612b7a565b60009182526020808320845160049390930201805461ffff191661ffff9384161781558482015160018201556040808601516002830155606090950151600390910180546001600160a01b0319166001600160a01b03909216919091179055898352600e815283832054855190921683528383209190915560ff86168252600d90522080548061203557612035612ee2565b60008281526020808220600460001990940193840201805461ffff19168155600181018390556002810183905560030180546001600160a01b031916905591909255878252600e905260408120556060820151612092908761260a565b6002546060830151604051635c46a7ef60e11b81526101009092046001600160a01b03169163b88d4fde916120ce913091908b90600401612e9b565b600060405180830381600087803b1580156120e857600080fd5b505af11580156120fc573d6000803e3d6000fd5b50505050506121d4565b60408051608081018252825161ffff16815260105460208083019190915242828401526060808501516001600160a01b03169083015260ff85166000908152600d8252838120898252600e9092529290922054825491928392909190811061217057612170612b7a565b6000918252602091829020835160049290920201805461ffff191661ffff90921691909117815590820151600182015560408201516002820155606090910151600390910180546001600160a01b0319166001600160a01b03909216919091179055505b60608101516040805186151581526020810186905287926001600160a01b0316917f60796456d2cbc01db83a572dd50a0cec896a1574a783222ff39fd5567b744fdb910160405180910390a3505092915050565b600080546001600160a01b038381166001600160a01b0319831681178455604051919092169283917f8be0079c531659141344cd1fd0a4f28419497f9722a3daafe3b4186f6b6457e09190a35050565b6040805160808101825261ffff8381168252600060208084018281524269ffffffffffffffffffff168587019081526001600160a01b0389811660608801908152898652600c909452969093208551815461ffff191695169490941784555160018401559051600283015551600390910180546001600160a01b0319169190931617909155612307838361277a565b6008805490600061231783612c13565b909155505060405182906001600160a01b038516907f1fdab8a8457aaf782e4b6217d6ffa6f5006eda7e50922dd092b2e1524275d77490600090a3505050565b6040805160808101825261ffff83168152601054602082015242918101919091526001600160a01b038316606082015260006123928361252f565b90508060ff16600a60008282546123a99190612bfb565b9091555050600980549060006123be83612c13565b909155505060ff81166000908152600d602081815260408084208054888652600e845282862081905593835260018085018255908552938290208651600490940201805461ffff191661ffff90941693909317835590850151928201929092559083015160028201556060830151600390910180546001600160a01b0319166001600160a01b03909216919091179055612458848461277a565b60405183906001600160a01b038616907f1fdab8a8457aaf782e4b6217d6ffa6f5006eda7e50922dd092b2e1524275d77490600090a350505050565b6002546040516331a9108f60e11b81526004810183905260009182916101009091046001600160a01b031690636352211e90602401602060405180830381865afa1580156124e6573d6000803e3d6000fd5b505050506040513d601f19601f8201168201806040525081019061250a9190612e0c565b90506001600160a01b0381163014156125265750600192915050565b50600092915050565b6002546040516394e5684760e01b81526004810183905260009182916101009091046001600160a01b0316906394e568479060240161010060405180830381865afa158015612582573d6000803e3d6000fd5b505050506040513d601f19601f820116820180604052508101906125a69190612f03565b60a001519392505050565b600a546125d25780600f60008282546125ca9190612bfb565b909155505050565b600a54600f546125e29083612bfb565b6125ec9190612ece565b601060008282546125fd9190612bfb565b90915550506000600f5550565b6001600160a01b0382166000908152600b602090815260408083208054825181850281018501909352808352919290919083018282801561266a57602002820191906000526020600020905b815481526020019060010190808311612656575b505050505090506000600182516126819190612db6565b6001600160401b0381111561269857612698612d0b565b6040519080825280602002602001820160405280156126c1578160200160208202803683370190505b5090506000805b835181101561274857848482815181106126e4576126e4612b7a565b6020026020010151146127365783818151811061270357612703612b7a565b602002602001015183838151811061271d5761271d612b7a565b60209081029190910101528161273281612c13565b9250505b8061274081612c13565b9150506126c8565b506001600160a01b0385166000908152600b602090815260409091208351612772928501906127db565b505050505050565b6001600160a01b039091166000908152600b602090815260408220805460018101825590835291200155565b6040518060800160405280600061ffff168152602001600081526020016000815260200160006001600160a01b031681525090565b828054828255906000526020600020908101928215612816579160200282015b828111156128165782518255916020019190600101906127fb565b50612822929150612826565b5090565b5b808211156128225760008155600101612827565b60008083601f84011261284d57600080fd5b5081356001600160401b0381111561286457600080fd5b6020830191508360208260051b850101111561287f57600080fd5b9250929050565b801515811461152b57600080fd5b6000806000604084860312156128a957600080fd5b83356001600160401b038111156128bf57600080fd5b6128cb8682870161283b565b90945092505060208401356128df81612886565b809150509250925092565b6001600160a01b038116811461152b57600080fd5b60008060008060006080868803121561291757600080fd5b8535612922816128ea565b94506020860135612932816128ea565b93506040860135925060608601356001600160401b038082111561295557600080fd5b818801915088601f83011261296957600080fd5b81358181111561297857600080fd5b89602082850101111561298a57600080fd5b9699959850939650602001949392505050565b6000602082840312156129af57600080fd5b813561181d816128ea565b6000602082840312156129cc57600080fd5b5035919050565b6020808252825182820181905260009190848201906040850190845b81811015612a0b578351835292840192918401916001016129ef565b50909695505050505050565b60008060208385031215612a2a57600080fd5b82356001600160401b03811115612a4057600080fd5b612a4c8582860161283b565b90969095509350505050565b600080600060608486031215612a6d57600080fd5b8335612a78816128ea565b92506020840135612a88816128ea565b915060408401356128df816128ea565b60208082526010908201526f14185d5cd8589b194e881c185d5cd95960821b604082015260600190565b6020808252600f908201526e4172656e613a204f6e6c7920454f4160881b604082015260600190565b6020808252601f908201527f5265656e7472616e637947756172643a207265656e7472616e742063616c6c00604082015260600190565b80516001600160401b0381168114610d3f57600080fd5b600060208284031215612b4b57600080fd5b61181d82612b22565b6020808252600c908201526b4172656e613a204e6f70652160a01b604082015260600190565b634e487b7160e01b600052603260045260246000fd5b61ffff8116811461152b57600080fd5b600060208284031215612bb257600080fd5b813561181d81612b90565b8051610d3f81612886565b600060208284031215612bda57600080fd5b815161181d81612886565b634e487b7160e01b600052601160045260246000fd5b60008219821115612c0e57612c0e612be5565b500190565b6000600019821415612c2757612c27612be5565b5060010190565b60208082528181018390526000908460408401835b86811015612c6c578235612c5681612b90565b61ffff1682529183019190830190600101612c43565b509695505050505050565b6020808252818101527f4f776e61626c653a2063616c6c6572206973206e6f7420746865206f776e6572604082015260600190565b6020808252818101527f4172656e613a204f6e6c792061646d696e732063616e2063616c6c2074686973604082015260600190565b634e487b7160e01b600052601260045260246000fd5b600082612d0657612d06612ce1565b500690565b634e487b7160e01b600052604160045260246000fd5b805160ff81168114610d3f57600080fd5b600060808284031215612d4457600080fd5b82601f830112612d5357600080fd5b604051608081018181106001600160401b0382111715612d7557612d75612d0b565b604052806080840185811115612d8a57600080fd5b845b81811015612dab57612d9d81612d21565b835260209283019201612d8c565b509195945050505050565b600082821015612dc857612dc8612be5565b500390565b6000816000190483118215151615612de757612de7612be5565b500290565b600060ff821660ff811415612e0357612e03612be5565b60010192915050565b600060208284031215612e1e57600080fd5b815161181d816128ea565b60208082526022908201527f4172656e613a205374696c6c206669676874696e6720696e20746865206172656040820152616e6160f01b606082015260800190565b600060208284031215612e7d57600080fd5b5051919050565b600081612e9357612e93612be5565b506000190190565b6001600160a01b039384168152919092166020820152604081019190915260806060820181905260009082015260a00190565b600082612edd57612edd612ce1565b500490565b634e487b7160e01b600052603160045260246000fd5b8051610d3f81612b90565b6000610100808385031215612f1757600080fd5b604051908101906001600160401b0382118183101715612f3957612f39612d0b565b8160405283519150612f4a82612886565b818152612f5960208501612bbd565b6020820152612f6a60408501612bbd565b6040820152612f7b60608501612ef8565b606082015260808401516080820152612f9660a08501612d21565b60a082015260c084015160c0820152612fb160e08501612b22565b60e082015294935050505056fe4172656e613a20596f7520646f6e2774206f776e207468697320746f6b656e20a2646970667358221220519ac8b30c40e0c2cb77d4599a48046f09afa6f835608e65ebf0516e17f156d864736f6c634300080b0033",
  "linkReferences": {},
  "deployedLinkReferences": {}
}