{
  "_format": "hh-sol-artifact-1",
  "contractName": "PowerUp",
  "sourceName": "contracts/PowerUp.sol",
  "abi": [
    {
      "inputs": [],
      "stateMutability": "nonpayable",
      "type": "constructor"
    },
    {
      "anonymous": false,
      "inputs": [
        {
          "indexed": true,
          "internalType": "address",
          "name": "owner",
          "type": "address"
        },
        {
          "indexed": true,
          "internalType": "address",
          "name": "approved",
          "type": "address"
        },
        {
          "indexed": true,
          "internalType": "uint256",
          "name": "tokenId",
          "type": "uint256"
        }
      ],
      "name": "Approval",
      "type": "event"
    },
    {
      "anonymous": false,
      "inputs": [
        {
          "indexed": true,
          "internalType": "address",
          "name": "owner",
          "type": "address"
        },
        {
          "indexed": true,
          "internalType": "address",
          "name": "operator",
          "type": "address"
        },
        {
          "indexed": false,
          "internalType": "bool",
          "name": "approved",
          "type": "bool"
        }
      ],
      "name": "ApprovalForAll",
      "type": "event"
    },
    {
      "anonymous": false,
      "inputs": [
        {
          "indexed": true,
          "internalType": "address",
          "name": "previousOwner",
          "type": "address"
        },
        {
          "indexed": true,
          "internalType": "address",
          "name": "newOwner",
          "type": "address"
        }
      ],
      "name": "OwnershipTransferred",
      "type": "event"
    },
    {
      "anonymous": false,
      "inputs": [
        {
          "indexed": false,
          "internalType": "address",
          "name": "account",
          "type": "address"
        }
      ],
      "name": "Paused",
      "type": "event"
    },
    {
      "anonymous": false,
      "inputs": [
        {
          "indexed": false,
          "internalType": "address",
          "name": "owner",
          "type": "address"
        },
        {
          "indexed": false,
          "internalType": "uint256",
          "name": "tokenId",
          "type": "uint256"
        }
      ],
      "name": "TokenBurned",
      "type": "event"
    },
    {
      "anonymous": false,
      "inputs": [
        {
          "indexed": false,
          "internalType": "address",
          "name": "owner",
          "type": "address"
        },
        {
          "indexed": false,
          "internalType": "uint256[]",
          "name": "tokenIds",
          "type": "uint256[]"
        }
      ],
      "name": "TokensMinted",
      "type": "event"
    },
    {
      "anonymous": false,
      "inputs": [
        {
          "indexed": true,
          "internalType": "address",
          "name": "from",
          "type": "address"
        },
        {
          "indexed": true,
          "internalType": "address",
          "name": "to",
          "type": "address"
        },
        {
          "indexed": true,
          "internalType": "uint256",
          "name": "tokenId",
          "type": "uint256"
        }
      ],
      "name": "Transfer",
      "type": "event"
    },
    {
      "anonymous": false,
      "inputs": [
        {
          "indexed": false,
          "internalType": "address",
          "name": "account",
          "type": "address"
        }
      ],
      "name": "Unpaused",
      "type": "event"
    },
    {
      "inputs": [
        {
          "internalType": "address",
          "name": "addr",
          "type": "address"
        }
      ],
      "name": "addAdmin",
      "outputs": [],
      "stateMutability": "nonpayable",
      "type": "function"
    },
    {
      "inputs": [
        {
          "internalType": "address",
          "name": "to",
          "type": "address"
        },
        {
          "internalType": "uint256",
          "name": "tokenId",
          "type": "uint256"
        }
      ],
      "name": "approve",
      "outputs": [],
      "stateMutability": "nonpayable",
      "type": "function"
    },
    {
      "inputs": [
        {
          "internalType": "address",
          "name": "owner",
          "type": "address"
        }
      ],
      "name": "balanceOf",
      "outputs": [
        {
          "internalType": "uint256",
          "name": "",
          "type": "uint256"
        }
      ],
      "stateMutability": "view",
      "type": "function"
    },
    {
      "inputs": [
        {
          "internalType": "uint256",
          "name": "tokenId",
          "type": "uint256"
        }
      ],
      "name": "burn",
      "outputs": [],
      "stateMutability": "nonpayable",
      "type": "function"
    },
    {
      "inputs": [
        {
          "internalType": "uint256",
          "name": "tokenId",
          "type": "uint256"
        }
      ],
      "name": "getApproved",
      "outputs": [
        {
          "internalType": "address",
          "name": "",
          "type": "address"
        }
      ],
      "stateMutability": "view",
      "type": "function"
    },
    {
      "inputs": [
        {
          "internalType": "uint256",
          "name": "tokenId",
          "type": "uint256"
        }
      ],
      "name": "getTokenTraits",
      "outputs": [
        {
          "components": [
            {
              "internalType": "uint256",
              "name": "mintedTimestamp",
              "type": "uint256"
            },
            {
              "internalType": "uint256",
              "name": "mintedBlockNumber",
              "type": "uint256"
            },
            {
              "internalType": "uint256",
              "name": "lastTransferTimestamp",
              "type": "uint256"
            }
          ],
          "internalType": "struct IPowerUp.PowerUp",
          "name": "",
          "type": "tuple"
        }
      ],
      "stateMutability": "view",
      "type": "function"
    },
    {
      "inputs": [
        {
          "internalType": "address",
          "name": "owner",
          "type": "address"
        },
        {
          "internalType": "address",
          "name": "operator",
          "type": "address"
        }
      ],
      "name": "isApprovedForAll",
      "outputs": [
        {
          "internalType": "bool",
          "name": "",
          "type": "bool"
        }
      ],
      "stateMutability": "view",
      "type": "function"
    },
    {
      "inputs": [
        {
          "internalType": "address",
          "name": "recipient",
          "type": "address"
        },
        {
          "internalType": "uint256",
          "name": "amount",
          "type": "uint256"
        }
      ],
      "name": "mint",
      "outputs": [],
      "stateMutability": "nonpayable",
      "type": "function"
    },
    {
      "inputs": [],
      "name": "name",
      "outputs": [
        {
          "internalType": "string",
          "name": "",
          "type": "string"
        }
      ],
      "stateMutability": "view",
      "type": "function"
    },
    {
      "inputs": [],
      "name": "owner",
      "outputs": [
        {
          "internalType": "address",
          "name": "",
          "type": "address"
        }
      ],
      "stateMutability": "view",
      "type": "function"
    },
    {
      "inputs": [
        {
          "internalType": "uint256",
          "name": "tokenId",
          "type": "uint256"
        }
      ],
      "name": "ownerOf",
      "outputs": [
        {
          "internalType": "address",
          "name": "",
          "type": "address"
        }
      ],
      "stateMutability": "view",
      "type": "function"
    },
    {
      "inputs": [],
      "name": "paused",
      "outputs": [
        {
          "internalType": "bool",
          "name": "",
          "type": "bool"
        }
      ],
      "stateMutability": "view",
      "type": "function"
    },
    {
      "inputs": [
        {
          "internalType": "address",
          "name": "addr",
          "type": "address"
        }
      ],
      "name": "removeAdmin",
      "outputs": [],
      "stateMutability": "nonpayable",
      "type": "function"
    },
    {
      "inputs": [],
      "name": "renounceOwnership",
      "outputs": [],
      "stateMutability": "nonpayable",
      "type": "function"
    },
    {
      "inputs": [
        {
          "internalType": "uint256",
          "name": "tokenId",
          "type": "uint256"
        },
        {
          "internalType": "uint256",
          "name": "salePrice",
          "type": "uint256"
        }
      ],
      "name": "royaltyInfo",
      "outputs": [
        {
          "internalType": "address",
          "name": "receiver",
          "type": "address"
        },
        {
          "internalType": "uint256",
          "name": "royaltyAmount",
          "type": "uint256"
        }
      ],
      "stateMutability": "view",
      "type": "function"
    },
    {
      "inputs": [
        {
          "internalType": "address",
          "name": "from",
          "type": "address"
        },
        {
          "internalType": "address",
          "name": "to",
          "type": "address"
        },
        {
          "internalType": "uint256",
          "name": "tokenId",
          "type": "uint256"
        }
      ],
      "name": "safeTransferFrom",
      "outputs": [],
      "stateMutability": "nonpayable",
      "type": "function"
    },
    {
      "inputs": [
        {
          "internalType": "address",
          "name": "from",
          "type": "address"
        },
        {
          "internalType": "address",
          "name": "to",
          "type": "address"
        },
        {
          "internalType": "uint256",
          "name": "tokenId",
          "type": "uint256"
        },
        {
          "internalType": "bytes",
          "name": "_data",
          "type": "bytes"
        }
      ],
      "name": "safeTransferFrom",
      "outputs": [],
      "stateMutability": "nonpayable",
      "type": "function"
    },
    {
      "inputs": [
        {
          "internalType": "address",
          "name": "operator",
          "type": "address"
        },
        {
          "internalType": "bool",
          "name": "approved",
          "type": "bool"
        }
      ],
      "name": "setApprovalForAll",
      "outputs": [],
      "stateMutability": "nonpayable",
      "type": "function"
    },
    {
      "inputs": [
        {
          "internalType": "bool",
          "name": "_paused",
          "type": "bool"
        }
      ],
      "name": "setPaused",
      "outputs": [],
      "stateMutability": "nonpayable",
      "type": "function"
    },
    {
      "inputs": [
        {
          "internalType": "string",
          "name": "revealedBaseURI",
          "type": "string"
        }
      ],
      "name": "setRevealedBaseURI",
      "outputs": [],
      "stateMutability": "nonpayable",
      "type": "function"
    },
    {
      "inputs": [
        {
          "internalType": "uint256",
          "name": "number",
          "type": "uint256"
        }
      ],
      "name": "setRoyaltyPermille",
      "outputs": [],
      "stateMutability": "nonpayable",
      "type": "function"
    },
    {
      "inputs": [
        {
          "internalType": "bytes4",
          "name": "interfaceId",
          "type": "bytes4"
        }
      ],
      "name": "supportsInterface",
      "outputs": [
        {
          "internalType": "bool",
          "name": "",
          "type": "bool"
        }
      ],
      "stateMutability": "view",
      "type": "function"
    },
    {
      "inputs": [],
      "name": "symbol",
      "outputs": [
        {
          "internalType": "string",
          "name": "",
          "type": "string"
        }
      ],
      "stateMutability": "view",
      "type": "function"
    },
    {
      "inputs": [
        {
          "internalType": "uint256",
          "name": "index",
          "type": "uint256"
        }
      ],
      "name": "tokenByIndex",
      "outputs": [
        {
          "internalType": "uint256",
          "name": "",
          "type": "uint256"
        }
      ],
      "stateMutability": "view",
      "type": "function"
    },
    {
      "inputs": [
        {
          "internalType": "address",
          "name": "owner",
          "type": "address"
        },
        {
          "internalType": "uint256",
          "name": "index",
          "type": "uint256"
        }
      ],
      "name": "tokenOfOwnerByIndex",
      "outputs": [
        {
          "internalType": "uint256",
          "name": "",
          "type": "uint256"
        }
      ],
      "stateMutability": "view",
      "type": "function"
    },
    {
      "inputs": [
        {
          "internalType": "uint256",
          "name": "tokenId",
          "type": "uint256"
        }
      ],
      "name": "tokenURI",
      "outputs": [
        {
          "internalType": "string",
          "name": "",
          "type": "string"
        }
      ],
      "stateMutability": "view",
      "type": "function"
    },
    {
      "inputs": [],
      "name": "tokensMinted",
      "outputs": [
        {
          "internalType": "uint256",
          "name": "",
          "type": "uint256"
        }
      ],
      "stateMutability": "view",
      "type": "function"
    },
    {
      "inputs": [],
      "name": "totalSupply",
      "outputs": [
        {
          "internalType": "uint256",
          "name": "",
          "type": "uint256"
        }
      ],
      "stateMutability": "view",
      "type": "function"
    },
    {
      "inputs": [
        {
          "internalType": "address",
          "name": "from",
          "type": "address"
        },
        {
          "internalType": "address",
          "name": "to",
          "type": "address"
        },
        {
          "internalType": "uint256",
          "name": "tokenId",
          "type": "uint256"
        }
      ],
      "name": "transferFrom",
      "outputs": [],
      "stateMutability": "nonpayable",
      "type": "function"
    },
    {
      "inputs": [
        {
          "internalType": "address",
          "name": "newOwner",
          "type": "address"
        }
      ],
      "name": "transferOwnership",
      "outputs": [],
      "stateMutability": "nonpayable",
      "type": "function"
    },
    {
      "inputs": [
        {
          "internalType": "address",
          "name": "owner",
          "type": "address"
        }
      ],
      "name": "walletOfOwner",
      "outputs": [
        {
          "internalType": "uint256[]",
          "name": "",
          "type": "uint256[]"
        }
      ],
      "stateMutability": "view",
      "type": "function"
    },
    {
      "inputs": [],
      "name": "withdraw",
      "outputs": [],
      "stateMutability": "nonpayable",
      "type": "function"
    }
  ],
  "bytecode": "0x60a06040819052600060808190526200001b91600f9162000139565b5060c8601055601180546001600160a01b03191673953666239e8e3cc4128b8f47f5f34927755376711790553480156200005457600080fd5b50604080518082018252600880825267506f77657255707360c01b602080840182815285518087019096529285528401528151919291620000989160009162000139565b508051620000ae90600190602084019062000139565b505050620000cb620000c5620000e360201b60201c565b620000e7565b600a805460ff60a01b191690556001600b556200021c565b3390565b600a80546001600160a01b038381166001600160a01b0319831681179093556040519116919082907f8be0079c531659141344cd1fd0a4f28419497f9722a3daafe3b4186f6b6457e090600090a35050565b8280546200014790620001df565b90600052602060002090601f0160209004810192826200016b5760008555620001b6565b82601f106200018657805160ff1916838001178555620001b6565b82800160010185558215620001b6579182015b82811115620001b657825182559160200191906001019062000199565b50620001c4929150620001c8565b5090565b5b80821115620001c45760008155600101620001c9565b600181811c90821680620001f457607f821691505b602082108114156200021657634e487b7160e01b600052602260045260246000fd5b50919050565b61291e806200022c6000396000f3fe608060405234801561001057600080fd5b50600436106101b05760003560e01c80634f6ccce7116100ef5780638da5cb5b116100925780638da5cb5b146103ae57806394e56847146103b657806395d89b41146103eb578063a22cb465146103f3578063b88d4fde14610406578063c87b56dd14610419578063e985e9c51461042c578063f2fde38b1461043f57600080fd5b80634f6ccce7146103365780635c975abb146103495780636352211e146103515780636de9f32b146103645780636e83843a1461036d578063704802751461038057806370a0823114610393578063715018a6146103a657600080fd5b80632a55205a116101575780632a55205a1461027d5780632e9f3f67146102af5780632f745c59146102c25780633ccfd60b146102d557806340c10f19146102dd57806342842e0e146102f057806342966c6814610303578063438b63001461031657600080fd5b806301ffc9a7146101b557806306fdde03146101dd578063081812fc146101f2578063095ea7b31461021d57806316c38b3c146102325780631785f53c1461024557806318160ddd1461025857806323b872dd1461026a575b600080fd5b6101c86101c3366004611fa2565b610452565b60405190151581526020015b60405180910390f35b6101e561047d565b6040516101d4919061201e565b610205610200366004612031565b61050f565b6040516001600160a01b0390911681526020016101d4565b61023061022b366004612066565b61059c565b005b6102306102403660046120a0565b6106ad565b6102306102533660046120bb565b6106f5565b6008545b6040519081526020016101d4565b6102306102783660046120d6565b610745565b61029061028b366004612112565b610765565b604080516001600160a01b0390931683526020830191909152016101d4565b6102306102bd366004612031565b61079f565b61025c6102d0366004612066565b6107d3565b610230610869565b6102306102eb366004612066565b6108d8565b6102306102fe3660046120d6565b610ac9565b610230610311366004612031565b610ae4565b6103296103243660046120bb565b610baa565b6040516101d4919061216f565b61025c610344366004612031565b610c4c565b6101c8610cdf565b61020561035f366004612031565b610cef565b61025c600c5481565b61023061037b366004612182565b610d66565b61023061038e3660046120bb565b610da1565b61025c6103a13660046120bb565b610df4565b610230610e7b565b610205610eb6565b6103c96103c4366004612031565b610ec5565b60408051825181526020808401519082015291810151908201526060016101d4565b6101e5610f77565b6102306104013660046121f4565b610f86565b61023061041436600461223d565b610f95565b6101e5610427366004612031565b610fcd565b6101c861043a366004612319565b611093565b61023061044d3660046120bb565b6110c1565b60006001600160e01b0319821663152a902d60e11b148061047757506104778261115e565b92915050565b60606000805461048c90612343565b80601f01602080910402602001604051908101604052809291908181526020018280546104b890612343565b80156105055780601f106104da57610100808354040283529160200191610505565b820191906000526020600020905b8154815290600101906020018083116104e857829003601f168201915b5050505050905090565b600061051a82611183565b6105805760405162461bcd60e51b815260206004820152602c60248201527f4552433732313a20617070726f76656420717565727920666f72206e6f6e657860448201526b34b9ba32b73a103a37b5b2b760a11b60648201526084015b60405180910390fd5b506000908152600460205260409020546001600160a01b031690565b60006105a782610cef565b9050806001600160a01b0316836001600160a01b031614156106155760405162461bcd60e51b815260206004820152602160248201527f4552433732313a20617070726f76616c20746f2063757272656e74206f776e656044820152603960f91b6064820152608401610577565b336001600160a01b038216148061063157506106318133611093565b61069e5760405162461bcd60e51b815260206004820152603860248201527f4552433732313a20617070726f76652063616c6c6572206973206e6f74206f776044820152771b995c881b9bdc88185c1c1c9bdd995908199bdc88185b1b60421b6064820152608401610577565b6106a883836111a0565b505050565b336106b6610eb6565b6001600160a01b0316146106dc5760405162461bcd60e51b81526004016105779061237e565b80156106ed576106ea61120e565b50565b6106ea61128b565b336106fe610eb6565b6001600160a01b0316146107245760405162461bcd60e51b81526004016105779061237e565b6001600160a01b03166000908152600d60205260409020805460ff19169055565b6000818152600e60205260409020426002909101556106a883838361130a565b60115460105460009182916001600160a01b03909116906103e89061078a90866123c9565b61079491906123fe565b915091509250929050565b336107a8610eb6565b6001600160a01b0316146107ce5760405162461bcd60e51b81526004016105779061237e565b601055565b60006107de83610df4565b82106108405760405162461bcd60e51b815260206004820152602b60248201527f455243373231456e756d657261626c653a206f776e657220696e646578206f7560448201526a74206f6620626f756e647360a81b6064820152608401610577565b506001600160a01b03919091166000908152600660209081526040808320938352929052205490565b33610872610eb6565b6001600160a01b0316146108985760405162461bcd60e51b81526004016105779061237e565b6108a0610eb6565b6001600160a01b03166108fc479081150290604051600060405180830381858888f193505050501580156106ea573d6000803e3d6000fd5b6108e0610cdf565b156108fd5760405162461bcd60e51b815260040161057790612412565b6002600b5414156109505760405162461bcd60e51b815260206004820152601f60248201527f5265656e7472616e637947756172643a207265656e7472616e742063616c6c006044820152606401610577565b6002600b55336000908152600d602052604090205460ff166109845760405162461bcd60e51b81526004016105779061243c565b60008167ffffffffffffffff81111561099f5761099f612227565b6040519080825280602002602001820160405280156109c8578160200160208202803683370190505b50905060005b82811015610a8557600c80549060006109e68361247e565b91905055506109f784600c5461133b565b600c54828281518110610a0c57610a0c612499565b602002602001018181525050610a3c60405180606001604052806000815260200160008152602001600081525090565b436020808301918252428084526040808501918252600c546000908152600e90935290912092518355905160018301555160029091015580610a7d8161247e565b9150506109ce565b507fdb153ff9f24a951da56cac1fbfe269594c12911bb4b97c3ce2b6a60ab9fbb9e28382604051610ab79291906124af565b60405180910390a150506001600b5550565b6106a883838360405180602001604052806000815250610f95565b610aec610cdf565b15610b095760405162461bcd60e51b815260040161057790612412565b336000908152600d602052604090205460ff16610b385760405162461bcd60e51b81526004016105779061243c565b7f1af5163f80e79b5e554f61e1d052084d3a3fe1166e42a265798c4e2ddce8ffa2610b6282610cef565b604080516001600160a01b039092168252602082018490520160405180910390a1610b8c81611355565b6000908152600e602052604081208181556001810182905560020155565b60606000610bb783610df4565b905060008167ffffffffffffffff811115610bd457610bd4612227565b604051908082528060200260200182016040528015610bfd578160200160208202803683370190505b50905060005b82811015610c4457610c1585826107d3565b828281518110610c2757610c27612499565b602090810291909101015280610c3c8161247e565b915050610c03565b509392505050565b6000610c5760085490565b8210610cba5760405162461bcd60e51b815260206004820152602c60248201527f455243373231456e756d657261626c653a20676c6f62616c20696e646578206f60448201526b7574206f6620626f756e647360a01b6064820152608401610577565b60088281548110610ccd57610ccd612499565b90600052602060002001549050919050565b600a54600160a01b900460ff1690565b6000818152600260205260408120546001600160a01b0316806104775760405162461bcd60e51b815260206004820152602960248201527f4552433732313a206f776e657220717565727920666f72206e6f6e657869737460448201526832b73a103a37b5b2b760b91b6064820152608401610577565b33610d6f610eb6565b6001600160a01b031614610d955760405162461bcd60e51b81526004016105779061237e565b6106a8600f8383611ef3565b33610daa610eb6565b6001600160a01b031614610dd05760405162461bcd60e51b81526004016105779061237e565b6001600160a01b03166000908152600d60205260409020805460ff19166001179055565b60006001600160a01b038216610e5f5760405162461bcd60e51b815260206004820152602a60248201527f4552433732313a2062616c616e636520717565727920666f7220746865207a65604482015269726f206164647265737360b01b6064820152608401610577565b506001600160a01b031660009081526003602052604090205490565b33610e84610eb6565b6001600160a01b031614610eaa5760405162461bcd60e51b81526004016105779061237e565b610eb460006113ea565b565b600a546001600160a01b031690565b610ee960405180606001604052806000815260200160008152602001600081525090565b610ef282611183565b610f3e5760405162461bcd60e51b815260206004820152601d60248201527f506f77657255703a20546f6b656e20646f6573206e6f742065786973740000006044820152606401610577565b506000908152600e6020908152604091829020825160608101845281548152600182015492810192909252600201549181019190915290565b60606001805461048c90612343565b610f9133838361143c565b5050565b610f9f3383611507565b610fbb5760405162461bcd60e51b8152600401610577906124d3565b610fc7848484846115d1565b50505050565b6060806000610fdb84611604565b9050610fe684611183565b1561101557600f81604051602001610fff9291906125da565b6040516020818303038152906040529150611039565b600f60405160200161102791906125ff565b60405160208183030381529060405291505b60008183836040516020016110509392919061261f565b604051602081830303815290604052905061106a81611702565b60405160200161107a9190612748565b6040516020818303038152906040529350505050919050565b6001600160a01b03918216600090815260056020908152604080832093909416825291909152205460ff1690565b336110ca610eb6565b6001600160a01b0316146110f05760405162461bcd60e51b81526004016105779061237e565b6001600160a01b0381166111555760405162461bcd60e51b815260206004820152602660248201527f4f776e61626c653a206e6577206f776e657220697320746865207a65726f206160448201526564647265737360d01b6064820152608401610577565b6106ea816113ea565b60006001600160e01b0319821663780e9d6360e01b1480610477575061047782611868565b6000908152600260205260409020546001600160a01b0316151590565b600081815260046020526040902080546001600160a01b0319166001600160a01b03841690811790915581906111d582610cef565b6001600160a01b03167f8c5be1e5ebec7d5bd14f71427d1e84f3dd0314c0f7b2291e5b200ac8c7c3b92560405160405180910390a45050565b611216610cdf565b156112335760405162461bcd60e51b815260040161057790612412565b600a805460ff60a01b1916600160a01b1790557f62e78cea01bee320cd4e420270b5ea74000d11b0c9f74754ebdbfc544b05a25861126e3390565b6040516001600160a01b03909116815260200160405180910390a1565b611293610cdf565b6112d65760405162461bcd60e51b815260206004820152601460248201527314185d5cd8589b194e881b9bdd081c185d5cd95960621b6044820152606401610577565b600a805460ff60a01b191690557f5db9ee0a495bf2e6ff9c91a7834c1ba4fdd244a5e8aa4e537bd38aeae4b073aa3361126e565b6113143382611507565b6113305760405162461bcd60e51b8152600401610577906124d3565b6106a88383836118b8565b610f91828260405180602001604052806000815250611a4d565b600061136082610cef565b905061136e81600084611a80565b6113796000836111a0565b6001600160a01b03811660009081526003602052604081208054600192906113a290849061278d565b909155505060008281526002602052604080822080546001600160a01b0319169055518391906001600160a01b038416906000805160206128c9833981519152908390a45050565b600a80546001600160a01b038381166001600160a01b0319831681179093556040519116919082907f8be0079c531659141344cd1fd0a4f28419497f9722a3daafe3b4186f6b6457e090600090a35050565b816001600160a01b0316836001600160a01b0316141561149a5760405162461bcd60e51b815260206004820152601960248201527822a9219b99189d1030b8383937bb32903a379031b0b63632b960391b6044820152606401610577565b6001600160a01b03838116600081815260056020908152604080832094871680845294825291829020805460ff191686151590811790915591519182527f17307eab39ab6107e8899845ad3d59bd9653f200f220920489ca2b5937696c31910160405180910390a3505050565b600061151282611183565b6115735760405162461bcd60e51b815260206004820152602c60248201527f4552433732313a206f70657261746f7220717565727920666f72206e6f6e657860448201526b34b9ba32b73a103a37b5b2b760a11b6064820152608401610577565b600061157e83610cef565b9050806001600160a01b0316846001600160a01b031614806115b95750836001600160a01b03166115ae8461050f565b6001600160a01b0316145b806115c957506115c98185611093565b949350505050565b6115dc8484846118b8565b6115e884848484611b38565b610fc75760405162461bcd60e51b8152600401610577906127a4565b6060816116285750506040805180820190915260018152600360fc1b602082015290565b8160005b8115611652578061163c8161247e565b915061164b9050600a836123fe565b915061162c565b60008167ffffffffffffffff81111561166d5761166d612227565b6040519080825280601f01601f191660200182016040528015611697576020820181803683370190505b5090505b84156115c9576116ac60018361278d565b91506116b9600a866127f6565b6116c490603061280a565b60f81b8183815181106116d9576116d9612499565b60200101906001600160f81b031916908160001a9053506116fb600a866123fe565b945061169b565b606081516000141561172257505060408051602081019091526000815290565b60006040518060600160405280604081526020016128896040913990506000600384516002611751919061280a565b61175b91906123fe565b6117669060046123c9565b9050600061177582602061280a565b67ffffffffffffffff81111561178d5761178d612227565b6040519080825280601f01601f1916602001820160405280156117b7576020820181803683370190505b509050818152600183018586518101602084015b81831015611823576003830192508251603f8160121c168501518253600182019150603f81600c1c168501518253600182019150603f8160061c168501518253600182019150603f81168501518253506001016117cb565b60038951066001811461183d576002811461184e5761185a565b613d3d60f01b60011983015261185a565b603d60f81b6000198301525b509398975050505050505050565b60006001600160e01b031982166380ac58cd60e01b148061189957506001600160e01b03198216635b5e139f60e01b145b8061047757506301ffc9a760e01b6001600160e01b0319831614610477565b826001600160a01b03166118cb82610cef565b6001600160a01b03161461192f5760405162461bcd60e51b815260206004820152602560248201527f4552433732313a207472616e736665722066726f6d20696e636f72726563742060448201526437bbb732b960d91b6064820152608401610577565b6001600160a01b0382166119915760405162461bcd60e51b8152602060048201526024808201527f4552433732313a207472616e7366657220746f20746865207a65726f206164646044820152637265737360e01b6064820152608401610577565b61199c838383611a80565b6119a76000826111a0565b6001600160a01b03831660009081526003602052604081208054600192906119d090849061278d565b90915550506001600160a01b03821660009081526003602052604081208054600192906119fe90849061280a565b909155505060008181526002602052604080822080546001600160a01b0319166001600160a01b0386811691821790925591518493918716916000805160206128c983398151915291a4505050565b611a578383611c36565b611a646000848484611b38565b6106a85760405162461bcd60e51b8152600401610577906127a4565b6001600160a01b038316611adb57611ad681600880546000838152600960205260408120829055600182018355919091527ff3f7a9fe364faab93b216da50a3214154f22a0a2b415b23a84c8169e8b636ee30155565b611afe565b816001600160a01b0316836001600160a01b031614611afe57611afe8382611d63565b6001600160a01b038216611b15576106a881611e00565b826001600160a01b0316826001600160a01b0316146106a8576106a88282611eaf565b60006001600160a01b0384163b15611c2b57604051630a85bd0160e11b81526001600160a01b0385169063150b7a0290611b7c903390899088908890600401612822565b6020604051808303816000875af1925050508015611bb7575060408051601f3d908101601f19168201909252611bb491810190612855565b60015b611c11573d808015611be5576040519150601f19603f3d011682016040523d82523d6000602084013e611bea565b606091505b508051611c095760405162461bcd60e51b8152600401610577906127a4565b805181602001fd5b6001600160e01b031916630a85bd0160e11b1490506115c9565b506001949350505050565b6001600160a01b038216611c8c5760405162461bcd60e51b815260206004820181905260248201527f4552433732313a206d696e7420746f20746865207a65726f20616464726573736044820152606401610577565b611c9581611183565b15611ce25760405162461bcd60e51b815260206004820152601c60248201527f4552433732313a20746f6b656e20616c7265616479206d696e746564000000006044820152606401610577565b611cee60008383611a80565b6001600160a01b0382166000908152600360205260408120805460019290611d1790849061280a565b909155505060008181526002602052604080822080546001600160a01b0319166001600160a01b03861690811790915590518392906000805160206128c9833981519152908290a45050565b60006001611d7084610df4565b611d7a919061278d565b600083815260076020526040902054909150808214611dcd576001600160a01b03841660009081526006602090815260408083208584528252808320548484528184208190558352600790915290208190555b5060009182526007602090815260408084208490556001600160a01b039094168352600681528383209183525290812055565b600854600090611e129060019061278d565b60008381526009602052604081205460088054939450909284908110611e3a57611e3a612499565b906000526020600020015490508060088381548110611e5b57611e5b612499565b6000918252602080832090910192909255828152600990915260408082208490558582528120556008805480611e9357611e93612872565b6001900381819060005260206000200160009055905550505050565b6000611eba83610df4565b6001600160a01b039093166000908152600660209081526040808320868452825280832085905593825260079052919091209190915550565b828054611eff90612343565b90600052602060002090601f016020900481019282611f215760008555611f67565b82601f10611f3a5782800160ff19823516178555611f67565b82800160010185558215611f67579182015b82811115611f67578235825591602001919060010190611f4c565b50611f73929150611f77565b5090565b5b80821115611f735760008155600101611f78565b6001600160e01b0319811681146106ea57600080fd5b600060208284031215611fb457600080fd5b8135611fbf81611f8c565b9392505050565b60005b83811015611fe1578181015183820152602001611fc9565b83811115610fc75750506000910152565b6000815180845261200a816020860160208601611fc6565b601f01601f19169290920160200192915050565b602081526000611fbf6020830184611ff2565b60006020828403121561204357600080fd5b5035919050565b80356001600160a01b038116811461206157600080fd5b919050565b6000806040838503121561207957600080fd5b6120828361204a565b946020939093013593505050565b8035801515811461206157600080fd5b6000602082840312156120b257600080fd5b611fbf82612090565b6000602082840312156120cd57600080fd5b611fbf8261204a565b6000806000606084860312156120eb57600080fd5b6120f48461204a565b92506121026020850161204a565b9150604084013590509250925092565b6000806040838503121561212557600080fd5b50508035926020909101359150565b600081518084526020808501945080840160005b8381101561216457815187529582019590820190600101612148565b509495945050505050565b602081526000611fbf6020830184612134565b6000806020838503121561219557600080fd5b823567ffffffffffffffff808211156121ad57600080fd5b818501915085601f8301126121c157600080fd5b8135818111156121d057600080fd5b8660208285010111156121e257600080fd5b60209290920196919550909350505050565b6000806040838503121561220757600080fd5b6122108361204a565b915061221e60208401612090565b90509250929050565b634e487b7160e01b600052604160045260246000fd5b6000806000806080858703121561225357600080fd5b61225c8561204a565b935061226a6020860161204a565b925060408501359150606085013567ffffffffffffffff8082111561228e57600080fd5b818701915087601f8301126122a257600080fd5b8135818111156122b4576122b4612227565b604051601f8201601f19908116603f011681019083821181831017156122dc576122dc612227565b816040528281528a60208487010111156122f557600080fd5b82602086016020830137600060208483010152809550505050505092959194509250565b6000806040838503121561232c57600080fd5b6123358361204a565b915061221e6020840161204a565b600181811c9082168061235757607f821691505b6020821081141561237857634e487b7160e01b600052602260045260246000fd5b50919050565b6020808252818101527f4f776e61626c653a2063616c6c6572206973206e6f7420746865206f776e6572604082015260600190565b634e487b7160e01b600052601160045260246000fd5b60008160001904831182151516156123e3576123e36123b3565b500290565b634e487b7160e01b600052601260045260246000fd5b60008261240d5761240d6123e8565b500490565b60208082526010908201526f14185d5cd8589b194e881c185d5cd95960821b604082015260600190565b60208082526022908201527f506f77657255703a204f6e6c792061646d696e732063616e2063616c6c207468604082015261697360f01b606082015260800190565b6000600019821415612492576124926123b3565b5060010190565b634e487b7160e01b600052603260045260246000fd5b6001600160a01b03831681526040602082018190526000906115c990830184612134565b60208082526031908201527f4552433732313a207472616e736665722063616c6c6572206973206e6f74206f6040820152701ddb995c881b9bdc88185c1c1c9bdd9959607a1b606082015260800190565b8054600090600181811c908083168061253e57607f831692505b602080841082141561256057634e487b7160e01b600052602260045260246000fd5b8180156125745760018114612585576125b2565b60ff198616895284890196506125b2565b60008881526020902060005b868110156125aa5781548b820152908501908301612591565b505084890196505b50505050505092915050565b600081516125d0818560208601611fc6565b9290920192915050565b60006125e68285612524565b83516125f6818360208801611fc6565b01949350505050565b600061260b8284612524565b636e6f6e6560e01b81526004019392505050565b607b60f81b815271226e616d65223a2022506f7765725570202360701b60018201528351600090612657816013850160208901611fc6565b6d080b48151a1948129bdad95c888b60921b6013918401918201527f226465736372697074696f6e223a20224561636820506f77657255702065617260218201527f6e7320796f75206d6f72652024574f524c442070657220506f7765725570206960418201526f1b881e5bdd5c881dd85b1b195d0b888b60821b6061820152691134b6b0b3b2911d101160b11b607182015284516126fd81607b840160208901611fc6565b61088b60f21b9101607b8101919091526a01132b234ba34b7b7111d160ad1b607d82015261273e61273160888301866125be565b607d60f81b815260010190565b9695505050505050565b7f646174613a6170706c69636174696f6e2f6a736f6e3b6261736536342c00000081526000825161278081601d850160208701611fc6565b91909101601d0192915050565b60008282101561279f5761279f6123b3565b500390565b60208082526032908201527f4552433732313a207472616e7366657220746f206e6f6e20455243373231526560408201527131b2b4bb32b91034b6b83632b6b2b73a32b960711b606082015260800190565b600082612805576128056123e8565b500690565b6000821982111561281d5761281d6123b3565b500190565b6001600160a01b038581168252841660208201526040810183905260806060820181905260009061273e90830184611ff2565b60006020828403121561286757600080fd5b8151611fbf81611f8c565b634e487b7160e01b600052603160045260246000fdfe4142434445464748494a4b4c4d4e4f505152535455565758595a6162636465666768696a6b6c6d6e6f707172737475767778797a303132333435363738392b2fddf252ad1be2c89b69c2b068fc378daa952ba7f163c4a11628f55a4df523b3efa264697066735822122044e3bb2661844720943043554425e99da3e0c08e6d6ddd58e245170814ac454664736f6c634300080b0033",
  "linkReferences": {},
  "deployedLinkReferences": {}
}