{
  "_format": "hh-sol-artifact-1",
  "contractName": "Game",
  "sourceName": "contracts/Game.sol",
  "abi": [
    {
      "anonymous": false,
      "inputs": [
        {
          "indexed": true,
          "internalType": "address",
          "name": "owner",
          "type": "address"
        },
        {
          "indexed": true,
          "internalType": "uint256",
          "name": "amount",
          "type": "uint256"
        }
      ],
      "name": "ExcaliburMinted",
      "type": "event"
    },
    {
      "anonymous": false,
      "inputs": [
        {
          "indexed": true,
          "internalType": "address",
          "name": "originalOwner",
          "type": "address"
        },
        {
          "indexed": true,
          "internalType": "address",
          "name": "newOwner",
          "type": "address"
        },
        {
          "indexed": true,
          "internalType": "uint256",
          "name": "tokenId",
          "type": "uint256"
        }
      ],
      "name": "HVStolen",
      "type": "event"
    },
    {
      "anonymous": false,
      "inputs": [
        {
          "indexed": true,
          "internalType": "address",
          "name": "owner",
          "type": "address"
        },
        {
          "indexed": true,
          "internalType": "uint256",
          "name": "tokenId",
          "type": "uint256"
        }
      ],
      "name": "HeroLeveledUp",
      "type": "event"
    },
    {
      "anonymous": false,
      "inputs": [
        {
          "indexed": true,
          "internalType": "address",
          "name": "owner",
          "type": "address"
        },
        {
          "indexed": true,
          "internalType": "uint256",
          "name": "amount",
          "type": "uint256"
        }
      ],
      "name": "ManyAmuletsMinted",
      "type": "event"
    },
    {
      "anonymous": false,
      "inputs": [
        {
          "indexed": true,
          "internalType": "address",
          "name": "owner",
          "type": "address"
        },
        {
          "indexed": false,
          "internalType": "uint16[]",
          "name": "tokenIds",
          "type": "uint16[]"
        }
      ],
      "name": "ManyHVMinted",
      "type": "event"
    },
    {
      "anonymous": false,
      "inputs": [
        {
          "indexed": true,
          "internalType": "address",
          "name": "owner",
          "type": "address"
        },
        {
          "indexed": false,
          "internalType": "uint16[]",
          "name": "tokenIds",
          "type": "uint16[]"
        }
      ],
      "name": "ManyHVRevealed",
      "type": "event"
    },
    {
      "anonymous": false,
      "inputs": [
        {
          "indexed": true,
          "internalType": "address",
          "name": "owner",
          "type": "address"
        },
        {
          "indexed": false,
          "internalType": "uint16[]",
          "name": "tokenIds",
          "type": "uint16[]"
        }
      ],
      "name": "ManyHerosLeveledUp",
      "type": "event"
    },
    {
      "anonymous": false,
      "inputs": [
        {
          "indexed": true,
          "internalType": "address",
          "name": "owner",
          "type": "address"
        },
        {
          "indexed": true,
          "internalType": "uint256",
          "name": "amount",
          "type": "uint256"
        }
      ],
      "name": "ManyRingsMinted",
      "type": "event"
    },
    {
      "anonymous": false,
      "inputs": [
        {
          "indexed": true,
          "internalType": "address",
          "name": "previousOwner",
          "type": "address"
        },
        {
          "indexed": true,
          "internalType": "address",
          "name": "newOwner",
          "type": "address"
        }
      ],
      "name": "OwnershipTransferred",
      "type": "event"
    },
    {
      "anonymous": false,
      "inputs": [
        {
          "indexed": false,
          "internalType": "address",
          "name": "account",
          "type": "address"
        }
      ],
      "name": "Paused",
      "type": "event"
    },
    {
      "anonymous": false,
      "inputs": [
        {
          "indexed": false,
          "internalType": "address",
          "name": "account",
          "type": "address"
        }
      ],
      "name": "Unpaused",
      "type": "event"
    },
    {
      "inputs": [],
      "name": "AMULET_LAST_MINT_TIME",
      "outputs": [
        {
          "internalType": "uint256",
          "name": "",
          "type": "uint256"
        }
      ],
      "stateMutability": "view",
      "type": "function"
    },
    {
      "inputs": [],
      "name": "AMULET_LEVEL_DOWN_INCREASE_DAYS",
      "outputs": [
        {
          "internalType": "uint256",
          "name": "",
          "type": "uint256"
        }
      ],
      "stateMutability": "view",
      "type": "function"
    },
    {
      "inputs": [],
      "name": "AMULET_MIN_WORLD_MINT_COST",
      "outputs": [
        {
          "internalType": "uint256",
          "name": "",
          "type": "uint256"
        }
      ],
      "stateMutability": "view",
      "type": "function"
    },
    {
      "inputs": [],
      "name": "AMULET_WORLD_MINT_COST",
      "outputs": [
        {
          "internalType": "uint256",
          "name": "",
          "type": "uint256"
        }
      ],
      "stateMutability": "view",
      "type": "function"
    },
    {
      "inputs": [],
      "name": "DAILY_WORLD_PER_LEVEL",
      "outputs": [
        {
          "internalType": "uint256",
          "name": "",
          "type": "uint256"
        }
      ],
      "stateMutability": "view",
      "type": "function"
    },
    {
      "inputs": [],
      "name": "DAILY_WORLD_RATE",
      "outputs": [
        {
          "internalType": "uint256",
          "name": "",
          "type": "uint256"
        }
      ],
      "stateMutability": "view",
      "type": "function"
    },
    {
      "inputs": [],
      "name": "EXCALIBUR_WORLD_MINT_COST",
      "outputs": [
        {
          "internalType": "uint256",
          "name": "",
          "type": "uint256"
        }
      ],
      "stateMutability": "view",
      "type": "function"
    },
    {
      "inputs": [],
      "name": "GEN0_PRICE",
      "outputs": [
        {
          "internalType": "uint256",
          "name": "",
          "type": "uint256"
        }
      ],
      "stateMutability": "view",
      "type": "function"
    },
    {
      "inputs": [],
      "name": "GEN1_LAST_MINT_TIME",
      "outputs": [
        {
          "internalType": "uint256",
          "name": "",
          "type": "uint256"
        }
      ],
      "stateMutability": "view",
      "type": "function"
    },
    {
      "inputs": [],
      "name": "GEN1_MIN_WORLD_MINT_COST",
      "outputs": [
        {
          "internalType": "uint256",
          "name": "",
          "type": "uint256"
        }
      ],
      "stateMutability": "view",
      "type": "function"
    },
    {
      "inputs": [],
      "name": "GEN1_WORLD_MINT_COST",
      "outputs": [
        {
          "internalType": "uint256",
          "name": "",
          "type": "uint256"
        }
      ],
      "stateMutability": "view",
      "type": "function"
    },
    {
      "inputs": [],
      "name": "LEVEL_DOWN_AFTER_DAYS",
      "outputs": [
        {
          "internalType": "uint256",
          "name": "",
          "type": "uint256"
        }
      ],
      "stateMutability": "view",
      "type": "function"
    },
    {
      "inputs": [],
      "name": "MINT_COST_INCREASE_PERCENT",
      "outputs": [
        {
          "internalType": "uint8",
          "name": "",
          "type": "uint8"
        }
      ],
      "stateMutability": "view",
      "type": "function"
    },
    {
      "inputs": [],
      "name": "MINT_COST_REDUCE_INTERVAL",
      "outputs": [
        {
          "internalType": "uint256",
          "name": "",
          "type": "uint256"
        }
      ],
      "stateMutability": "view",
      "type": "function"
    },
    {
      "inputs": [],
      "name": "MINT_COST_REDUCE_PERCENT",
      "outputs": [
        {
          "internalType": "uint8",
          "name": "",
          "type": "uint8"
        }
      ],
      "stateMutability": "view",
      "type": "function"
    },
    {
      "inputs": [],
      "name": "RING_DAILY_WORLD_RATE",
      "outputs": [
        {
          "internalType": "uint256",
          "name": "",
          "type": "uint256"
        }
      ],
      "stateMutability": "view",
      "type": "function"
    },
    {
      "inputs": [],
      "name": "RING_DIMINISHING_FROM",
      "outputs": [
        {
          "internalType": "uint256",
          "name": "",
          "type": "uint256"
        }
      ],
      "stateMutability": "view",
      "type": "function"
    },
    {
      "inputs": [],
      "name": "RING_LAST_MINT_TIME",
      "outputs": [
        {
          "internalType": "uint256",
          "name": "",
          "type": "uint256"
        }
      ],
      "stateMutability": "view",
      "type": "function"
    },
    {
      "inputs": [],
      "name": "RING_MIN_WORLD_MINT_COST",
      "outputs": [
        {
          "internalType": "uint256",
          "name": "",
          "type": "uint256"
        }
      ],
      "stateMutability": "view",
      "type": "function"
    },
    {
      "inputs": [],
      "name": "RING_WORLD_MINT_COST",
      "outputs": [
        {
          "internalType": "uint256",
          "name": "",
          "type": "uint256"
        }
      ],
      "stateMutability": "view",
      "type": "function"
    },
    {
      "inputs": [],
      "name": "WITHDRAW_ADDRESS",
      "outputs": [
        {
          "internalType": "address",
          "name": "",
          "type": "address"
        }
      ],
      "stateMutability": "view",
      "type": "function"
    },
    {
      "inputs": [
        {
          "internalType": "address",
          "name": "addr",
          "type": "address"
        }
      ],
      "name": "addAdmin",
      "outputs": [],
      "stateMutability": "nonpayable",
      "type": "function"
    },
    {
      "inputs": [
        {
          "internalType": "uint256[]",
          "name": "tokenIds",
          "type": "uint256[]"
        }
      ],
      "name": "calculateAllStakingRewards",
      "outputs": [
        {
          "internalType": "uint256",
          "name": "owed",
          "type": "uint256"
        }
      ],
      "stateMutability": "view",
      "type": "function"
    },
    {
      "inputs": [
        {
          "internalType": "uint256",
          "name": "tokenId",
          "type": "uint256"
        }
      ],
      "name": "calculateStakingRewards",
      "outputs": [
        {
          "internalType": "uint256",
          "name": "owed",
          "type": "uint256"
        }
      ],
      "stateMutability": "view",
      "type": "function"
    },
    {
      "inputs": [],
      "name": "getAmuletMintCost",
      "outputs": [
        {
          "internalType": "uint256",
          "name": "newCost",
          "type": "uint256"
        }
      ],
      "stateMutability": "view",
      "type": "function"
    },
    {
      "inputs": [
        {
          "internalType": "address",
          "name": "owner",
          "type": "address"
        }
      ],
      "name": "getBalanceOfActiveAmulets",
      "outputs": [
        {
          "internalType": "uint256",
          "name": "",
          "type": "uint256"
        }
      ],
      "stateMutability": "view",
      "type": "function"
    },
    {
      "inputs": [
        {
          "internalType": "address",
          "name": "owner",
          "type": "address"
        }
      ],
      "name": "getBalanceOfActiveRings",
      "outputs": [
        {
          "internalType": "uint256",
          "name": "",
          "type": "uint256"
        }
      ],
      "stateMutability": "view",
      "type": "function"
    },
    {
      "inputs": [],
      "name": "getGen1MintCost",
      "outputs": [
        {
          "internalType": "uint256",
          "name": "newCost",
          "type": "uint256"
        }
      ],
      "stateMutability": "view",
      "type": "function"
    },
    {
      "inputs": [
        {
          "internalType": "uint256",
          "name": "tokenId",
          "type": "uint256"
        }
      ],
      "name": "getHVTokenTraits",
      "outputs": [
        {
          "components": [
            {
              "internalType": "bool",
              "name": "isRevealed",
              "type": "bool"
            },
            {
              "internalType": "bool",
              "name": "isHero",
              "type": "bool"
            },
            {
              "internalType": "bool",
              "name": "isGen0",
              "type": "bool"
            },
            {
              "internalType": "uint16",
              "name": "level",
              "type": "uint16"
            },
            {
              "internalType": "uint256",
              "name": "lastLevelUpgradeTime",
              "type": "uint256"
            },
            {
              "internalType": "uint8",
              "name": "rank",
              "type": "uint8"
            },
            {
              "internalType": "uint256",
              "name": "lastRankUpgradeTime",
              "type": "uint256"
            },
            {
              "internalType": "uint64",
              "name": "mintedBlockNumber",
              "type": "uint64"
            }
          ],
          "internalType": "struct INFT.HeroVillain",
          "name": "",
          "type": "tuple"
        }
      ],
      "stateMutability": "view",
      "type": "function"
    },
    {
      "inputs": [
        {
          "internalType": "uint16",
          "name": "currentLevel",
          "type": "uint16"
        },
        {
          "internalType": "uint16",
          "name": "levelsToUpgrade",
          "type": "uint16"
        }
      ],
      "name": "getLevelUpWorldCost",
      "outputs": [
        {
          "internalType": "uint256",
          "name": "totalWorldCost",
          "type": "uint256"
        }
      ],
      "stateMutability": "view",
      "type": "function"
    },
    {
      "inputs": [
        {
          "internalType": "uint256",
          "name": "tokenId",
          "type": "uint256"
        }
      ],
      "name": "getOwnerOfHVToken",
      "outputs": [
        {
          "internalType": "address",
          "name": "ownerOf",
          "type": "address"
        }
      ],
      "stateMutability": "view",
      "type": "function"
    },
    {
      "inputs": [],
      "name": "getRingMintCost",
      "outputs": [
        {
          "internalType": "uint256",
          "name": "newCost",
          "type": "uint256"
        }
      ],
      "stateMutability": "view",
      "type": "function"
    },
    {
      "inputs": [
        {
          "internalType": "uint16[]",
          "name": "tokenIds",
          "type": "uint16[]"
        },
        {
          "internalType": "uint16",
          "name": "levelsToUpgrade",
          "type": "uint16"
        }
      ],
      "name": "levelUpManyHeros",
      "outputs": [],
      "stateMutability": "nonpayable",
      "type": "function"
    },
    {
      "inputs": [
        {
          "internalType": "uint256",
          "name": "amount",
          "type": "uint256"
        }
      ],
      "name": "mintAmulet",
      "outputs": [],
      "stateMutability": "nonpayable",
      "type": "function"
    },
    {
      "inputs": [
        {
          "internalType": "uint256",
          "name": "amount",
          "type": "uint256"
        }
      ],
      "name": "mintExcalibur",
      "outputs": [],
      "stateMutability": "nonpayable",
      "type": "function"
    },
    {
      "inputs": [
        {
          "internalType": "uint256",
          "name": "_amount",
          "type": "uint256"
        }
      ],
      "name": "mintGen0",
      "outputs": [],
      "stateMutability": "payable",
      "type": "function"
    },
    {
      "inputs": [
        {
          "internalType": "uint256",
          "name": "amount",
          "type": "uint256"
        }
      ],
      "name": "mintGen1",
      "outputs": [],
      "stateMutability": "nonpayable",
      "type": "function"
    },
    {
      "inputs": [
        {
          "internalType": "uint256",
          "name": "amount",
          "type": "uint256"
        }
      ],
      "name": "mintRing",
      "outputs": [],
      "stateMutability": "nonpayable",
      "type": "function"
    },
    {
      "inputs": [],
      "name": "owner",
      "outputs": [
        {
          "internalType": "address",
          "name": "",
          "type": "address"
        }
      ],
      "stateMutability": "view",
      "type": "function"
    },
    {
      "inputs": [],
      "name": "paused",
      "outputs": [
        {
          "internalType": "bool",
          "name": "",
          "type": "bool"
        }
      ],
      "stateMutability": "view",
      "type": "function"
    },
    {
      "inputs": [
        {
          "internalType": "address",
          "name": "addr",
          "type": "address"
        }
      ],
      "name": "removeAdmin",
      "outputs": [],
      "stateMutability": "nonpayable",
      "type": "function"
    },
    {
      "inputs": [],
      "name": "renounceOwnership",
      "outputs": [],
      "stateMutability": "nonpayable",
      "type": "function"
    },
    {
      "inputs": [
        {
          "internalType": "uint16[]",
          "name": "tokenIds",
          "type": "uint16[]"
        },
        {
          "internalType": "uint256[]",
          "name": "seeds",
          "type": "uint256[]"
        }
      ],
      "name": "revealManyHVTokenTraits",
      "outputs": [],
      "stateMutability": "nonpayable",
      "type": "function"
    },
    {
      "inputs": [
        {
          "internalType": "uint256",
          "name": "number",
          "type": "uint256"
        }
      ],
      "name": "setAmuletLevelDownIncreaseDays",
      "outputs": [],
      "stateMutability": "nonpayable",
      "type": "function"
    },
    {
      "inputs": [
        {
          "internalType": "uint256",
          "name": "number",
          "type": "uint256"
        }
      ],
      "name": "setAmuletMinWorldMintCost",
      "outputs": [],
      "stateMutability": "nonpayable",
      "type": "function"
    },
    {
      "inputs": [
        {
          "internalType": "uint256",
          "name": "number",
          "type": "uint256"
        }
      ],
      "name": "setAmuletWorldMintCost",
      "outputs": [],
      "stateMutability": "nonpayable",
      "type": "function"
    },
    {
      "inputs": [
        {
          "internalType": "address",
          "name": "_uWorld",
          "type": "address"
        },
        {
          "internalType": "address",
          "name": "_uNFT",
          "type": "address"
        },
        {
          "internalType": "address",
          "name": "_uArena",
          "type": "address"
        },
        {
          "internalType": "address",
          "name": "_uRing",
          "type": "address"
        },
        {
          "internalType": "address",
          "name": "_uAmulet",
          "type": "address"
        },
        {
          "internalType": "address",
          "name": "_uExcalibur",
          "type": "address"
        }
      ],
      "name": "setContracts",
      "outputs": [],
      "stateMutability": "nonpayable",
      "type": "function"
    },
    {
      "inputs": [
        {
          "internalType": "uint256",
          "name": "number",
          "type": "uint256"
        }
      ],
      "name": "setDailyWorldPerLevel",
      "outputs": [],
      "stateMutability": "nonpayable",
      "type": "function"
    },
    {
      "inputs": [
        {
          "internalType": "uint256",
          "name": "number",
          "type": "uint256"
        }
      ],
      "name": "setDailyWorldRate",
      "outputs": [],
      "stateMutability": "nonpayable",
      "type": "function"
    },
    {
      "inputs": [
        {
          "internalType": "uint256",
          "name": "number",
          "type": "uint256"
        }
      ],
      "name": "setGen1MinWorldMintCost",
      "outputs": [],
      "stateMutability": "nonpayable",
      "type": "function"
    },
    {
      "inputs": [
        {
          "internalType": "uint256",
          "name": "number",
          "type": "uint256"
        }
      ],
      "name": "setGen1WorldMintCost",
      "outputs": [],
      "stateMutability": "nonpayable",
      "type": "function"
    },
    {
      "inputs": [
        {
          "internalType": "uint256",
          "name": "number",
          "type": "uint256"
        }
      ],
      "name": "setLevelDownAfterDays",
      "outputs": [],
      "stateMutability": "nonpayable",
      "type": "function"
    },
    {
      "inputs": [
        {
          "internalType": "uint8",
          "name": "number",
          "type": "uint8"
        }
      ],
      "name": "setMintCostIncreasePercent",
      "outputs": [],
      "stateMutability": "nonpayable",
      "type": "function"
    },
    {
      "inputs": [
        {
          "internalType": "uint256",
          "name": "number",
          "type": "uint256"
        }
      ],
      "name": "setMintCostReduceInterval",
      "outputs": [],
      "stateMutability": "nonpayable",
      "type": "function"
    },
    {
      "inputs": [
        {
          "internalType": "uint8",
          "name": "number",
          "type": "uint8"
        }
      ],
      "name": "setMintCostReducePercent",
      "outputs": [],
      "stateMutability": "nonpayable",
      "type": "function"
    },
    {
      "inputs": [
        {
          "internalType": "uint256",
          "name": "number",
          "type": "uint256"
        }
      ],
      "name": "setRingDailyWorldRate",
      "outputs": [],
      "stateMutability": "nonpayable",
      "type": "function"
    },
    {
      "inputs": [
        {
          "internalType": "uint256",
          "name": "number",
          "type": "uint256"
        }
      ],
      "name": "setRingDiminishingFrom",
      "outputs": [],
      "stateMutability": "nonpayable",
      "type": "function"
    },
    {
      "inputs": [
        {
          "internalType": "uint256",
          "name": "number",
          "type": "uint256"
        }
      ],
      "name": "setRingMinWorldMintCost",
      "outputs": [],
      "stateMutability": "nonpayable",
      "type": "function"
    },
    {
      "inputs": [
        {
          "internalType": "uint256",
          "name": "number",
          "type": "uint256"
        }
      ],
      "name": "setRingWorldMintCost",
      "outputs": [],
      "stateMutability": "nonpayable",
      "type": "function"
    },
    {
      "inputs": [
        {
          "internalType": "address",
          "name": "addr",
          "type": "address"
        }
      ],
      "name": "setWithdrawAddress",
      "outputs": [],
      "stateMutability": "nonpayable",
      "type": "function"
    },
    {
      "inputs": [
        {
          "internalType": "address",
          "name": "newOwner",
          "type": "address"
        }
      ],
      "name": "transferOwnership",
      "outputs": [],
      "stateMutability": "nonpayable",
      "type": "function"
    },
    {
      "inputs": [],
      "name": "uArena",
      "outputs": [
        {
          "internalType": "contract IArena",
          "name": "",
          "type": "address"
        }
      ],
      "stateMutability": "view",
      "type": "function"
    },
    {
      "inputs": [],
      "name": "uExcalibur",
      "outputs": [
        {
          "internalType": "contract IExcalibur",
          "name": "",
          "type": "address"
        }
      ],
      "stateMutability": "view",
      "type": "function"
    },
    {
      "inputs": [],
      "name": "uNFT",
      "outputs": [
        {
          "internalType": "contract INFT",
          "name": "",
          "type": "address"
        }
      ],
      "stateMutability": "view",
      "type": "function"
    },
    {
      "inputs": [],
      "name": "uPotion",
      "outputs": [
        {
          "internalType": "contract IPotion",
          "name": "",
          "type": "address"
        }
      ],
      "stateMutability": "view",
      "type": "function"
    },
    {
      "inputs": [],
      "name": "uPowerUp",
      "outputs": [
        {
          "internalType": "contract IPowerUp",
          "name": "",
          "type": "address"
        }
      ],
      "stateMutability": "view",
      "type": "function"
    },
    {
      "inputs": [],
      "name": "uWorld",
      "outputs": [
        {
          "internalType": "contract World",
          "name": "",
          "type": "address"
        }
      ],
      "stateMutability": "view",
      "type": "function"
    },
    {
      "inputs": [],
      "name": "withdraw",
      "outputs": [],
      "stateMutability": "nonpayable",
      "type": "function"
    }
  ],
  "bytecode": "0x60806040526703782dace9d90000600855612a30600955600a805461020161ffff19909116179055690878678326eac9000000600b818155600c9190915542600d819055681b1ae4d6e2ef500000600e55683635c9adc5dea00000600f556010919091556801158e460913d00000601155690a968163f0a57b40000060125569010f0cf064dd592000006013556014819055620697806015556921e19e0c9bab240000006016556202a30060175569152d02c7e14af68000006018556019556a01a784379d99db42000000601a55601b80546001600160a01b0319167395c0971b1eb62cd492b201207c2f6e6192bb9e6d1790553480156200010057600080fd5b506200010c3362000120565b600180556002805460ff1916905562000170565b600080546001600160a01b038381166001600160a01b0319831681178455604051919092169283917f8be0079c531659141344cd1fd0a4f28419497f9722a3daafe3b4186f6b6457e09190a35050565b614ea380620001806000396000f3fe60806040526004361061036f5760003560e01c8063715018a6116101c8578063bdce8797116100f8578063d433233a1161009b578063d433233a14610a27578063d665c8c614610a47578063d6e04f1014610a67578063e625866a14610a87578063f2787f8614610a9d578063f2fde38b14610abd578063f4630da714610add578063f9318b4514610afd578063fc7c54de14610b1d57600080fd5b8063bdce879714610950578063c0d8478d14610966578063c38eb6691461097c578063c4bd61141461099c578063c6915650146109bc578063c7cd2b04146109d2578063ce9efb02146109e8578063d332c57014610a0757600080fd5b8063930663511161016b578063930663511461084757806393c2c3831461086c578063a41a74581461088c578063a6d365b7146108b9578063b3512eb2146108d9578063b4de61dd146108ee578063b85fd1c01461090e578063bbf97ab314610924578063bc3cef251461093a57600080fd5b8063715018a61461075b5780637a0d6556146107705780637f75077a14610786578063809deb63146107b257806382243b06146107d257806389a21120146107f25780638d468279146108125780638da5cb5b1461083257600080fd5b80633ccfd60b116102a3578063549c8ea411610246578063549c8ea41461065657806354f727bc14610676578063554052f4146106965780635c975abb146106b65780635d7da486146106d95780636508597e146106f9578063696d77d31461070f5780636abce8a514610725578063704802751461073b57600080fd5b80633ccfd60b14610581578063434ebc6a1461059657806347d15a60146105b65780634a41eb4f146105d65780634b33b36e146105f65780634bbc06591461060c5780634c7581051461062157806352b8bedf1461063657600080fd5b806323c67f421161031657806323c67f42146104785780632463a55a146104985780632ad8a20b146104b85780632eaf2d86146104d857806332bef484146104f857806335bc07c21461050b578063364bd6ea1461052b5780633ab1a4941461054b5780633b7f81131461056b57600080fd5b806301f47d8814610374578063041c6ed11461039d578063074965db146103b35780630e5a7486146103d55780630ee2bb31146103eb578063122e04a81461040b5780631785f53c146104385780631b98413814610458575b600080fd5b34801561038057600080fd5b5061038a60095481565b6040519081526020015b60405180910390f35b3480156103a957600080fd5b5061038a60085481565b3480156103bf57600080fd5b506103d36103ce366004614524565b610b33565b005b3480156103e157600080fd5b5061038a600b5481565b3480156103f757600080fd5b5061038a610406366004614524565b610b70565b34801561041757600080fd5b50601b5461042b906001600160a01b031681565b604051610394919061453d565b34801561044457600080fd5b506103d3610453366004614566565b610b81565b34801561046457600080fd5b506103d3610473366004614524565b610bd1565b34801561048457600080fd5b506103d3610493366004614524565b610c05565b3480156104a457600080fd5b506103d36104b3366004614583565b611290565b3480156104c457600080fd5b506103d36104d3366004614524565b61133e565b3480156104e457600080fd5b506103d36104f3366004614524565b611372565b6103d3610506366004614524565b6113a6565b34801561051757600080fd5b5061038a6105263660046146d9565b61161f565b34801561053757600080fd5b506103d3610546366004614524565b611672565b34801561055757600080fd5b506103d3610566366004614566565b61182d565b34801561057757600080fd5b5061038a601a5481565b34801561058d57600080fd5b506103d361191e565b3480156105a257600080fd5b506103d36105b1366004614524565b6119ef565b3480156105c257600080fd5b506103d36105d1366004614524565b611c2c565b3480156105e257600080fd5b506103d36105f1366004614789565b611c60565b34801561060257600080fd5b5061038a60175481565b34801561061857600080fd5b5061038a611dc8565b34801561062d57600080fd5b5061038a611e53565b34801561064257600080fd5b5060035461042b906001600160a01b031681565b34801561066257600080fd5b506103d3610671366004614524565b611edd565b34801561068257600080fd5b5061038a610691366004614566565b611f11565b3480156106a257600080fd5b506103d36106b1366004614524565b6120c2565b3480156106c257600080fd5b5060025460ff166040519015158152602001610394565b3480156106e557600080fd5b506103d36106f43660046147e9565b6120f6565b34801561070557600080fd5b5061038a600e5481565b34801561071b57600080fd5b5061038a600c5481565b34801561073157600080fd5b5061038a60185481565b34801561074757600080fd5b506103d3610756366004614566565b61213b565b34801561076757600080fd5b506103d361218e565b34801561077c57600080fd5b5061038a60125481565b34801561079257600080fd5b50600a546107a09060ff1681565b60405160ff9091168152602001610394565b3480156107be57600080fd5b5060045461042b906001600160a01b031681565b3480156107de57600080fd5b506103d36107ed366004614524565b6121c9565b3480156107fe57600080fd5b506103d361080d366004614524565b6121fd565b34801561081e57600080fd5b5061038a61082d366004614566565b612231565b34801561083e57600080fd5b5061042b6123da565b34801561085357600080fd5b5060025461042b9061010090046001600160a01b031681565b34801561087857600080fd5b506103d3610887366004614524565b6123e9565b34801561089857600080fd5b506108ac6108a7366004614524565b61241d565b6040516103949190614806565b3480156108c557600080fd5b5061038a6108d4366004614885565b61242e565b3480156108e557600080fd5b5061038a61252f565b3480156108fa57600080fd5b506103d3610909366004614524565b6125b9565b34801561091a57600080fd5b5061038a60145481565b34801561093057600080fd5b5061038a60115481565b34801561094657600080fd5b5061038a60195481565b34801561095c57600080fd5b5061038a60135481565b34801561097257600080fd5b5061038a60105481565b34801561098857600080fd5b5060065461042b906001600160a01b031681565b3480156109a857600080fd5b506103d36109b7366004614524565b6125ed565b3480156109c857600080fd5b5061038a60165481565b3480156109de57600080fd5b5061038a600f5481565b3480156109f457600080fd5b50600a546107a090610100900460ff1681565b348015610a1357600080fd5b506103d3610a223660046148b3565b6127a8565b348015610a3357600080fd5b506103d3610a42366004614524565b612a67565b348015610a5357600080fd5b506103d3610a62366004614524565b612a9b565b348015610a7357600080fd5b5060075461042b906001600160a01b031681565b348015610a9357600080fd5b5061038a600d5481565b348015610aa957600080fd5b506103d3610ab83660046147e9565b612acf565b348015610ac957600080fd5b506103d3610ad8366004614566565b612b1a565b348015610ae957600080fd5b5061042b610af8366004614524565b612bba565b348015610b0957600080fd5b5060055461042b906001600160a01b031681565b348015610b2957600080fd5b5061038a60155481565b33610b3c6123da565b6001600160a01b031614610b6b5760405162461bcd60e51b8152600401610b6290614916565b60405180910390fd5b601355565b6000610b7b82612bc5565b92915050565b33610b8a6123da565b6001600160a01b031614610bb05760405162461bcd60e51b8152600401610b6290614916565b6001600160a01b03166000908152601c60205260409020805460ff19169055565b33610bda6123da565b6001600160a01b031614610c005760405162461bcd60e51b8152600401610b6290614916565b601755565b60025460ff1615610c285760405162461bcd60e51b8152600401610b629061494b565b60026001541415610c4b5760405162461bcd60e51b8152600401610b6290614975565b6002600155323314610c6f5760405162461bcd60e51b8152600401610b62906149ac565b600480546040805163ad789acb60e01b815290516001600160a01b039092169263ad789acb92828201926020929082900301816000875af1158015610cb8573d6000803e3d6000fd5b505050506040513d601f19601f82011682018060405250810190610cdc91906149ce565b6004805460408051636de9f32b60e01b815290516001600160a01b0390921692636de9f32b92828201926020929082900301816000875af1158015610d25573d6000803e3d6000fd5b505050506040513d601f19601f82011682018060405250810190610d4991906149e7565b61ffff161015610d9b5760405162461bcd60e51b815260206004820152601d60248201527f47454e312073616c6520686173206e6f742073746172746564207965740000006044820152606401610b62565b6000600460009054906101000a90046001600160a01b03166001600160a01b0316636de9f32b6040518163ffffffff1660e01b81526004016020604051808303816000875af1158015610df2573d6000803e3d6000fd5b505050506040513d601f19601f82011682018060405250810190610e1691906149e7565b90506000600460009054906101000a90046001600160a01b03166001600160a01b031663f47c84c56040518163ffffffff1660e01b81526004016020604051808303816000875af1158015610e6f573d6000803e3d6000fd5b505050506040513d601f19601f82011682018060405250810190610e9391906149ce565b905080610ea48461ffff8516614a1a565b1115610ee65760405162461bcd60e51b8152602060048201526011602482015270105b1b081d1bdad95b9cc81b5a5b9d1959607a1b6044820152606401610b62565b600083118015610ef75750600a8311155b610f135760405162461bcd60e51b8152600401610b6290614a32565b600083610f1e611dc8565b610f289190614a69565b905060008111610f7a5760405162461bcd60e51b815260206004820152601a60248201527f47454e31206d696e7420636f73742063616e6e6f7420626520300000000000006044820152606401610b62565b6003546001600160a01b0316639dc29fac33836040518363ffffffff1660e01b8152600401610faa929190614a88565b600060405180830381600087803b158015610fc457600080fd5b505af1158015610fd8573d6000803e3d6000fd5b505050506000846001600160401b03811115610ff657610ff6614605565b60405190808252806020026020018201604052801561101f578160200160208202803683370190505b50905060008060005b8781101561123d578661103a81614aa1565b604080514260208201526bffffffffffffffffffffffff193360601b16918101919091526001600160f01b031960f083901b16605482015290985060560190506040516020818303038152906040528051906020012060001c915061109e8261310c565b9250868482815181106110b3576110b3614ac3565b61ffff92909216602092830291909101909101526001600160a01b038316331461118b5760048054604051632097d3fb60e01b81526001600160a01b0390911691632097d3fb9161110991879160009101614ad9565b600060405180830381600087803b15801561112357600080fd5b505af1158015611137573d6000803e3d6000fd5b505050508661ffff16836001600160a01b03166111513390565b6001600160a01b03167f9655a7b5c293845266c75f60a1ef7254fa56be1d80af9cab0123d39f16c542b960405160405180910390a46111f0565b60048054604051632097d3fb60e01b81526001600160a01b0390911691632097d3fb916111bd91879160009101614ad9565b600060405180830381600087803b1580156111d757600080fd5b505af11580156111eb573d6000803e3d6000fd5b505050505b600a54600b5460649161120c9161010090910460ff1690614a69565b6112169190614b0a565b61121e611dc8565b6112289190614a1a565b600b558061123581614b1e565b915050611028565b5042600d55336001600160a01b03167f0e70455f3ee653c35a087c15f3c813d2f058b5638eae49dda8054ec6825b60fa8460405161127b9190614b78565b60405180910390a25050600180555050505050565b336112996123da565b6001600160a01b0316146112bf5760405162461bcd60e51b8152600401610b6290614916565b600380546001600160a01b039788166001600160a01b03199182161790915560048054968816968216969096179095556002805494871661010002610100600160a81b03199095169490941790935560058054928616928516929092179091556006805491851691841691909117905560078054919093169116179055565b336113476123da565b6001600160a01b03161461136d5760405162461bcd60e51b8152600401610b6290614916565b600f55565b3361137b6123da565b6001600160a01b0316146113a15760405162461bcd60e51b8152600401610b6290614916565b601855565b6000600460009054906101000a90046001600160a01b03166001600160a01b0316636de9f32b6040518163ffffffff1660e01b81526004016020604051808303816000875af11580156113fd573d6000803e3d6000fd5b505050506040513d601f19601f8201168201806040525081019061142191906149e7565b90506000600460009054906101000a90046001600160a01b03166001600160a01b031663ad789acb6040518163ffffffff1660e01b81526004016020604051808303816000875af115801561147a573d6000803e3d6000fd5b505050506040513d601f19601f8201168201806040525081019061149e91906149ce565b9050806114af8461ffff8516614a1a565b11156114f65760405162461bcd60e51b8152602060048201526016602482015275105b1b0819d95b8c081d1bdad95b9cc81b5a5b9d195960521b6044820152606401610b62565b6000831180156115075750600a8311155b6115235760405162461bcd60e51b8152600401610b6290614a32565b6008546115309084614a69565b34146115745760405162461bcd60e51b8152602060048201526013602482015272155b9cdd59999a58da595b9d08185b5bdd5b9d606a1b6044820152606401610b62565b60005b838110156115f65760048054604051632097d3fb60e01b81526001600160a01b0390911691632097d3fb916115b191339160019101614ad9565b600060405180830381600087803b1580156115cb57600080fd5b505af11580156115df573d6000803e3d6000fd5b5050505080806115ee90614b1e565b915050611577565b506103e86116088461ffff8516614a1a565b1061161a576703bf3b91c95b00006008555b505050565b6000805b825181101561166c5761164e83828151811061164157611641614ac3565b6020026020010151612bc5565b6116589083614a1a565b91508061166481614b1e565b915050611623565b50919050565b60025460ff16156116955760405162461bcd60e51b8152600401610b629061494b565b600260015414156116b85760405162461bcd60e51b8152600401610b6290614975565b60026001553233146116dc5760405162461bcd60e51b8152600401610b62906149ac565b60006116e661252f565b6116f09083614a69565b600354604051632770a7eb60e21b81529192506001600160a01b031690639dc29fac906117239033908590600401614a88565b600060405180830381600087803b15801561173d57600080fd5b505af1158015611751573d6000803e3d6000fd5b50506005546040516340c10f1960e01b81526001600160a01b0390911692506340c10f1991506117879033908690600401614a88565b600060405180830381600087803b1580156117a157600080fd5b505af11580156117b5573d6000803e3d6000fd5b5050600a54601254606493506117d5925061010090910460ff1690614a69565b6117df9190614b0a565b6117e761252f565b6117f19190614a1a565b60125542601455604051829033907fa134ec5fd336ad87d4ab9ff444a3046332699c7c78fd9f13e7f9f9de5d78d68790600090a3505060018055565b336118366123da565b6001600160a01b03161461185c5760405162461bcd60e51b8152600401610b6290614916565b601b546001600160a01b0316156118aa5760405162461bcd60e51b815260206004820152601260248201527115d85b1b195d08185b1c9958591e481cd95d60721b6044820152606401610b62565b6001600160a01b0381166118fc5760405162461bcd60e51b815260206004820152601960248201527843616e6e6f742062652073657420746f20746865207a65726f60381b6044820152606401610b62565b601b80546001600160a01b0319166001600160a01b0392909216919091179055565b336119276123da565b6001600160a01b03161461194d5760405162461bcd60e51b8152600401610b6290614916565b601b5460405147916000916001600160a01b039091169083908381818185875af1925050503d806000811461199e576040519150601f19603f3d011682016040523d82523d6000602084013e6119a3565b606091505b50509050806119eb5760405162461bcd60e51b81526020600482015260146024820152734661696c656420746f2073656e642066756e647360601b6044820152606401610b62565b5050565b60025460ff1615611a125760405162461bcd60e51b8152600401610b629061494b565b60026001541415611a355760405162461bcd60e51b8152600401610b6290614975565b6002600155323314611a595760405162461bcd60e51b8152600401610b62906149ac565b601a546003546001600160a01b03166370a08231336040518263ffffffff1660e01b8152600401611a8a919061453d565b602060405180830381865afa158015611aa7573d6000803e3d6000fd5b505050506040513d601f19601f82011682018060405250810190611acb91906149ce565b1015611b0e5760405162461bcd60e51b81526020600482015260126024820152714e6f7420656e6f7567682024776f726c647360701b6044820152606401610b62565b600081601a54611b1e9190614a69565b600354604051632770a7eb60e21b81529192506001600160a01b031690639dc29fac90611b519033908590600401614a88565b600060405180830381600087803b158015611b6b57600080fd5b505af1158015611b7f573d6000803e3d6000fd5b50506007546040516340c10f1960e01b81526001600160a01b0390911692506340c10f199150611bb59033908690600401614a88565b600060405180830381600087803b158015611bcf57600080fd5b505af1158015611be3573d6000803e3d6000fd5b5050505081611bef3390565b6001600160a01b03167fe6e1b161b6960855de01e453edebd9ed97fe7079180ecf4f0c096f92682ea11a60405160405180910390a3505060018055565b33611c356123da565b6001600160a01b031614611c5b5760405162461bcd60e51b8152600401610b6290614916565b601055565b60025460ff1615611c835760405162461bcd60e51b8152600401610b629061494b565b60026001541415611ca65760405162461bcd60e51b8152600401610b6290614975565b6002600155323314611cca5760405162461bcd60e51b8152600401610b62906149ac565b60005b82518161ffff161015611d1757611d05838261ffff1681518110611cf357611cf3614ac3565b602002602001015161ffff16836131b0565b80611d0f81614aa1565b915050611ccd565b50600480546040516335ca838b60e01b81526001600160a01b03909116916335ca838b91611d4791869101614b78565b600060405180830381600087803b158015611d6157600080fd5b505af1158015611d75573d6000803e3d6000fd5b50505050611d803390565b6001600160a01b03167fe532f731359dfc79906e2099e310e25719eac7056220ab3e26b9b7e279bd8f6f83604051611db89190614b78565b60405180910390a2505060018055565b600080600954600d5442611ddc9190614b8b565b611de69190614b0a565b600a54600b549192506000918391606491611e049160ff1690614a69565b611e0e9190614b0a565b611e189190614a69565b905080600b541115611e395780600b54611e329190614b8b565b9250611e3e565b600092505b600c54831015611e4e57600c5492505b505090565b60008060095460195442611e679190614b8b565b611e719190614b0a565b600a546016549192506000918391606491611e8f9160ff1690614a69565b611e999190614b0a565b611ea39190614a69565b9050806016541115611ec45780601654611ebd9190614b8b565b9250611ec9565b600092505b601854831015611e4e576018549250505090565b33611ee66123da565b6001600160a01b031614611f0c5760405162461bcd60e51b8152600401610b6290614916565b601555565b6006546040516370a0823160e01b815260009182916001600160a01b03909116906370a0823190611f4690869060040161453d565b602060405180830381865afa158015611f63573d6000803e3d6000fd5b505050506040513d601f19601f82011682018060405250810190611f8791906149ce565b90506000805b828110156120ba57600654604051632f745c5960e01b81526000916001600160a01b031690632f745c5990611fc89089908690600401614a88565b602060405180830381865afa158015611fe5573d6000803e3d6000fd5b505050506040513d601f19601f8201168201806040525081019061200991906149ce565b6006546040516394e5684760e01b8152600481018390529192506000916001600160a01b03909116906394e5684790602401606060405180830381865afa158015612058573d6000803e3d6000fd5b505050506040513d601f19601f8201168201806040525081019061207c9190614bfd565b90508060400151620151806120919190614a1a565b42106120a557836120a181614b1e565b9450505b505080806120b290614b1e565b915050611f8d565b509392505050565b336120cb6123da565b6001600160a01b0316146120f15760405162461bcd60e51b8152600401610b6290614916565b600c55565b336120ff6123da565b6001600160a01b0316146121255760405162461bcd60e51b8152600401610b6290614916565b600a805460ff191660ff92909216919091179055565b336121446123da565b6001600160a01b03161461216a5760405162461bcd60e51b8152600401610b6290614916565b6001600160a01b03166000908152601c60205260409020805460ff19166001179055565b336121976123da565b6001600160a01b0316146121bd5760405162461bcd60e51b8152600401610b6290614916565b6121c7600061354c565b565b336121d26123da565b6001600160a01b0316146121f85760405162461bcd60e51b8152600401610b6290614916565b601155565b336122066123da565b6001600160a01b03161461222c5760405162461bcd60e51b8152600401610b6290614916565b600e55565b6005546040516370a0823160e01b815260009182916001600160a01b03909116906370a082319061226690869060040161453d565b602060405180830381865afa158015612283573d6000803e3d6000fd5b505050506040513d601f19601f820116820180604052508101906122a791906149ce565b90506000805b828110156120ba57600554604051632f745c5960e01b81526000916001600160a01b031690632f745c59906122e89089908690600401614a88565b602060405180830381865afa158015612305573d6000803e3d6000fd5b505050506040513d601f19601f8201168201806040525081019061232991906149ce565b6005546040516394e5684760e01b8152600481018390529192506000916001600160a01b03909116906394e5684790602401606060405180830381865afa158015612378573d6000803e3d6000fd5b505050506040513d601f19601f8201168201806040525081019061239c9190614bfd565b90508060400151620151806123b19190614a1a565b42106123c557836123c181614b1e565b9450505b505080806123d290614b1e565b9150506122ad565b6000546001600160a01b031690565b336123f26123da565b6001600160a01b0316146124185760405162461bcd60e51b8152600401610b6290614916565b600955565b6124256144e0565b610b7b8261359c565b600032331461244f5760405162461bcd60e51b8152600401610b62906149ac565b60018261ffff16101561249f5760405162461bcd60e51b815260206004820152601860248201527724b73b30b634b2103632bb32b639aa37aab833b930b2329760411b6044820152606401610b62565b50600060015b8261ffff168161ffff16116124e4576124c66124c18286614c19565b6136cc565b6124d09083614a1a565b9150806124dc81614aa1565b9150506124a5565b5060008111610b7b5760405162461bcd60e51b815260206004820152601760248201527622b93937b91031b0b631bab630ba34b7339031b7b9ba1760491b6044820152606401610b62565b600080600954601454426125439190614b8b565b61254d9190614b0a565b600a54601254919250600091839160649161256b9160ff1690614a69565b6125759190614b0a565b61257f9190614a69565b90508060125411156125a057806012546125999190614b8b565b92506125a5565b600092505b601354831015611e4e576013549250505090565b336125c26123da565b6001600160a01b0316146125e85760405162461bcd60e51b8152600401610b6290614916565b601655565b60025460ff16156126105760405162461bcd60e51b8152600401610b629061494b565b600260015414156126335760405162461bcd60e51b8152600401610b6290614975565b60026001553233146126575760405162461bcd60e51b8152600401610b62906149ac565b6000612661611e53565b61266b9083614a69565b600354604051632770a7eb60e21b81529192506001600160a01b031690639dc29fac9061269e9033908590600401614a88565b600060405180830381600087803b1580156126b857600080fd5b505af11580156126cc573d6000803e3d6000fd5b50506006546040516340c10f1960e01b81526001600160a01b0390911692506340c10f1991506127029033908690600401614a88565b600060405180830381600087803b15801561271c57600080fd5b505af1158015612730573d6000803e3d6000fd5b5050600a5460165460649350612750925061010090910460ff1690614a69565b61275a9190614b0a565b612762611e53565b61276c9190614a1a565b60165542601955604051829033907f6606f109ad9932a9f59b9ccfe2affa8c6d03c50cc3d962f2d9191fb0d57db1a290600090a3505060018055565b60025460ff16156127cb5760405162461bcd60e51b8152600401610b629061494b565b600260015414156127ee5760405162461bcd60e51b8152600401610b6290614975565b6002600155336127fc6123da565b6001600160a01b0316146128225760405162461bcd60e51b8152600401610b6290614916565b805182511461286c5760405162461bcd60e51b81526020600482015260166024820152750a8ded6cadce6404c40a6cacac840dad2e6dac2e8c6d60531b6044820152606401610b62565b60005b82518161ffff161015612a2d576000838261ffff168151811061289457612894614ac3565b6020908102919091010151600480546040516331a9108f60e11b815261ffff8416928101929092529192506000916001600160a01b031690636352211e90602401602060405180830381865afa1580156128f2573d6000803e3d6000fd5b505050506040513d601f19601f820116820180604052508101906129169190614c3f565b6001600160a01b031614156129645760405162461bcd60e51b8152602060048201526014602482015273151bdad95b88191bd95cc81b9bdd08195e1a5cdd60621b6044820152606401610b62565b6000838361ffff168151811061297c5761297c614ac3565b602002602001015160405160200161299691815260200190565b60408051808303601f190181529082905280516020909101206004805463ee525fef60e01b845261ffff861691840191909152602483018290529092506001600160a01b03169063ee525fef90604401600060405180830381600087803b158015612a0057600080fd5b505af1158015612a14573d6000803e3d6000fd5b5050505050508080612a2590614aa1565b91505061286f565b50336001600160a01b03167fde7afd7afa0e2dce0908f094d5db4d41dce1d1cef407ab78806928e54cf0866983604051611db89190614b78565b33612a706123da565b6001600160a01b031614612a965760405162461bcd60e51b8152600401610b6290614916565b600b55565b33612aa46123da565b6001600160a01b031614612aca5760405162461bcd60e51b8152600401610b6290614916565b601255565b33612ad86123da565b6001600160a01b031614612afe5760405162461bcd60e51b8152600401610b6290614916565b600a805460ff9092166101000261ff0019909216919091179055565b33612b236123da565b6001600160a01b031614612b495760405162461bcd60e51b8152600401610b6290614916565b6001600160a01b038116612bae5760405162461bcd60e51b815260206004820152602660248201527f4f776e61626c653a206e6577206f776e657220697320746865207a65726f206160448201526564647265737360d01b6064820152608401610b62565b612bb78161354c565b50565b6000610b7b82614324565b60048054604051631d7a2e6d60e31b815291820183905260009182916001600160a01b03169063ebd1736890602401602060405180830381865afa158015612c11573d6000803e3d6000fd5b505050506040513d601f19601f82011682018060405250810190612c359190614c73565b905043816001600160401b031610612c5f5760405162461bcd60e51b8152600401610b6290614c8e565b600480546040516332385e2560e01b81529182018590526000916001600160a01b03909116906332385e2590602401602060405180830381865afa158015612cab573d6000803e3d6000fd5b505050506040513d601f19601f82011682018060405250810190612ccf9190614c73565b6001600160401b03169050438110612cf95760405162461bcd60e51b8152600401610b6290614c8e565b600254604051635d528fc360e11b8152600481018690526101009091046001600160a01b03169063baa51f8690602401602060405180830381865afa158015612d46573d6000803e3d6000fd5b505050506040513d601f19601f82011682018060405250810190612d6a9190614cbd565b612dac5760405162461bcd60e51b8152602060048201526013602482015272151bdad95b881a5cc81b9bdd081cdd185ad959606a1b6044820152606401610b62565b604080516080810182526000808252602082018190529181018290526060810182905290612dd98661359c565b90506000612de687614324565b9050816020015115612ff3576002546040516319c64b7f60e31b8152600481018990526101009091046001600160a01b03169063ce325bf890602401608060405180830381865afa158015612e3f573d6000803e3d6000fd5b505050506040513d601f19601f82011682018060405250810190612e639190614cd8565b925062015180600e54846040015142612e7c9190614b8b565b612e869190614a69565b612e909190614b0a565b612e9a9087614a1a565b95506000600f54836060015161ffff16612eb49190614a69565b90506000612ec183612231565b90506000601054821015612ef75760115482866060015161ffff16612ee69190614a69565b612ef09190614a69565b9050612fae565b6010548210612fae576011546001601054612f129190614b8b565b866060015161ffff16612f259190614a69565b612f2f9190614a69565b90506000601154905060006001601054612f499190614b8b565b612f539085614b8b565b905060015b818111612faa576064612f6c84605f614a69565b612f769190614b0a565b925082886060015161ffff16612f8c9190614a69565b612f969085614a1a565b935080612fa281614b1e565b915050612f58565b5050505b62015180612fbc8285614a1a565b6040880151612fcb9042614b8b565b612fd59190614a69565b612fdf9190614b0a565b612fe9908a614a1a565b9850505050613102565b60a08201516002546040805163219bec0b60e01b8152905160009261010090046001600160a01b03169163219bec0b9160048083019260209291908290030181865afa158015613047573d6000803e3d6000fd5b505050506040513d601f19601f8201168201806040525081019061306b91906149ce565b6002546040516319c64b7f60e31b8152600481018c905291925061010090046001600160a01b03169063ce325bf890602401608060405180830381865afa1580156130ba573d6000803e3d6000fd5b505050506040513d601f19601f820116820180604052508101906130de9190614cd8565b94508460200151816130f09190614b8b565b6130fd9060ff8416614a69565b975050505b5050505050919050565b6000613119601483614d4c565b156131245733610b7b565b600254604051639e49664160e01b81526004810184905260009161010090046001600160a01b031690639e49664190602401602060405180830381865afa158015613173573d6000803e3d6000fd5b505050506040513d601f19601f820116820180604052508101906131979190614c3f565b90506001600160a01b038116610b7b57335b9392505050565b6004805460405163036a54b960e41b81529182018490526001600160a01b0316906336a54b9090602401602060405180830381865afa1580156131f7573d6000803e3d6000fd5b505050506040513d601f19601f8201168201806040525081019061321b9190614cbd565b6132675760405162461bcd60e51b815260206004820152601c60248201527f4f6e6c79204865726f732063616e206265206c6576656c6564207570000000006044820152606401610b62565b600061327283614324565b90506001600160a01b03811633146132c75760405162461bcd60e51b81526020600482015260186024820152772cb7ba903237b713ba1037bbb7103a3434b9903a37b5b2b760411b6044820152606401610b62565b60006132d28461359c565b905060006132e482606001518561242e565b600354604051632770a7eb60e21b81529192506001600160a01b031690639dc29fac906133179033908590600401614a88565b600060405180830381600087803b15801561333157600080fd5b505af1158015613345573d6000803e3d6000fd5b5060009250600191506133559050565b60405190808252806020026020018201604052801561337e578160200160208202803683370190505b509050858160008151811061339557613395614ac3565b61ffff9290921660209283029190910190910152600254604051635d528fc360e11b8152600481018890526101009091046001600160a01b03169063baa51f8690602401602060405180830381865afa1580156133f6573d6000803e3d6000fd5b505050506040513d601f19601f8201168201806040525081019061341a9190614cbd565b1561348957600254604051630d33505d60e01b81526101009091046001600160a01b031690630d33505d90613456908490600090600401614d60565b600060405180830381600087803b15801561347057600080fd5b505af1158015613484573d6000803e3d6000fd5b505050505b600085846060015161349b9190614c19565b600480546040516329db9af160e21b81529182018a905261ffff831660248301529192506001600160a01b039091169063a76e6bc490604401600060405180830381600087803b1580156134ee57600080fd5b505af1158015613502573d6000803e3d6000fd5b505050508661350e3390565b6001600160a01b03167fd7e6f8bed0f169ce7e99f567c9aedbafcc8d027fc4573b56701b2bc9e9e8839360405160405180910390a350505050505050565b600080546001600160a01b038381166001600160a01b0319831681178455604051919092169283917f8be0079c531659141344cd1fd0a4f28419497f9722a3daafe3b4186f6b6457e09190a35050565b6135a46144e0565b600480546040516394e5684760e01b81529182018490526000916001600160a01b03909116906394e568479060240161010060405180830381865afa1580156135f1573d6000803e3d6000fd5b505050506040513d601f19601f820116820180604052508101906136159190614d8f565b9050600061362284614324565b9050816060015161ffff166000141561363c575092915050565b600061364782611f11565b905060006015546017548361365c9190614a69565b6136669190614a1a565b905060008185608001514261367b9190614b8b565b6136859190614b0a565b9050846060015161ffff168161ffff1611156136a757600060608601526136c1565b8085606001516136b79190614e4a565b61ffff1660608601525b509295945050505050565b600061ffff82166136df57506000919050565b8161ffff16600114156136fc5750681b1ae4d6e2ef500000919050565b8161ffff16600214156137195750683635c9adc5dea00000919050565b8161ffff166003141561373657506879f905c6fd34e80000919050565b8161ffff1660041415613753575068df9ddfecd036540000919050565b8161ffff1660051415613771575069015586102d2b60f00000919050565b8161ffff166006141561378f57506901cd0e95d69429440000919050565b8161ffff16600714156137ad575069022944b3ce4b64b80000919050565b8161ffff16600814156137cb575069026ff55671680a180000919050565b8161ffff16600914156137e957506902d206417ce9e3bc0000919050565b8161ffff16600a1415613807575069030e3299abe1af540000919050565b8161ffff16600b141561382557506903d1bbc7e92d31500000919050565b8161ffff16600c141561384357506904c62ab9e3787da40000919050565b8161ffff16600d141561386157506905f7b1f02ea9b3340000919050565b8161ffff16600e141561387f57506907759af40ca736280000919050565b8161ffff16600f141561389d575069095308a16b2ad7640000919050565b8161ffff16601014156138bb5750690ba7d5324efc4ac80000919050565b8161ffff16601114156138d95750690e91b5add0ade2640000919050565b8161ffff16601214156138f757506912362d81cde018880000919050565b8161ffff166013141561391557506916c3bfd29cb1f25c0000919050565b8161ffff16601414156139335750691c74a55ebad7b1680000919050565b8161ffff16601514156139515750692391d5a6c4e771740000919050565b8161ffff166016141561396f5750692c764798487463f80000919050565b8161ffff166017141561398d5750693793d28dff37a9440000919050565b8161ffff16601814156139ab5750694578d19a080c51200000919050565b8161ffff16601914156139c957506956d706008a0f65680000919050565b8161ffff16601a14156139e75750696c8cc09051396b100000919050565b8161ffff16601b1415613a0557506987aff0b46587c5d40000919050565b8161ffff16601c1415613a2357506993e62ed98a12c7c80000919050565b8161ffff16601d1415613a41575069a135c6b6acd15f140000919050565b8161ffff16601e1415613a5f575069afb81719ce318e880000919050565b8161ffff16601f1415613a7d575069bf889c0cc3ffd9300000919050565b8161ffff1660201415613a9b575069d0c5955dc9d31b040000919050565b8161ffff1660211415613ab9575069e38fa57a8222f52c0000919050565b8161ffff1660221415613ad7575069f80aaf7b618244400000919050565b8161ffff1660231415613af657506a010e5d91c01d1cdb540000919050565b8161ffff1660241415613b1557506a0126b2cc783b235ca80000919050565b8161ffff1660251415613b3457506a0141389d64803288700000919050565b8161ffff1660261415613b5357506a015e21987ec90b6e200000919050565b8161ffff1660271415613b7257506a017da48c389d2c1da40000919050565b8161ffff1660281415613b9157506a019ffda4ea2b8c62940000919050565b8161ffff1660291415613bb057506a01c56e198e0267d7dc0000919050565b8161ffff16602a1415613bcf57506a01ee3d17ad312c05600000919050565b8161ffff16602b1415613bee57506a021ab85c07223091480000919050565b8161ffff16602c1415613c0d57506a024b3477f52c3984f40000919050565b8161ffff16602d1415613c2c57506a02800da19546fe1bd80000919050565b8161ffff16602e1415613c4b57506a02b9a883f4bfaf92580000919050565b8161ffff16602f1415613c6a57506a02f8729254812f12200000919050565b8161ffff1660301415613c8957506a033ce33978c77e14bc0000919050565b8161ffff1660311415613ca857506a03877cd975f86028a00000919050565b8161ffff1660321415613cc757506a03d8cd26d5a24484e40000919050565b8161ffff1660331415613ce657506a04316f026ec022448c0000919050565b8161ffff1660341415613d0557506a04920ae86b6f15a1a80000919050565b8161ffff1660351415613d2457506a04fb58ba407b8889380000919050565b8161ffff1660361415613d4357506a056e20aa998320b8d00000919050565b8161ffff1660371415613d6257506a05eb3d3ed35cb6f00c0000919050565b8161ffff1660381415613d8157506a06739c56a9a7ac5cfc0000919050565b8161ffff1660391415613da057506a0708417314c564128c0000919050565b8161ffff16603a1415613dbf57506a07aa4748be8b9cfed80000919050565b8161ffff16603b1415613dde57506a085ae23e6318b9ff240000919050565b8161ffff16603c1415613dfd57506a091b621b06f38324f80000919050565b8161ffff16603d1415613e1c57506a09ed3538c1268d4a2c0000919050565b8161ffff16603e1415613e3b57506a0ad1ea94165ee4e9c00000919050565b8161ffff16603f1415613e5a57506a0bcb357ba973c6966c0000919050565b8161ffff1660401415613e7957506a0cdaf01c7cf19ab5fc0000919050565b8161ffff1660411415613e9857506a0e031f3f8458619f440000919050565b8161ffff1660421415613eb757506a0f45f691fc7d2441fc0000919050565b8161ffff1660431415613ed657506a10a5dc1d9936ddffc00000919050565b8161ffff1660441415613ef557506a12256d5327bdc07b640000919050565b8161ffff1660451415613f1457506a13c784075053c3c0e40000919050565b8161ffff1660461415613f3357506a158f3b61773682c5f00000919050565b8161ffff1660471415613f5257506a177ff686b4678cd6f80000919050565b8161ffff1660481415613f7157506a199d664afe9c153f300000919050565b8161ffff1660491415613f9057506a1beb90c80f2732d3400000919050565b8161ffff16604a1415613faf57506a1e6ed8aee2529d37000000919050565b8161ffff16604b1415613fce57506a212c05ca876ada85cc0000919050565b8161ffff16604c1415613fed57506a24284dffd737bddd5c0000919050565b8161ffff16604d141561400c57506a27695f46f74d87ada40000919050565b8161ffff16604e141561402b57506a2af56a5946a52588c80000919050565b8161ffff16604f141561404a57506a2ed32ee3de301842000000919050565b8161ffff166050141561406957506a330a07828e918b6eec0000919050565b8161ffff166051141561408857506a37a1f8dfc73c20d5900000919050565b8161ffff16605214156140a757506a3ca3bfe8916dcdbcac0000919050565b8161ffff16605314156140c657506a4218e31793d9b881580000919050565b8161ffff16605414156140e557506a480bc44add751ab6880000919050565b8161ffff166055141561410457506a4e87b4b6ec1981c4cc0000919050565b8161ffff166056141561412357506a55990a18e39133940c0000919050565b8161ffff166057141561414257506a5d4d3682e6e54298040000919050565b8161ffff166058141561416157506a65b2e1d6a7cb6321dc0000919050565b8161ffff166059141561418057506a6eda0586d40d3a28280000919050565b8161ffff16605a141561419f57506a78d40b2a280c2a0f380000919050565b8161ffff16605b14156141be57506a83b3ed633ff54c8f340000919050565b8161ffff16605c14156141dd57506a8f8e5c6a38c67169640000919050565b8161ffff16605d14156141fc57506a9c79e4b38d287b9db40000919050565b8161ffff16605e141561421b57506aaa8f1a85d33b9b20c40000919050565b8161ffff16605f141561423a57506ab9e8c87ce0ed6be1100000919050565b8161ffff166060141561425957506acaa4223987431e252c0000919050565b8161ffff166061141561427857506adce0fc459226fdaf800000919050565b8161ffff166062141561429757506af0c208cae7ba6e13c80000919050565b8161ffff16606314156142b757506b011091762c88ac32afa80000919050565b8161ffff16606414156142d757506b0121836204bc2ce21e000000919050565b60405162461bcd60e51b815260206004820152601f60248201527f54686973206c6576656c206973206e6f7420737570706f7274656420796574006044820152606401610b62565b919050565b600254604051635d528fc360e11b81526004810183905260009161010090046001600160a01b03169063baa51f8690602401602060405180830381865afa158015614373573d6000803e3d6000fd5b505050506040513d601f19601f820116820180604052508101906143979190614cbd565b1561441c576002546040516319c64b7f60e31b81526004810184905260009161010090046001600160a01b03169063ce325bf890602401608060405180830381865afa1580156143eb573d6000803e3d6000fd5b505050506040513d601f19601f8201168201806040525081019061440f9190614cd8565b60600151915061448a9050565b600480546040516331a9108f60e11b81529182018490526001600160a01b031690636352211e90602401602060405180830381865afa158015614463573d6000803e3d6000fd5b505050506040513d601f19601f820116820180604052508101906144879190614c3f565b90505b6001600160a01b03811661431f5760405162461bcd60e51b815260206004820152601e60248201527f546865206f776e65722063616e6e6f74206265206164647265737328302900006044820152606401610b62565b6040805161010081018252600080825260208201819052918101829052606081018290526080810182905260a0810182905260c0810182905260e081019190915290565b60006020828403121561453657600080fd5b5035919050565b6001600160a01b0391909116815260200190565b6001600160a01b0381168114612bb757600080fd5b60006020828403121561457857600080fd5b81356131a981614551565b60008060008060008060c0878903121561459c57600080fd5b86356145a781614551565b955060208701356145b781614551565b945060408701356145c781614551565b935060608701356145d781614551565b925060808701356145e781614551565b915060a08701356145f781614551565b809150509295509295509295565b634e487b7160e01b600052604160045260246000fd5b604051601f8201601f191681016001600160401b038111828210171561464357614643614605565b604052919050565b60006001600160401b0382111561466457614664614605565b5060051b60200190565b600082601f83011261467f57600080fd5b8135602061469461468f8361464b565b61461b565b82815260059290921b840181019181810190868411156146b357600080fd5b8286015b848110156146ce57803583529183019183016146b7565b509695505050505050565b6000602082840312156146eb57600080fd5b81356001600160401b0381111561470157600080fd5b61470d8482850161466e565b949350505050565b61ffff81168114612bb757600080fd5b600082601f83011261473657600080fd5b8135602061474661468f8361464b565b82815260059290921b8401810191818101908684111561476557600080fd5b8286015b848110156146ce57803561477c81614715565b8352918301918301614769565b6000806040838503121561479c57600080fd5b82356001600160401b038111156147b257600080fd5b6147be85828601614725565b92505060208301356147cf81614715565b809150509250929050565b60ff81168114612bb757600080fd5b6000602082840312156147fb57600080fd5b81356131a9816147da565b60006101008201905082511515825260208301511515602083015260408301511515604083015261ffff60608401511660608301526080830151608083015260a083015161485960a084018260ff169052565b5060c083015160c083015260e083015161487e60e08401826001600160401b03169052565b5092915050565b6000806040838503121561489857600080fd5b82356148a381614715565b915060208301356147cf81614715565b600080604083850312156148c657600080fd5b82356001600160401b03808211156148dd57600080fd5b6148e986838701614725565b935060208501359150808211156148ff57600080fd5b5061490c8582860161466e565b9150509250929050565b6020808252818101527f4f776e61626c653a2063616c6c6572206973206e6f7420746865206f776e6572604082015260600190565b60208082526010908201526f14185d5cd8589b194e881c185d5cd95960821b604082015260600190565b6020808252601f908201527f5265656e7472616e637947756172643a207265656e7472616e742063616c6c00604082015260600190565b6020808252600890820152674f6e6c7920454f4160c01b604082015260600190565b6000602082840312156149e057600080fd5b5051919050565b6000602082840312156149f957600080fd5b81516131a981614715565b634e487b7160e01b600052601160045260246000fd5b60008219821115614a2d57614a2d614a04565b500190565b6020808252601c908201527f496e76616c6964206d696e7420616d6f756e7420286d61782031302900000000604082015260600190565b6000816000190483118215151615614a8357614a83614a04565b500290565b6001600160a01b03929092168252602082015260400190565b600061ffff80831681811415614ab957614ab9614a04565b6001019392505050565b634e487b7160e01b600052603260045260246000fd5b6001600160a01b039290921682521515602082015260400190565b634e487b7160e01b600052601260045260246000fd5b600082614b1957614b19614af4565b500490565b6000600019821415614b3257614b32614a04565b5060010190565b600081518084526020808501945080840160005b83811015614b6d57815161ffff1687529582019590820190600101614b4d565b509495945050505050565b6020815260006131a96020830184614b39565b600082821015614b9d57614b9d614a04565b500390565b600060608284031215614bb457600080fd5b604051606081018181106001600160401b0382111715614bd657614bd6614605565b80604052508091508251815260208301516020820152604083015160408201525092915050565b600060608284031215614c0f57600080fd5b6131a98383614ba2565b600061ffff808316818516808303821115614c3657614c36614a04565b01949350505050565b600060208284031215614c5157600080fd5b81516131a981614551565b80516001600160401b038116811461431f57600080fd5b600060208284031215614c8557600080fd5b6131a982614c5c565b6020808252600590820152644e6f70652160d81b604082015260600190565b8051801515811461431f57600080fd5b600060208284031215614ccf57600080fd5b6131a982614cad565b600060808284031215614cea57600080fd5b604051608081018181106001600160401b0382111715614d0c57614d0c614605565b6040528251614d1a81614715565b8082525060208301516020820152604083015160408201526060830151614d4081614551565b60608201529392505050565b600082614d5b57614d5b614af4565b500690565b604081526000614d736040830185614b39565b905082151560208301529392505050565b805161431f816147da565b6000610100808385031215614da357600080fd5b604051908101906001600160401b0382118183101715614dc557614dc5614605565b81604052614dd284614cad565b8152614de060208501614cad565b6020820152614df160408501614cad565b604082015260608401519150614e0682614715565b81606082015260808401516080820152614e2260a08501614d84565b60a082015260c084015160c0820152614e3d60e08501614c5c565b60e0820152949350505050565b600061ffff83811690831681811015614e6557614e65614a04565b03939250505056fea26469706673582212204d1af967c422e68116506f0714b8fea6a31d1dea957451ed257a1a1aa102851a64736f6c634300080b0033",
  "linkReferences": {},
  "deployedLinkReferences": {}
}