{
  "_format": "hh-sol-artifact-1",
  "contractName": "NFT",
  "sourceName": "contracts/NFT.sol",
  "abi": [
    {
      "inputs": [],
      "stateMutability": "nonpayable",
      "type": "constructor"
    },
    {
      "anonymous": false,
      "inputs": [
        {
          "indexed": true,
          "internalType": "address",
          "name": "owner",
          "type": "address"
        },
        {
          "indexed": true,
          "internalType": "address",
          "name": "approved",
          "type": "address"
        },
        {
          "indexed": true,
          "internalType": "uint256",
          "name": "tokenId",
          "type": "uint256"
        }
      ],
      "name": "Approval",
      "type": "event"
    },
    {
      "anonymous": false,
      "inputs": [
        {
          "indexed": true,
          "internalType": "address",
          "name": "owner",
          "type": "address"
        },
        {
          "indexed": true,
          "internalType": "address",
          "name": "operator",
          "type": "address"
        },
        {
          "indexed": false,
          "internalType": "bool",
          "name": "approved",
          "type": "bool"
        }
      ],
      "name": "ApprovalForAll",
      "type": "event"
    },
    {
      "anonymous": false,
      "inputs": [
        {
          "indexed": true,
          "internalType": "address",
          "name": "previousOwner",
          "type": "address"
        },
        {
          "indexed": true,
          "internalType": "address",
          "name": "newOwner",
          "type": "address"
        }
      ],
      "name": "OwnershipTransferred",
      "type": "event"
    },
    {
      "anonymous": false,
      "inputs": [
        {
          "indexed": false,
          "internalType": "address",
          "name": "account",
          "type": "address"
        }
      ],
      "name": "Paused",
      "type": "event"
    },
    {
      "anonymous": false,
      "inputs": [
        {
          "indexed": true,
          "internalType": "address",
          "name": "owner",
          "type": "address"
        },
        {
          "indexed": true,
          "internalType": "uint256",
          "name": "tokenId",
          "type": "uint256"
        }
      ],
      "name": "TokenBurned",
      "type": "event"
    },
    {
      "anonymous": false,
      "inputs": [
        {
          "indexed": true,
          "internalType": "address",
          "name": "owner",
          "type": "address"
        },
        {
          "indexed": true,
          "internalType": "uint256",
          "name": "tokenId",
          "type": "uint256"
        }
      ],
      "name": "TokenMinted",
      "type": "event"
    },
    {
      "anonymous": false,
      "inputs": [
        {
          "indexed": true,
          "internalType": "address",
          "name": "owner",
          "type": "address"
        },
        {
          "indexed": false,
          "internalType": "uint16",
          "name": "tokenId",
          "type": "uint16"
        }
      ],
      "name": "TokenRevealed",
      "type": "event"
    },
    {
      "anonymous": false,
      "inputs": [
        {
          "indexed": true,
          "internalType": "address",
          "name": "from",
          "type": "address"
        },
        {
          "indexed": true,
          "internalType": "address",
          "name": "to",
          "type": "address"
        },
        {
          "indexed": true,
          "internalType": "uint256",
          "name": "tokenId",
          "type": "uint256"
        }
      ],
      "name": "Transfer",
      "type": "event"
    },
    {
      "anonymous": false,
      "inputs": [
        {
          "indexed": false,
          "internalType": "address",
          "name": "account",
          "type": "address"
        }
      ],
      "name": "Unpaused",
      "type": "event"
    },
    {
      "inputs": [],
      "name": "MAX_GEN0_TOKENS",
      "outputs": [
        {
          "internalType": "uint256",
          "name": "",
          "type": "uint256"
        }
      ],
      "stateMutability": "view",
      "type": "function"
    },
    {
      "inputs": [],
      "name": "MAX_TOKENS",
      "outputs": [
        {
          "internalType": "uint256",
          "name": "",
          "type": "uint256"
        }
      ],
      "stateMutability": "view",
      "type": "function"
    },
    {
      "inputs": [
        {
          "internalType": "address",
          "name": "addr",
          "type": "address"
        }
      ],
      "name": "addAdmin",
      "outputs": [],
      "stateMutability": "nonpayable",
      "type": "function"
    },
    {
      "inputs": [
        {
          "internalType": "address",
          "name": "to",
          "type": "address"
        },
        {
          "internalType": "uint256",
          "name": "tokenId",
          "type": "uint256"
        }
      ],
      "name": "approve",
      "outputs": [],
      "stateMutability": "nonpayable",
      "type": "function"
    },
    {
      "inputs": [
        {
          "internalType": "address",
          "name": "owner",
          "type": "address"
        }
      ],
      "name": "balanceOf",
      "outputs": [
        {
          "internalType": "uint256",
          "name": "",
          "type": "uint256"
        }
      ],
      "stateMutability": "view",
      "type": "function"
    },
    {
      "inputs": [
        {
          "internalType": "uint256",
          "name": "tokenId",
          "type": "uint256"
        }
      ],
      "name": "burn",
      "outputs": [],
      "stateMutability": "nonpayable",
      "type": "function"
    },
    {
      "inputs": [],
      "name": "getAddressWriteBlock",
      "outputs": [
        {
          "internalType": "uint64",
          "name": "",
          "type": "uint64"
        }
      ],
      "stateMutability": "view",
      "type": "function"
    },
    {
      "inputs": [
        {
          "internalType": "uint256",
          "name": "tokenId",
          "type": "uint256"
        }
      ],
      "name": "getApproved",
      "outputs": [
        {
          "internalType": "address",
          "name": "",
          "type": "address"
        }
      ],
      "stateMutability": "view",
      "type": "function"
    },
    {
      "inputs": [
        {
          "internalType": "uint256",
          "name": "tokenId",
          "type": "uint256"
        }
      ],
      "name": "getTokenMintBlock",
      "outputs": [
        {
          "internalType": "uint64",
          "name": "",
          "type": "uint64"
        }
      ],
      "stateMutability": "view",
      "type": "function"
    },
    {
      "inputs": [
        {
          "internalType": "uint256",
          "name": "tokenId",
          "type": "uint256"
        }
      ],
      "name": "getTokenTraits",
      "outputs": [
        {
          "components": [
            {
              "internalType": "bool",
              "name": "isRevealed",
              "type": "bool"
            },
            {
              "internalType": "bool",
              "name": "isHero",
              "type": "bool"
            },
            {
              "internalType": "bool",
              "name": "isGen0",
              "type": "bool"
            },
            {
              "internalType": "uint16",
              "name": "level",
              "type": "uint16"
            },
            {
              "internalType": "uint256",
              "name": "lastLevelUpgradeTime",
              "type": "uint256"
            },
            {
              "internalType": "uint8",
              "name": "rank",
              "type": "uint8"
            },
            {
              "internalType": "uint256",
              "name": "lastRankUpgradeTime",
              "type": "uint256"
            },
            {
              "internalType": "uint64",
              "name": "mintedBlockNumber",
              "type": "uint64"
            }
          ],
          "internalType": "struct INFT.HeroVillain",
          "name": "",
          "type": "tuple"
        }
      ],
      "stateMutability": "view",
      "type": "function"
    },
    {
      "inputs": [
        {
          "internalType": "uint256",
          "name": "tokenId",
          "type": "uint256"
        }
      ],
      "name": "getTokenWriteBlock",
      "outputs": [
        {
          "internalType": "uint64",
          "name": "",
          "type": "uint64"
        }
      ],
      "stateMutability": "view",
      "type": "function"
    },
    {
      "inputs": [],
      "name": "getVillainRanks",
      "outputs": [
        {
          "internalType": "uint8[4]",
          "name": "",
          "type": "uint8[4]"
        }
      ],
      "stateMutability": "view",
      "type": "function"
    },
    {
      "inputs": [
        {
          "internalType": "address",
          "name": "owner",
          "type": "address"
        },
        {
          "internalType": "address",
          "name": "operator",
          "type": "address"
        }
      ],
      "name": "isApprovedForAll",
      "outputs": [
        {
          "internalType": "bool",
          "name": "",
          "type": "bool"
        }
      ],
      "stateMutability": "view",
      "type": "function"
    },
    {
      "inputs": [
        {
          "internalType": "uint256",
          "name": "tokenId",
          "type": "uint256"
        }
      ],
      "name": "isHero",
      "outputs": [
        {
          "internalType": "bool",
          "name": "",
          "type": "bool"
        }
      ],
      "stateMutability": "view",
      "type": "function"
    },
    {
      "inputs": [
        {
          "internalType": "address",
          "name": "recipient",
          "type": "address"
        },
        {
          "internalType": "bool",
          "name": "isGen0",
          "type": "bool"
        }
      ],
      "name": "mint",
      "outputs": [],
      "stateMutability": "nonpayable",
      "type": "function"
    },
    {
      "inputs": [],
      "name": "name",
      "outputs": [
        {
          "internalType": "string",
          "name": "",
          "type": "string"
        }
      ],
      "stateMutability": "view",
      "type": "function"
    },
    {
      "inputs": [],
      "name": "owner",
      "outputs": [
        {
          "internalType": "address",
          "name": "",
          "type": "address"
        }
      ],
      "stateMutability": "view",
      "type": "function"
    },
    {
      "inputs": [
        {
          "internalType": "uint256",
          "name": "tokenId",
          "type": "uint256"
        }
      ],
      "name": "ownerOf",
      "outputs": [
        {
          "internalType": "address",
          "name": "",
          "type": "address"
        }
      ],
      "stateMutability": "view",
      "type": "function"
    },
    {
      "inputs": [],
      "name": "paused",
      "outputs": [
        {
          "internalType": "bool",
          "name": "",
          "type": "bool"
        }
      ],
      "stateMutability": "view",
      "type": "function"
    },
    {
      "inputs": [
        {
          "internalType": "address",
          "name": "addr",
          "type": "address"
        }
      ],
      "name": "removeAdmin",
      "outputs": [],
      "stateMutability": "nonpayable",
      "type": "function"
    },
    {
      "inputs": [],
      "name": "renounceOwnership",
      "outputs": [],
      "stateMutability": "nonpayable",
      "type": "function"
    },
    {
      "inputs": [
        {
          "internalType": "uint16",
          "name": "tokenId",
          "type": "uint16"
        },
        {
          "internalType": "uint256",
          "name": "seed",
          "type": "uint256"
        }
      ],
      "name": "revealTokenId",
      "outputs": [],
      "stateMutability": "nonpayable",
      "type": "function"
    },
    {
      "inputs": [
        {
          "internalType": "uint256",
          "name": "tokenId",
          "type": "uint256"
        },
        {
          "internalType": "uint256",
          "name": "salePrice",
          "type": "uint256"
        }
      ],
      "name": "royaltyInfo",
      "outputs": [
        {
          "internalType": "address",
          "name": "receiver",
          "type": "address"
        },
        {
          "internalType": "uint256",
          "name": "royaltyAmount",
          "type": "uint256"
        }
      ],
      "stateMutability": "view",
      "type": "function"
    },
    {
      "inputs": [
        {
          "internalType": "address",
          "name": "from",
          "type": "address"
        },
        {
          "internalType": "address",
          "name": "to",
          "type": "address"
        },
        {
          "internalType": "uint256",
          "name": "tokenId",
          "type": "uint256"
        }
      ],
      "name": "safeTransferFrom",
      "outputs": [],
      "stateMutability": "nonpayable",
      "type": "function"
    },
    {
      "inputs": [
        {
          "internalType": "address",
          "name": "from",
          "type": "address"
        },
        {
          "internalType": "address",
          "name": "to",
          "type": "address"
        },
        {
          "internalType": "uint256",
          "name": "tokenId",
          "type": "uint256"
        },
        {
          "internalType": "bytes",
          "name": "_data",
          "type": "bytes"
        }
      ],
      "name": "safeTransferFrom",
      "outputs": [],
      "stateMutability": "nonpayable",
      "type": "function"
    },
    {
      "inputs": [
        {
          "internalType": "address",
          "name": "operator",
          "type": "address"
        },
        {
          "internalType": "bool",
          "name": "approved",
          "type": "bool"
        }
      ],
      "name": "setApprovalForAll",
      "outputs": [],
      "stateMutability": "nonpayable",
      "type": "function"
    },
    {
      "inputs": [
        {
          "internalType": "address",
          "name": "_uGame",
          "type": "address"
        }
      ],
      "name": "setContracts",
      "outputs": [],
      "stateMutability": "nonpayable",
      "type": "function"
    },
    {
      "inputs": [
        {
          "internalType": "bool",
          "name": "_paused",
          "type": "bool"
        }
      ],
      "name": "setPaused",
      "outputs": [],
      "stateMutability": "nonpayable",
      "type": "function"
    },
    {
      "inputs": [
        {
          "internalType": "string",
          "name": "uri",
          "type": "string"
        }
      ],
      "name": "setRevealedBaseURI",
      "outputs": [],
      "stateMutability": "nonpayable",
      "type": "function"
    },
    {
      "inputs": [
        {
          "internalType": "uint256",
          "name": "number",
          "type": "uint256"
        }
      ],
      "name": "setRoyaltyPermille",
      "outputs": [],
      "stateMutability": "nonpayable",
      "type": "function"
    },
    {
      "inputs": [
        {
          "internalType": "uint256",
          "name": "tokenId",
          "type": "uint256"
        },
        {
          "internalType": "uint16",
          "name": "level",
          "type": "uint16"
        }
      ],
      "name": "setTraitLevel",
      "outputs": [],
      "stateMutability": "nonpayable",
      "type": "function"
    },
    {
      "inputs": [
        {
          "internalType": "uint256",
          "name": "tokenId",
          "type": "uint256"
        },
        {
          "internalType": "uint8",
          "name": "rank",
          "type": "uint8"
        }
      ],
      "name": "setTraitRank",
      "outputs": [],
      "stateMutability": "nonpayable",
      "type": "function"
    },
    {
      "inputs": [
        {
          "internalType": "bytes4",
          "name": "interfaceId",
          "type": "bytes4"
        }
      ],
      "name": "supportsInterface",
      "outputs": [
        {
          "internalType": "bool",
          "name": "",
          "type": "bool"
        }
      ],
      "stateMutability": "view",
      "type": "function"
    },
    {
      "inputs": [],
      "name": "symbol",
      "outputs": [
        {
          "internalType": "string",
          "name": "",
          "type": "string"
        }
      ],
      "stateMutability": "view",
      "type": "function"
    },
    {
      "inputs": [
        {
          "internalType": "uint256",
          "name": "index",
          "type": "uint256"
        }
      ],
      "name": "tokenByIndex",
      "outputs": [
        {
          "internalType": "uint256",
          "name": "",
          "type": "uint256"
        }
      ],
      "stateMutability": "view",
      "type": "function"
    },
    {
      "inputs": [
        {
          "internalType": "address",
          "name": "owner",
          "type": "address"
        },
        {
          "internalType": "uint256",
          "name": "index",
          "type": "uint256"
        }
      ],
      "name": "tokenOfOwnerByIndex",
      "outputs": [
        {
          "internalType": "uint256",
          "name": "",
          "type": "uint256"
        }
      ],
      "stateMutability": "view",
      "type": "function"
    },
    {
      "inputs": [
        {
          "internalType": "uint256",
          "name": "tokenId",
          "type": "uint256"
        }
      ],
      "name": "tokenURI",
      "outputs": [
        {
          "internalType": "string",
          "name": "",
          "type": "string"
        }
      ],
      "stateMutability": "view",
      "type": "function"
    },
    {
      "inputs": [],
      "name": "tokensMinted",
      "outputs": [
        {
          "internalType": "uint16",
          "name": "",
          "type": "uint16"
        }
      ],
      "stateMutability": "view",
      "type": "function"
    },
    {
      "inputs": [],
      "name": "totalSupply",
      "outputs": [
        {
          "internalType": "uint256",
          "name": "",
          "type": "uint256"
        }
      ],
      "stateMutability": "view",
      "type": "function"
    },
    {
      "inputs": [
        {
          "internalType": "address",
          "name": "from",
          "type": "address"
        },
        {
          "internalType": "address",
          "name": "to",
          "type": "address"
        },
        {
          "internalType": "uint256",
          "name": "tokenId",
          "type": "uint256"
        }
      ],
      "name": "transferFrom",
      "outputs": [],
      "stateMutability": "nonpayable",
      "type": "function"
    },
    {
      "inputs": [
        {
          "internalType": "address",
          "name": "newOwner",
          "type": "address"
        }
      ],
      "name": "transferOwnership",
      "outputs": [],
      "stateMutability": "nonpayable",
      "type": "function"
    },
    {
      "inputs": [],
      "name": "uGame",
      "outputs": [
        {
          "internalType": "contract IGame",
          "name": "",
          "type": "address"
        }
      ],
      "stateMutability": "view",
      "type": "function"
    },
    {
      "inputs": [
        {
          "internalType": "uint256",
          "name": "_amount",
          "type": "uint256"
        }
      ],
      "name": "updateMaxGen0Token",
      "outputs": [],
      "stateMutability": "nonpayable",
      "type": "function"
    },
    {
      "inputs": [
        {
          "internalType": "uint16[]",
          "name": "tokenIds",
          "type": "uint16[]"
        }
      ],
      "name": "updateOriginAccess",
      "outputs": [],
      "stateMutability": "nonpayable",
      "type": "function"
    },
    {
      "inputs": [
        {
          "internalType": "address",
          "name": "owner",
          "type": "address"
        }
      ],
      "name": "walletOfOwner",
      "outputs": [
        {
          "internalType": "uint256[]",
          "name": "",
          "type": "uint256[]"
        }
      ],
      "stateMutability": "view",
      "type": "function"
    },
    {
      "inputs": [],
      "name": "withdraw",
      "outputs": [],
      "stateMutability": "nonpayable",
      "type": "function"
    }
  ],
  "bytecode": "0x61ea60600d556104b0600e5561010060405260056080908152600660a052600760c052600860e0526200003790601190600462000156565b5060c8601655601780546001600160a01b03191673953666239e8e3cc4128b8f47f5f34927755376711790553480156200007057600080fd5b506040805180820182526009808252682a3432902537b5b2b960b91b602080840182815285518087019096529285528401528151919291620000b591600091620001f0565b508051620000cb906001906020840190620001f0565b505050620000e8620000e26200010060201b60201c565b62000104565b600a805460ff60a01b191690556001600b55620002c1565b3390565b600a80546001600160a01b038381166001600160a01b0319831681179093556040519116919082907f8be0079c531659141344cd1fd0a4f28419497f9722a3daafe3b4186f6b6457e090600090a35050565b600183019183908215620001de5791602002820160005b83821115620001ad57835183826101000a81548160ff021916908360ff16021790555092602001926001016020816000010492830192600103026200016d565b8015620001dc5782816101000a81549060ff0219169055600101602081600001049283019260010302620001ad565b505b50620001ec9291506200026d565b5090565b828054620001fe9062000284565b90600052602060002090601f016020900481019282620002225760008555620001de565b82601f106200023d57805160ff1916838001178555620001de565b82800160010185558215620001de579182015b82811115620001de57825182559160200191906001019062000250565b5b80821115620001ec57600081556001016200026e565b600181811c908216806200029957607f821691505b60208210811415620002bb57634e487b7160e01b600052602260045260246000fd5b50919050565b613d8f80620002d16000396000f3fe608060405234801561001057600080fd5b506004361061028a5760003560e01c80636352211e1161015c578063a76e6bc4116100ce578063dac55cd411610087578063dac55cd4146105cc578063e985e9c5146105df578063ebd17368146105f2578063ee525fef14610605578063f2fde38b14610618578063f47c84c51461062b57600080fd5b8063a76e6bc414610564578063ac32d3b414610577578063ad789acb1461058a578063b88d4fde14610593578063c87b56dd146105a6578063cb0f103e146105b957600080fd5b8063715018a611610120578063715018a6146105045780638da5cb5b1461050c57806394e568471461051457806395d89b4114610534578063a22cb4651461053c578063a5a57fdf1461054f57600080fd5b80636352211e146104975780636de9f32b146104aa5780636e83843a146104cb57806370480275146104de57806370a08231146104f157600080fd5b80632f745c591161020057806342966c68116101b957806342966c681461042e578063438b6300146104415780634a5f3a73146104615780634f6ccce7146104695780635a2e2f471461047c5780635c975abb1461048f57600080fd5b80632f745c59146103af57806332385e25146103c257806335ca838b146103ed57806336a54b90146104005780633ccfd60b1461041357806342842e0e1461041b57600080fd5b80631785f53c116102525780631785f53c1461031f57806318160ddd146103325780632097d3fb1461034457806323b872dd146103575780632a55205a1461036a5780632e9f3f671461039c57600080fd5b806301ffc9a71461028f57806306fdde03146102b7578063081812fc146102cc578063095ea7b3146102f757806316c38b3c1461030c575b600080fd5b6102a261029d366004613148565b610634565b60405190151581526020015b60405180910390f35b6102bf61065f565b6040516102ae91906131bd565b6102df6102da3660046131d0565b6106f1565b6040516001600160a01b0390911681526020016102ae565b61030a610305366004613200565b6106fc565b005b61030a61031a366004613238565b61070a565b61030a61032d366004613255565b6107af565b6008545b6040519081526020016102ae565b61030a610352366004613270565b6107ff565b61030a6103653660046132a7565b610a4c565b61037d6103783660046132e3565b610a89565b604080516001600160a01b0390931683526020830191909152016102ae565b61030a6103aa3660046131d0565b610ac3565b6103366103bd366004613200565b610af7565b6103d56103d03660046131d0565b610c40565b6040516001600160401b0390911681526020016102ae565b61030a6103fb36600461335b565b610d05565b6102a261040e3660046131d0565b610e3d565b61030a610f42565b61030a6104293660046132a7565b610fb1565b61030a61043c3660046131d0565b610fc1565b61045461044f366004613255565b6110d2565b6040516102ae919061340c565b6103d561116b565b6103366104773660046131d0565b6111be565b61030a61048a366004613255565b6112be565b6102a261130f565b6102df6104a53660046131d0565b61131f565b600f546104b89061ffff1681565b60405161ffff90911681526020016102ae565b61030a6104d9366004613450565b611376565b61030a6104ec366004613255565b6113b1565b6103366104ff366004613255565b611404565b61030a611455565b6102df611490565b6105276105223660046131d0565b61149f565b6040516102ae91906134c1565b6102bf611566565b61030a61054a366004613270565b611575565b61055761157f565b6040516102ae9190613539565b61030a61057236600461356d565b611606565b61030a6105853660046135a1565b61186d565b610336600e5481565b61030a6105a13660046135c6565b611a40565b6102bf6105b43660046131d0565b611a4c565b61030a6105c73660046131d0565b611bce565b600c546102df906001600160a01b031681565b6102a26105ed366004613685565b611c02565b6103d56106003660046131d0565b611c35565b61030a6106133660046136b8565b611c87565b61030a610626366004613255565b611d03565b610336600d5481565b60006001600160e01b0319821663152a902d60e11b1480610659575061065982611da0565b92915050565b60606000805461066e906136d6565b80601f016020809104026020016040519081016040528092919081815260200182805461069a906136d6565b80156106e75780601f106106bc576101008083540402835291602001916106e7565b820191906000526020600020905b8154815290600101906020018083116106ca57829003601f168201915b5050505050905090565b600061065982611dc5565b6107068282611e4d565b5050565b600c546001600160a01b03166107675760405162461bcd60e51b815260206004820152601a60248201527f4e46543a2047616d6520636f6e7472616374206e6f742073657400000000000060448201526064015b60405180910390fd5b33610770611490565b6001600160a01b0316146107965760405162461bcd60e51b815260040161075e90613711565b80156107a7576107a4611f59565b50565b6107a4611fd6565b336107b8611490565b6001600160a01b0316146107de5760405162461bcd60e51b815260040161075e90613711565b6001600160a01b03166000908152601060205260409020805460ff19169055565b61080761130f565b156108245760405162461bcd60e51b815260040161075e90613746565b6002600b5414156108475760405162461bcd60e51b815260040161075e90613770565b6002600b553360009081526010602052604090205460ff1661087b5760405162461bcd60e51b815260040161075e906137a7565b600d54600f546108909061ffff1660016137f4565b61ffff1611156108db5760405162461bcd60e51b81526020600482015260166024820152751391950e88105b1b081d1bdad95b9cc81b5a5b9d195960521b604482015260640161075e565b600f805461ffff169060006108ef8361381a565b91906101000a81548161ffff021916908361ffff16021790555050610912613037565b8115156040828101918252436001600160401b0390811660e08501908152600f805461ffff9081166000908152601260209081529590208751815496890151975160608a015161ffff1990981691151561ff00191691909117610100981515989098029790971764ffffff00001916620100009715159790970264ffff0000001916969096176301000000958216959095029490941785556080860151600186015560a086015160028601805460ff191660ff90921691909117905560c0860151600386015590516004909401805467ffffffffffffffff1916949092169390931790559054610a0491859116612055565b600f5460405161ffff909116906001600160a01b038516907fb9144c96c86541f6fa89c9f2f02495cccf4b08cd6643e26d34ee00aa586558a890600090a350506001600b5550565b6002600b541415610a6f5760405162461bcd60e51b815260040161075e90613770565b6002600b55610a7f83838361206f565b50506001600b5550565b60175460165460009182916001600160a01b03909116906103e890610aae908661383c565b610ab89190613871565b915091509250929050565b33610acc611490565b6001600160a01b031614610af25760405162461bcd60e51b815260040161075e90613711565b601655565b6001600160a01b03821660009081526013602052604081205443600160401b9091046001600160401b031610610b3f5760405162461bcd60e51b815260040161075e90613885565b6000610b4b84846120a0565b60008181526014602052604090205490915043600160401b9091046001600160401b031610610b8c5760405162461bcd60e51b815260040161075e90613885565b60008181526012602090815260409182902082516101008082018552825460ff8082161515845291810482161515948301949094526201000084048116151594820194909452630100000090920461ffff16606083015260018101546080830152600281015490921660a0820152600382015460c08201526004909101546001600160401b031660e082018190524311610c385760405162461bcd60e51b815260040161075e90613885565b509392505050565b3360009081526010602052604081205460ff16610c6f5760405162461bcd60e51b815260040161075e906137a7565b5060008181526012602090815260409182902082516101008082018552825460ff8082161515845291810482161515948301949094526201000084048116151594820194909452630100000090920461ffff16606083015260018101546080830152600281015490921660a0820152600382015460c08201526004909101546001600160401b031660e09091018190525b919050565b3360009081526010602052604090205460ff16610d345760405162461bcd60e51b815260040161075e906137a7565b6040805180820182526001600160401b0342818116835243828116602080860191825232600090815260139091529586209451855491518516600160401b026001600160801b031990921694169390931792909217909255915b8351811015610e37576040518060400160405280836001600160401b03168152602001846001600160401b031681525060146000868481518110610dd457610dd46138a9565b60209081029190910181015161ffff168252818101929092526040016000208251815493909201516001600160401b03908116600160401b026001600160801b031990941692169190911791909117905580610e2f816138bf565b915050610d8e565b50505050565b6000610e4882612136565b610e905760405162461bcd60e51b81526020600482015260196024820152781391950e88151bdad95b88191bd95cc81b9bdd08195e1a5cdd603a1b604482015260640161075e565b60008281526012602090815260409182902082516101008082018552825460ff808216151580855292820481161515958401959095526201000081048516151595830195909552630100000090940461ffff16606082015260018201546080820152600282015490921660a0830152600381015460c0830152600401546001600160401b031660e082015290610f385760405162461bcd60e51b815260040161075e906138da565b6020015192915050565b33610f4b611490565b6001600160a01b031614610f715760405162461bcd60e51b815260040161075e90613711565b610f79611490565b6001600160a01b03166108fc479081150290604051600060405180830381858888f193505050501580156107a4573d6000803e3d6000fd5b610fbc838383612153565b505050565b610fc961130f565b15610fe65760405162461bcd60e51b815260040161075e90613746565b6002600b5414156110095760405162461bcd60e51b815260040161075e90613770565b6002600b553360009081526010602052604090205460ff1661103d5760405162461bcd60e51b815260040161075e906137a7565b806110478261131f565b6001600160a01b03167f1af5163f80e79b5e554f61e1d052084d3a3fe1166e42a265798c4e2ddce8ffa260405160405180910390a36110858161216e565b6000908152601260205260408120805464ffffffffff19168155600180820183905560028201805460ff191690556003820192909255600401805467ffffffffffffffff19169055600b55565b606060006110df83611404565b90506000816001600160401b038111156110fb576110fb613305565b604051908082528060200260200182016040528015611124578160200160208202803683370190505b50905060005b82811015610c385761113c8582610af7565b82828151811061114e5761114e6138a9565b602090810291909101015280611163816138bf565b91505061112a565b3360009081526010602052604081205460ff1661119a5760405162461bcd60e51b815260040161075e906137a7565b5032600090815260136020526040902054600160401b90046001600160401b031690565b6000806111ca83612203565b60008181526014602052604090205490915043600160401b9091046001600160401b03161061120b5760405162461bcd60e51b815260040161075e90613885565b60008181526012602090815260409182902082516101008082018552825460ff8082161515845291810482161515948301949094526201000084048116151594820194909452630100000090920461ffff16606083015260018101546080830152600281015490921660a0820152600382015460c08201526004909101546001600160401b031660e0820181905243116112b75760405162461bcd60e51b815260040161075e90613885565b5092915050565b336112c7611490565b6001600160a01b0316146112ed5760405162461bcd60e51b815260040161075e90613711565b600c80546001600160a01b0319166001600160a01b0392909216919091179055565b600a54600160a01b900460ff1690565b60008061132b83612296565b6001600160a01b03811660009081526013602052604090205490915043600160401b9091046001600160401b0316106106595760405162461bcd60e51b815260040161075e90613885565b3361137f611490565b6001600160a01b0316146113a55760405162461bcd60e51b815260040161075e90613711565b610fbc6015838361307b565b336113ba611490565b6001600160a01b0316146113e05760405162461bcd60e51b815260040161075e90613711565b6001600160a01b03166000908152601060205260409020805460ff19166001179055565b6001600160a01b03811660009081526013602052604081205443600160401b9091046001600160401b03161061144c5760405162461bcd60e51b815260040161075e90613885565b6106598261230d565b3361145e611490565b6001600160a01b0316146114845760405162461bcd60e51b815260040161075e90613711565b61148e6000612394565b565b600a546001600160a01b031690565b6114a7613037565b3360009081526010602052604090205460ff166114d65760405162461bcd60e51b815260040161075e906137a7565b5060009081526012602090815260409182902082516101008082018552825460ff8082161515845291810482161515948301949094526201000084048116151594820194909452630100000090920461ffff16606083015260018101546080830152600281015490921660a0820152600382015460c08201526004909101546001600160401b031660e082015290565b60606001805461066e906136d6565b61070682826123e6565b6115876130ff565b3360009081526010602052604090205460ff166115b65760405162461bcd60e51b815260040161075e906137a7565b60408051608081019182905290601190600490826000855b825461010083900a900460ff168152602060019283018181049485019490930390920291018084116115ce5790505050505050905090565b61160e61130f565b1561162b5760405162461bcd60e51b815260040161075e90613746565b3360009081526010602052604090205460ff1661165a5760405162461bcd60e51b815260040161075e906137a7565b600060126000848152602001908152602001600020604051806101000160405290816000820160009054906101000a900460ff161515151581526020016000820160019054906101000a900460ff161515151581526020016000820160029054906101000a900460ff161515151581526020016000820160039054906101000a900461ffff1661ffff1661ffff168152602001600182015481526020016002820160009054906101000a900460ff1660ff1660ff168152602001600382015481526020016004820160009054906101000a90046001600160401b03166001600160401b03166001600160401b031681525050905081816060019061ffff16908161ffff168152505042816080018181525050806012600085815260200190815260200160002060008201518160000160006101000a81548160ff02191690831515021790555060208201518160000160016101000a81548160ff02191690831515021790555060408201518160000160026101000a81548160ff02191690831515021790555060608201518160000160036101000a81548161ffff021916908361ffff1602179055506080820151816001015560a08201518160020160006101000a81548160ff021916908360ff16021790555060c0820151816003015560e08201518160040160006101000a8154816001600160401b0302191690836001600160401b03160217905550905050505050565b61187561130f565b156118925760405162461bcd60e51b815260040161075e90613746565b3360009081526010602052604090205460ff166118c15760405162461bcd60e51b815260040161075e906137a7565b60008281526012602090815260409182902082516101008082018552825460ff808216151580855292820481161515958401959095526201000081048516151595830195909552630100000090940461ffff16606082015260018201546080820152600282015490921660a0830152600381015460c0830152600401546001600160401b031660e0820152906119695760405162461bcd60e51b815260040161075e906138da565b60ff91821660a082019081524260c08301908152600094855260126020908152604095869020845181549286015197860151606087015161ffff1990941691151561ff00191691909117610100981515989098029790971764ffffff00001916620100009715159790970264ffff000000191696909617630100000061ffff9092169190910217855560808301516001860155905160028501805460ff191691909416179092559051600383015560e001516004909101805467ffffffffffffffff19166001600160401b03909216919091179055565b610e37848484846123f1565b600c546040516314834e8b60e31b81526004810183905260609182916000916001600160a01b03169063a41a74589060240161010060405180830381865afa158015611a9c573d6000803e3d6000fd5b505050506040513d601f19601f82011682018060405250810190611ac09190613949565b9050611acb84612136565b8015611ad5575080515b15611ba25781611ae485612423565b611b028360200151611af7576000611afa565b60015b60ff16612423565b611b1c8460400151611b15576001611afa565b6000612423565b604051602001611b2f9493929190613a20565b604051602081830303815290604052915081611b52826060015161ffff16612423565b611b5f8360800151612423565b611b6f8460a0015160ff16612423565b611b7c8560c00151612423565b604051602001611b90959493929190613a98565b60405160208183030381529060405291505b601582604051602001611bb6929190613b25565b60405160208183030381529060405292505050919050565b33611bd7611490565b6001600160a01b031614611bfd5760405162461bcd60e51b815260040161075e90613711565b600e55565b6001600160a01b03808316600090815260056020908152604080832093851683529290529081205460ff165b9392505050565b3360009081526010602052604081205460ff16611c645760405162461bcd60e51b815260040161075e906137a7565b50600090815260146020526040902054600160401b90046001600160401b031690565b3360009081526010602052604090205460ff16611cb65760405162461bcd60e51b815260040161075e906137a7565b611cc48261ffff1682612528565b506040805161ffff84168152905133917f1c1084a8de078a6ff77fc503f87d9710c34e080459c15ab29b64bb9ce9dc4c4d919081900360200190a25050565b33611d0c611490565b6001600160a01b031614611d325760405162461bcd60e51b815260040161075e90613711565b6001600160a01b038116611d975760405162461bcd60e51b815260206004820152602660248201527f4f776e61626c653a206e6577206f776e657220697320746865207a65726f206160448201526564647265737360d01b606482015260840161075e565b6107a481612394565b60006001600160e01b0319821663780e9d6360e01b148061065957506106598261277e565b6000611dd082612136565b611e315760405162461bcd60e51b815260206004820152602c60248201527f4552433732313a20617070726f76656420717565727920666f72206e6f6e657860448201526b34b9ba32b73a103a37b5b2b760a11b606482015260840161075e565b506000908152600460205260409020546001600160a01b031690565b6000611e5882612296565b9050806001600160a01b0316836001600160a01b03161415611ec65760405162461bcd60e51b815260206004820152602160248201527f4552433732313a20617070726f76616c20746f2063757272656e74206f776e656044820152603960f91b606482015260840161075e565b336001600160a01b0382161480611ee25750611ee28133611c02565b611f4f5760405162461bcd60e51b815260206004820152603860248201527f4552433732313a20617070726f76652063616c6c6572206973206e6f74206f776044820152771b995c881b9bdc88185c1c1c9bdd995908199bdc88185b1b60421b606482015260840161075e565b610fbc83836127ce565b611f6161130f565b15611f7e5760405162461bcd60e51b815260040161075e90613746565b600a805460ff60a01b1916600160a01b1790557f62e78cea01bee320cd4e420270b5ea74000d11b0c9f74754ebdbfc544b05a258611fb93390565b6040516001600160a01b03909116815260200160405180910390a1565b611fde61130f565b6120215760405162461bcd60e51b815260206004820152601460248201527314185d5cd8589b194e881b9bdd081c185d5cd95960621b604482015260640161075e565b600a805460ff60a01b191690557f5db9ee0a495bf2e6ff9c91a7834c1ba4fdd244a5e8aa4e537bd38aeae4b073aa33611fb9565b61070682826040518060200160405280600081525061283c565b612079338261286f565b6120955760405162461bcd60e51b815260040161075e90613be3565b610fbc838383612931565b60006120ab8361230d565b821061210d5760405162461bcd60e51b815260206004820152602b60248201527f455243373231456e756d657261626c653a206f776e657220696e646578206f7560448201526a74206f6620626f756e647360a81b606482015260840161075e565b506001600160a01b03919091166000908152600660209081526040808320938352929052205490565b6000908152600260205260409020546001600160a01b0316151590565b610fbc83838360405180602001604052806000815250611a40565b600061217982612296565b905061218781600084612ac6565b6121926000836127ce565b6001600160a01b03811660009081526003602052604081208054600192906121bb908490613c34565b909155505060008281526002602052604080822080546001600160a01b0319169055518391906001600160a01b03841690600080516020613d3a833981519152908390a45050565b600061220e60085490565b82106122715760405162461bcd60e51b815260206004820152602c60248201527f455243373231456e756d657261626c653a20676c6f62616c20696e646578206f60448201526b7574206f6620626f756e647360a01b606482015260840161075e565b60088281548110612284576122846138a9565b90600052602060002001549050919050565b6000818152600260205260408120546001600160a01b0316806106595760405162461bcd60e51b815260206004820152602960248201527f4552433732313a206f776e657220717565727920666f72206e6f6e657869737460448201526832b73a103a37b5b2b760b91b606482015260840161075e565b60006001600160a01b0382166123785760405162461bcd60e51b815260206004820152602a60248201527f4552433732313a2062616c616e636520717565727920666f7220746865207a65604482015269726f206164647265737360b01b606482015260840161075e565b506001600160a01b031660009081526003602052604090205490565b600a80546001600160a01b038381166001600160a01b0319831681179093556040519116919082907f8be0079c531659141344cd1fd0a4f28419497f9722a3daafe3b4186f6b6457e090600090a35050565b610706338383612b7e565b6123fb338361286f565b6124175760405162461bcd60e51b815260040161075e90613be3565b610e3784848484612c49565b6060816124475750506040805180820190915260018152600360fc1b602082015290565b8160005b8115612471578061245b816138bf565b915061246a9050600a83613871565b915061244b565b6000816001600160401b0381111561248b5761248b613305565b6040519080825280601f01601f1916602001820160405280156124b5576020820181803683370190505b5090505b8415612520576124ca600183613c34565b91506124d7600a86613c4b565b6124e2906030613c5f565b60f81b8183815181106124f7576124f76138a9565b60200101906001600160f81b031916908160001a905350612519600a86613871565b94506124b9565b949350505050565b612530613037565b5060008281526012602090815260409182902082516101008082018552825460ff808216158015855292820481161515958401959095526201000081048516151595830195909552630100000090940461ffff16606082015260018201546080820152600282015490921660a0830152600381015460c0830152600401546001600160401b031660e0820152906126095760405162461bcd60e51b815260206004820152601e60248201527f4e46543a20546f6b656e20697320616c72656164792072657665616c65640000604482015260640161075e565b438160e001516001600160401b0316106126355760405162461bcd60e51b815260040161075e90613885565b612644601461ffff8416613c4b565b1515602082015260109190911c90600061266060016004613c34565b8316905060118160ff166004811061267a5761267a6138a9565b60208082049290920154601f90911661010090810a90910460ff90811660a086019081524260c0870181815260109890981c600390811660608901908152608089019283526001808a5260009b8c526012885260409b8c90208a518154998c01519d8c0151935161ffff19909a1690151561ff001916179c15159097029b909b1764ffffff00001916620100009115159190910264ffff000000191617630100000061ffff909716969096029590951784555197830197909755955160028201805460ff1916919097161790955592519284019290925560e08101516004909301805467ffffffffffffffff19166001600160401b03909416939093179092555090565b60006001600160e01b031982166380ac58cd60e01b14806127af57506001600160e01b03198216635b5e139f60e01b145b8061065957506301ffc9a760e01b6001600160e01b0319831614610659565b600081815260046020526040902080546001600160a01b0319166001600160a01b038416908117909155819061280382612296565b6001600160a01b03167f8c5be1e5ebec7d5bd14f71427d1e84f3dd0314c0f7b2291e5b200ac8c7c3b92560405160405180910390a45050565b6128468383612c7c565b6128536000848484612da9565b610fbc5760405162461bcd60e51b815260040161075e90613c77565b600061287a82612136565b6128db5760405162461bcd60e51b815260206004820152602c60248201527f4552433732313a206f70657261746f7220717565727920666f72206e6f6e657860448201526b34b9ba32b73a103a37b5b2b760a11b606482015260840161075e565b60006128e683612296565b9050806001600160a01b0316846001600160a01b031614806129215750836001600160a01b0316612916846106f1565b6001600160a01b0316145b8061252057506125208185611c02565b826001600160a01b031661294482612296565b6001600160a01b0316146129a85760405162461bcd60e51b815260206004820152602560248201527f4552433732313a207472616e736665722066726f6d20696e636f72726563742060448201526437bbb732b960d91b606482015260840161075e565b6001600160a01b038216612a0a5760405162461bcd60e51b8152602060048201526024808201527f4552433732313a207472616e7366657220746f20746865207a65726f206164646044820152637265737360e01b606482015260840161075e565b612a15838383612ac6565b612a206000826127ce565b6001600160a01b0383166000908152600360205260408120805460019290612a49908490613c34565b90915550506001600160a01b0382166000908152600360205260408120805460019290612a77908490613c5f565b909155505060008181526002602052604080822080546001600160a01b0319166001600160a01b038681169182179092559151849391871691600080516020613d3a83398151915291a4505050565b6001600160a01b038316612b2157612b1c81600880546000838152600960205260408120829055600182018355919091527ff3f7a9fe364faab93b216da50a3214154f22a0a2b415b23a84c8169e8b636ee30155565b612b44565b816001600160a01b0316836001600160a01b031614612b4457612b448382612ea7565b6001600160a01b038216612b5b57610fbc81612f44565b826001600160a01b0316826001600160a01b031614610fbc57610fbc8282612ff3565b816001600160a01b0316836001600160a01b03161415612bdc5760405162461bcd60e51b815260206004820152601960248201527822a9219b99189d1030b8383937bb32903a379031b0b63632b960391b604482015260640161075e565b6001600160a01b03838116600081815260056020908152604080832094871680845294825291829020805460ff191686151590811790915591519182527f17307eab39ab6107e8899845ad3d59bd9653f200f220920489ca2b5937696c31910160405180910390a3505050565b612c54848484612931565b612c6084848484612da9565b610e375760405162461bcd60e51b815260040161075e90613c77565b6001600160a01b038216612cd25760405162461bcd60e51b815260206004820181905260248201527f4552433732313a206d696e7420746f20746865207a65726f2061646472657373604482015260640161075e565b612cdb81612136565b15612d285760405162461bcd60e51b815260206004820152601c60248201527f4552433732313a20746f6b656e20616c7265616479206d696e74656400000000604482015260640161075e565b612d3460008383612ac6565b6001600160a01b0382166000908152600360205260408120805460019290612d5d908490613c5f565b909155505060008181526002602052604080822080546001600160a01b0319166001600160a01b0386169081179091559051839290600080516020613d3a833981519152908290a45050565b60006001600160a01b0384163b15612e9c57604051630a85bd0160e11b81526001600160a01b0385169063150b7a0290612ded903390899088908890600401613cc9565b6020604051808303816000875af1925050508015612e28575060408051601f3d908101601f19168201909252612e2591810190613d06565b60015b612e82573d808015612e56576040519150601f19603f3d011682016040523d82523d6000602084013e612e5b565b606091505b508051612e7a5760405162461bcd60e51b815260040161075e90613c77565b805181602001fd5b6001600160e01b031916630a85bd0160e11b149050612520565b506001949350505050565b60006001612eb48461230d565b612ebe9190613c34565b600083815260076020526040902054909150808214612f11576001600160a01b03841660009081526006602090815260408083208584528252808320548484528184208190558352600790915290208190555b5060009182526007602090815260408084208490556001600160a01b039094168352600681528383209183525290812055565b600854600090612f5690600190613c34565b60008381526009602052604081205460088054939450909284908110612f7e57612f7e6138a9565b906000526020600020015490508060088381548110612f9f57612f9f6138a9565b6000918252602080832090910192909255828152600990915260408082208490558582528120556008805480612fd757612fd7613d23565b6001900381819060005260206000200160009055905550505050565b6000612ffe8361230d565b6001600160a01b039093166000908152600660209081526040808320868452825280832085905593825260079052919091209190915550565b6040805161010081018252600080825260208201819052918101829052606081018290526080810182905260a0810182905260c0810182905260e081019190915290565b828054613087906136d6565b90600052602060002090601f0160209004810192826130a957600085556130ef565b82601f106130c25782800160ff198235161785556130ef565b828001600101855582156130ef579182015b828111156130ef5782358255916020019190600101906130d4565b506130fb92915061311d565b5090565b60405180608001604052806004906020820280368337509192915050565b5b808211156130fb576000815560010161311e565b6001600160e01b0319811681146107a457600080fd5b60006020828403121561315a57600080fd5b8135611c2e81613132565b60005b83811015613180578181015183820152602001613168565b83811115610e375750506000910152565b600081518084526131a9816020860160208601613165565b601f01601f19169290920160200192915050565b602081526000611c2e6020830184613191565b6000602082840312156131e257600080fd5b5035919050565b80356001600160a01b0381168114610d0057600080fd5b6000806040838503121561321357600080fd5b61321c836131e9565b946020939093013593505050565b80151581146107a457600080fd5b60006020828403121561324a57600080fd5b8135611c2e8161322a565b60006020828403121561326757600080fd5b611c2e826131e9565b6000806040838503121561328357600080fd5b61328c836131e9565b9150602083013561329c8161322a565b809150509250929050565b6000806000606084860312156132bc57600080fd5b6132c5846131e9565b92506132d3602085016131e9565b9150604084013590509250925092565b600080604083850312156132f657600080fd5b50508035926020909101359150565b634e487b7160e01b600052604160045260246000fd5b604051601f8201601f191681016001600160401b038111828210171561334357613343613305565b604052919050565b61ffff811681146107a457600080fd5b6000602080838503121561336e57600080fd5b82356001600160401b038082111561338557600080fd5b818501915085601f83011261339957600080fd5b8135818111156133ab576133ab613305565b8060051b91506133bc84830161331b565b81815291830184019184810190888411156133d657600080fd5b938501935b8385101561340057843592506133f08361334b565b82825293850193908501906133db565b98975050505050505050565b6020808252825182820181905260009190848201906040850190845b8181101561344457835183529284019291840191600101613428565b50909695505050505050565b6000806020838503121561346357600080fd5b82356001600160401b038082111561347a57600080fd5b818501915085601f83011261348e57600080fd5b81358181111561349d57600080fd5b8660208285010111156134af57600080fd5b60209290920196919550909350505050565b60006101008201905082511515825260208301511515602083015260408301511515604083015261ffff60608401511660608301526080830151608083015260a083015161351460a084018260ff169052565b5060c083015160c083015260e08301516112b760e08401826001600160401b03169052565b60808101818360005b600481101561356457815160ff16835260209283019290910190600101613542565b50505092915050565b6000806040838503121561358057600080fd5b82359150602083013561329c8161334b565b60ff811681146107a457600080fd5b600080604083850312156135b457600080fd5b82359150602083013561329c81613592565b600080600080608085870312156135dc57600080fd5b6135e5856131e9565b935060206135f48187016131e9565b93506040860135925060608601356001600160401b038082111561361757600080fd5b818801915088601f83011261362b57600080fd5b81358181111561363d5761363d613305565b61364f601f8201601f1916850161331b565b9150808252898482850101111561366557600080fd5b808484018584013760008482840101525080935050505092959194509250565b6000806040838503121561369857600080fd5b6136a1836131e9565b91506136af602084016131e9565b90509250929050565b600080604083850312156136cb57600080fd5b823561321c8161334b565b600181811c908216806136ea57607f821691505b6020821081141561370b57634e487b7160e01b600052602260045260246000fd5b50919050565b6020808252818101527f4f776e61626c653a2063616c6c6572206973206e6f7420746865206f776e6572604082015260600190565b60208082526010908201526f14185d5cd8589b194e881c185d5cd95960821b604082015260600190565b6020808252601f908201527f5265656e7472616e637947756172643a207265656e7472616e742063616c6c00604082015260600190565b6020808252601e908201527f4e46543a204f6e6c792061646d696e732063616e2063616c6c20746869730000604082015260600190565b634e487b7160e01b600052601160045260246000fd5b600061ffff808316818516808303821115613811576138116137de565b01949350505050565b600061ffff80831681811415613832576138326137de565b6001019392505050565b6000816000190483118215151615613856576138566137de565b500290565b634e487b7160e01b600052601260045260246000fd5b6000826138805761388061385b565b500490565b6020808252600a90820152694e46543a204e6f70652160b01b604082015260600190565b634e487b7160e01b600052603260045260246000fd5b60006000198214156138d3576138d36137de565b5060010190565b6020808252601e908201527f4e46543a20546f6b656e206973206e6f74207965742072657665616c65640000604082015260600190565b8051610d008161322a565b8051610d008161334b565b8051610d0081613592565b80516001600160401b0381168114610d0057600080fd5b600061010080838503121561395d57600080fd5b604051908101906001600160401b038211818310171561397f5761397f613305565b81604052835191506139908261322a565b81815261399f60208501613911565b60208201526139b060408501613911565b60408201526139c16060850161391c565b6060820152608084015160808201526139dc60a08501613927565b60a082015260c084015160c08201526139f760e08501613932565b60e0820152949350505050565b60008151613a16818560208601613165565b9290920192915050565b60008551613a32818460208a01613165565b855190830190613a46818360208a01613165565b600b60fa1b91018181528551909190613a66816001850160208a01613165565b600192019182018190528451613a83816002850160208901613165565b60029201918201526003019695505050505050565b60008651613aaa818460208b01613165565b865190830190613abe818360208b01613165565b600b60fa1b91018181528651909190613ade816001850160208b01613165565b600192019182018190528551613afb816002850160208a01613165565b60029201918201528351613b16816003840160208801613165565b01600301979650505050505050565b600080845481600182811c915080831680613b4157607f831692505b6020808410821415613b6157634e487b7160e01b86526022600452602486fd5b818015613b755760018114613b8657613bb3565b60ff19861689528489019650613bb3565b60008b81526020902060005b86811015613bab5781548b820152908501908301613b92565b505084890196505b505050505050613bda613bd482673f7472616974733d60c01b815260080190565b85613a04565b95945050505050565b60208082526031908201527f4552433732313a207472616e736665722063616c6c6572206973206e6f74206f6040820152701ddb995c881b9bdc88185c1c1c9bdd9959607a1b606082015260800190565b600082821015613c4657613c466137de565b500390565b600082613c5a57613c5a61385b565b500690565b60008219821115613c7257613c726137de565b500190565b60208082526032908201527f4552433732313a207472616e7366657220746f206e6f6e20455243373231526560408201527131b2b4bb32b91034b6b83632b6b2b73a32b960711b606082015260800190565b6001600160a01b0385811682528416602082015260408101839052608060608201819052600090613cfc90830184613191565b9695505050505050565b600060208284031215613d1857600080fd5b8151611c2e81613132565b634e487b7160e01b600052603160045260246000fdfeddf252ad1be2c89b69c2b068fc378daa952ba7f163c4a11628f55a4df523b3efa2646970667358221220c1d18520965b90fb9f6b15bbd3945bd2f5d6c943d703dfc5de6ed04c52afef2f64736f6c634300080b0033",
  "linkReferences": {},
  "deployedLinkReferences": {}
}