{
  "_format": "hh-sol-artifact-1",
  "contractName": "World",
  "sourceName": "contracts/World.sol",
  "abi": [
    {
      "inputs": [],
      "stateMutability": "nonpayable",
      "type": "constructor"
    },
    {
      "anonymous": false,
      "inputs": [
        {
          "indexed": true,
          "internalType": "address",
          "name": "owner",
          "type": "address"
        },
        {
          "indexed": true,
          "internalType": "address",
          "name": "spender",
          "type": "address"
        },
        {
          "indexed": false,
          "internalType": "uint256",
          "name": "value",
          "type": "uint256"
        }
      ],
      "name": "Approval",
      "type": "event"
    },
    {
      "anonymous": false,
      "inputs": [
        {
          "indexed": true,
          "internalType": "address",
          "name": "previousOwner",
          "type": "address"
        },
        {
          "indexed": true,
          "internalType": "address",
          "name": "newOwner",
          "type": "address"
        }
      ],
      "name": "OwnershipTransferred",
      "type": "event"
    },
    {
      "anonymous": false,
      "inputs": [
        {
          "indexed": true,
          "internalType": "address",
          "name": "from",
          "type": "address"
        },
        {
          "indexed": true,
          "internalType": "address",
          "name": "to",
          "type": "address"
        },
        {
          "indexed": false,
          "internalType": "uint256",
          "name": "value",
          "type": "uint256"
        }
      ],
      "name": "Transfer",
      "type": "event"
    },
    {
      "inputs": [
        {
          "internalType": "address",
          "name": "addr",
          "type": "address"
        }
      ],
      "name": "addAdmin",
      "outputs": [],
      "stateMutability": "nonpayable",
      "type": "function"
    },
    {
      "inputs": [
        {
          "internalType": "address",
          "name": "owner",
          "type": "address"
        },
        {
          "internalType": "address",
          "name": "spender",
          "type": "address"
        }
      ],
      "name": "allowance",
      "outputs": [
        {
          "internalType": "uint256",
          "name": "",
          "type": "uint256"
        }
      ],
      "stateMutability": "view",
      "type": "function"
    },
    {
      "inputs": [
        {
          "internalType": "address",
          "name": "spender",
          "type": "address"
        },
        {
          "internalType": "uint256",
          "name": "amount",
          "type": "uint256"
        }
      ],
      "name": "approve",
      "outputs": [
        {
          "internalType": "bool",
          "name": "",
          "type": "bool"
        }
      ],
      "stateMutability": "nonpayable",
      "type": "function"
    },
    {
      "inputs": [
        {
          "internalType": "address",
          "name": "account",
          "type": "address"
        }
      ],
      "name": "balanceOf",
      "outputs": [
        {
          "internalType": "uint256",
          "name": "",
          "type": "uint256"
        }
      ],
      "stateMutability": "view",
      "type": "function"
    },
    {
      "inputs": [
        {
          "internalType": "address",
          "name": "from",
          "type": "address"
        },
        {
          "internalType": "uint256",
          "name": "amount",
          "type": "uint256"
        }
      ],
      "name": "burn",
      "outputs": [],
      "stateMutability": "nonpayable",
      "type": "function"
    },
    {
      "inputs": [],
      "name": "decimals",
      "outputs": [
        {
          "internalType": "uint8",
          "name": "",
          "type": "uint8"
        }
      ],
      "stateMutability": "view",
      "type": "function"
    },
    {
      "inputs": [
        {
          "internalType": "address",
          "name": "spender",
          "type": "address"
        },
        {
          "internalType": "uint256",
          "name": "subtractedValue",
          "type": "uint256"
        }
      ],
      "name": "decreaseAllowance",
      "outputs": [
        {
          "internalType": "bool",
          "name": "",
          "type": "bool"
        }
      ],
      "stateMutability": "nonpayable",
      "type": "function"
    },
    {
      "inputs": [
        {
          "internalType": "address",
          "name": "spender",
          "type": "address"
        },
        {
          "internalType": "uint256",
          "name": "addedValue",
          "type": "uint256"
        }
      ],
      "name": "increaseAllowance",
      "outputs": [
        {
          "internalType": "bool",
          "name": "",
          "type": "bool"
        }
      ],
      "stateMutability": "nonpayable",
      "type": "function"
    },
    {
      "inputs": [],
      "name": "lpAddress",
      "outputs": [
        {
          "internalType": "address",
          "name": "",
          "type": "address"
        }
      ],
      "stateMutability": "view",
      "type": "function"
    },
    {
      "inputs": [
        {
          "internalType": "address",
          "name": "to",
          "type": "address"
        },
        {
          "internalType": "uint256",
          "name": "amount",
          "type": "uint256"
        }
      ],
      "name": "mint",
      "outputs": [],
      "stateMutability": "nonpayable",
      "type": "function"
    },
    {
      "inputs": [],
      "name": "name",
      "outputs": [
        {
          "internalType": "string",
          "name": "",
          "type": "string"
        }
      ],
      "stateMutability": "view",
      "type": "function"
    },
    {
      "inputs": [],
      "name": "owner",
      "outputs": [
        {
          "internalType": "address",
          "name": "",
          "type": "address"
        }
      ],
      "stateMutability": "view",
      "type": "function"
    },
    {
      "inputs": [
        {
          "internalType": "address",
          "name": "addr",
          "type": "address"
        }
      ],
      "name": "removeAdmin",
      "outputs": [],
      "stateMutability": "nonpayable",
      "type": "function"
    },
    {
      "inputs": [],
      "name": "renounceOwnership",
      "outputs": [],
      "stateMutability": "nonpayable",
      "type": "function"
    },
    {
      "inputs": [
        {
          "internalType": "address",
          "name": "_address",
          "type": "address"
        }
      ],
      "name": "setDevwallet",
      "outputs": [],
      "stateMutability": "nonpayable",
      "type": "function"
    },
    {
      "inputs": [
        {
          "internalType": "address",
          "name": "_address",
          "type": "address"
        }
      ],
      "name": "setLPAddress",
      "outputs": [],
      "stateMutability": "nonpayable",
      "type": "function"
    },
    {
      "inputs": [
        {
          "internalType": "address",
          "name": "_address",
          "type": "address"
        }
      ],
      "name": "setLPWallet",
      "outputs": [],
      "stateMutability": "nonpayable",
      "type": "function"
    },
    {
      "inputs": [
        {
          "internalType": "address",
          "name": "_address",
          "type": "address"
        }
      ],
      "name": "setMarketingWallet",
      "outputs": [],
      "stateMutability": "nonpayable",
      "type": "function"
    },
    {
      "inputs": [],
      "name": "symbol",
      "outputs": [
        {
          "internalType": "string",
          "name": "",
          "type": "string"
        }
      ],
      "stateMutability": "view",
      "type": "function"
    },
    {
      "inputs": [],
      "name": "totalSupply",
      "outputs": [
        {
          "internalType": "uint256",
          "name": "",
          "type": "uint256"
        }
      ],
      "stateMutability": "view",
      "type": "function"
    },
    {
      "inputs": [
        {
          "internalType": "address",
          "name": "recipient",
          "type": "address"
        },
        {
          "internalType": "uint256",
          "name": "amount",
          "type": "uint256"
        }
      ],
      "name": "transfer",
      "outputs": [
        {
          "internalType": "bool",
          "name": "",
          "type": "bool"
        }
      ],
      "stateMutability": "nonpayable",
      "type": "function"
    },
    {
      "inputs": [
        {
          "internalType": "address",
          "name": "sender",
          "type": "address"
        },
        {
          "internalType": "address",
          "name": "recipient",
          "type": "address"
        },
        {
          "internalType": "uint256",
          "name": "amount",
          "type": "uint256"
        }
      ],
      "name": "transferFrom",
      "outputs": [
        {
          "internalType": "bool",
          "name": "",
          "type": "bool"
        }
      ],
      "stateMutability": "nonpayable",
      "type": "function"
    },
    {
      "inputs": [
        {
          "internalType": "address",
          "name": "newOwner",
          "type": "address"
        }
      ],
      "name": "transferOwnership",
      "outputs": [],
      "stateMutability": "nonpayable",
      "type": "function"
    }
  ],
  "bytecode": "0x60806040526005600881905560098190556003600a818155600b92909255600c91909155600d55600f80546001600160a01b031990811673bc2bc474a1322889566443b2cf59cf41254c265f17909155601080548216735a0125ac2274554d56305359b4d9fd25d941980a1790556011805490911673644f29fac3aa63ecdf41d9fcf9d0836bec4aa38e1790553480156200009957600080fd5b5060408051808201825260058082526415d3d4931160da1b602080840182815285518087019096529285528401528151919291620000da9160039162000169565b508051620000f090600490602084019062000169565b5050506200010d620001076200011360201b60201c565b62000117565b6200024c565b3390565b600580546001600160a01b038381166001600160a01b0319831681179093556040519116919082907f8be0079c531659141344cd1fd0a4f28419497f9722a3daafe3b4186f6b6457e090600090a35050565b82805462000177906200020f565b90600052602060002090601f0160209004810192826200019b5760008555620001e6565b82601f10620001b657805160ff1916838001178555620001e6565b82800160010185558215620001e6579182015b82811115620001e6578251825591602001919060010190620001c9565b50620001f4929150620001f8565b5090565b5b80821115620001f45760008155600101620001f9565b600181811c908216806200022457607f821691505b602082108114156200024657634e487b7160e01b600052602260045260246000fd5b50919050565b6110d8806200025c6000396000f3fe608060405234801561001057600080fd5b506004361061014d5760003560e01c806370a08231116100c35780639dc29fac1161007c5780639dc29fac146102be578063a457c2d7146102d1578063a9059cbb146102e4578063b3076732146102f7578063dd62ed3e1461030a578063f2fde38b1461031d57600080fd5b806370a082311461023f578063715018a6146102685780637a351a1d146102705780638da5cb5b1461028357806395d89b41146102a35780639b4dc8cc146102ab57600080fd5b8063313ce56711610115578063313ce567146101d157806339509351146101e05780633b0aacbc146101f357806340c10f19146102065780635d098b3814610219578063704802751461022c57600080fd5b806306fdde0314610152578063095ea7b3146101705780631785f53c1461019357806318160ddd146101a857806323b872dd146101be575b600080fd5b61015a610330565b6040516101679190610e73565b60405180910390f35b61018361017e366004610ee4565b6103c2565b6040519015158152602001610167565b6101a66101a1366004610f0e565b6103d5565b005b6101b061042e565b604051908152602001610167565b6101836101cc366004610f29565b61043e565b60405160128152602001610167565b6101836101ee366004610ee4565b610453565b6101a6610201366004610f0e565b61045f565b6101a6610214366004610ee4565b6104b0565b6101a6610227366004610f0e565b6104ed565b6101a661023a366004610f0e565b61053e565b6101b061024d366004610f0e565b6001600160a01b031660009081526020819052604090205490565b6101a6610591565b6101a661027e366004610f0e565b6105cc565b61028b61061d565b6040516001600160a01b039091168152602001610167565b61015a61062c565b600e5461028b906001600160a01b031681565b6101a66102cc366004610ee4565b61063b565b6101836102df366004610ee4565b610674565b6101836102f2366004610ee4565b610680565b6101a6610305366004610f0e565b61068c565b6101b0610318366004610f65565b6106dd565b6101a661032b366004610f0e565b61070a565b60606003805461033f90610f98565b80601f016020809104026020016040519081016040528092919081815260200182805461036b90610f98565b80156103b85780601f1061038d576101008083540402835291602001916103b8565b820191906000526020600020905b81548152906001019060200180831161039b57829003601f168201915b5050505050905090565b60006103ce83836107aa565b9392505050565b336103de61061d565b6001600160a01b03161461040d5760405162461bcd60e51b815260040161040490610fd3565b60405180910390fd5b6001600160a01b03166000908152600660205260409020805460ff19169055565b600061043960025490565b905090565b600061044b8484846107c2565b949350505050565b60006103ce83836107e6565b3361046861061d565b6001600160a01b03161461048e5760405162461bcd60e51b815260040161040490610fd3565b601180546001600160a01b0319166001600160a01b0392909216919091179055565b3360009081526006602052604090205460ff166104df5760405162461bcd60e51b815260040161040490611008565b6104e98282610825565b5050565b336104f661061d565b6001600160a01b03161461051c5760405162461bcd60e51b815260040161040490610fd3565b601080546001600160a01b0319166001600160a01b0392909216919091179055565b3361054761061d565b6001600160a01b03161461056d5760405162461bcd60e51b815260040161040490610fd3565b6001600160a01b03166000908152600660205260409020805460ff19166001179055565b3361059a61061d565b6001600160a01b0316146105c05760405162461bcd60e51b815260040161040490610fd3565b6105ca60006108f2565b565b336105d561061d565b6001600160a01b0316146105fb5760405162461bcd60e51b815260040161040490610fd3565b600e80546001600160a01b0319166001600160a01b0392909216919091179055565b6005546001600160a01b031690565b60606004805461033f90610f98565b3360009081526006602052604090205460ff1661066a5760405162461bcd60e51b815260040161040490611008565b6104e98282610944565b60006103ce8383610a81565b60006103ce8383610b13565b3361069561061d565b6001600160a01b0316146106bb5760405162461bcd60e51b815260040161040490610fd3565b600f80546001600160a01b0319166001600160a01b0392909216919091179055565b6001600160a01b0380831660009081526001602090815260408083209385168352929052908120546103ce565b3361071361061d565b6001600160a01b0316146107395760405162461bcd60e51b815260040161040490610fd3565b6001600160a01b03811661079e5760405162461bcd60e51b815260206004820152602660248201527f4f776e61626c653a206e6577206f776e657220697320746865207a65726f206160448201526564647265737360d01b6064820152608401610404565b6107a7816108f2565b50565b6000336107b8818585610b21565b5060019392505050565b6000336107d0858285610c3d565b6107db858585610cb7565b506001949350505050565b3360008181526001602090815260408083206001600160a01b03871684529091528120549091906107b89082908690610820908790611053565b610b21565b6001600160a01b03821661087b5760405162461bcd60e51b815260206004820152601f60248201527f45524332303a206d696e7420746f20746865207a65726f2061646472657373006044820152606401610404565b806002600082825461088d9190611053565b90915550506001600160a01b038216600090815260208190526040812080548392906108ba908490611053565b90915550506040518181526001600160a01b038316906000906000805160206110838339815191529060200160405180910390a35050565b600580546001600160a01b038381166001600160a01b0319831681179093556040519116919082907f8be0079c531659141344cd1fd0a4f28419497f9722a3daafe3b4186f6b6457e090600090a35050565b6001600160a01b0382166109a45760405162461bcd60e51b815260206004820152602160248201527f45524332303a206275726e2066726f6d20746865207a65726f206164647265736044820152607360f81b6064820152608401610404565b6001600160a01b03821660009081526020819052604090205481811015610a185760405162461bcd60e51b815260206004820152602260248201527f45524332303a206275726e20616d6f756e7420657863656564732062616c616e604482015261636560f01b6064820152608401610404565b6001600160a01b0383166000908152602081905260408120838303905560028054849290610a4790849061106b565b90915550506040518281526000906001600160a01b03851690600080516020611083833981519152906020015b60405180910390a3505050565b3360008181526001602090815260408083206001600160a01b038716845290915281205490919083811015610b065760405162461bcd60e51b815260206004820152602560248201527f45524332303a2064656372656173656420616c6c6f77616e63652062656c6f77604482015264207a65726f60d81b6064820152608401610404565b6107db8286868403610b21565b6000336107b8818585610cb7565b6001600160a01b038316610b835760405162461bcd60e51b8152602060048201526024808201527f45524332303a20617070726f76652066726f6d20746865207a65726f206164646044820152637265737360e01b6064820152608401610404565b6001600160a01b038216610be45760405162461bcd60e51b815260206004820152602260248201527f45524332303a20617070726f766520746f20746865207a65726f206164647265604482015261737360f01b6064820152608401610404565b6001600160a01b0383811660008181526001602090815260408083209487168084529482529182902085905590518481527f8c5be1e5ebec7d5bd14f71427d1e84f3dd0314c0f7b2291e5b200ac8c7c3b9259101610a74565b6000610c4984846106dd565b90506000198114610cb15781811015610ca45760405162461bcd60e51b815260206004820152601d60248201527f45524332303a20696e73756666696369656e7420616c6c6f77616e63650000006044820152606401610404565b610cb18484848403610b21565b50505050565b6001600160a01b038316610d1b5760405162461bcd60e51b815260206004820152602560248201527f45524332303a207472616e736665722066726f6d20746865207a65726f206164604482015264647265737360d81b6064820152608401610404565b6001600160a01b038216610d7d5760405162461bcd60e51b815260206004820152602360248201527f45524332303a207472616e7366657220746f20746865207a65726f206164647260448201526265737360e81b6064820152608401610404565b6001600160a01b03831660009081526020819052604090205481811015610df55760405162461bcd60e51b815260206004820152602660248201527f45524332303a207472616e7366657220616d6f756e7420657863656564732062604482015265616c616e636560d01b6064820152608401610404565b6001600160a01b03808516600090815260208190526040808220858503905591851681529081208054849290610e2c908490611053565b92505081905550826001600160a01b0316846001600160a01b031660008051602061108383398151915284604051610e6691815260200190565b60405180910390a3610cb1565b600060208083528351808285015260005b81811015610ea057858101830151858201604001528201610e84565b81811115610eb2576000604083870101525b50601f01601f1916929092016040019392505050565b80356001600160a01b0381168114610edf57600080fd5b919050565b60008060408385031215610ef757600080fd5b610f0083610ec8565b946020939093013593505050565b600060208284031215610f2057600080fd5b6103ce82610ec8565b600080600060608486031215610f3e57600080fd5b610f4784610ec8565b9250610f5560208501610ec8565b9150604084013590509250925092565b60008060408385031215610f7857600080fd5b610f8183610ec8565b9150610f8f60208401610ec8565b90509250929050565b600181811c90821680610fac57607f821691505b60208210811415610fcd57634e487b7160e01b600052602260045260246000fd5b50919050565b6020808252818101527f4f776e61626c653a2063616c6c6572206973206e6f7420746865206f776e6572604082015260600190565b6020808252818101527f576f726c643a204f6e6c792061646d696e732063616e2063616c6c2074686973604082015260600190565b634e487b7160e01b600052601160045260246000fd5b600082198211156110665761106661103d565b500190565b60008282101561107d5761107d61103d565b50039056feddf252ad1be2c89b69c2b068fc378daa952ba7f163c4a11628f55a4df523b3efa2646970667358221220d9cc5a9045a67b59e18fb8cbdffe0a63d389b1c91588e31b1cfc1be56e4e998f64736f6c634300080b0033",
  "linkReferences": {},
  "deployedLinkReferences": {}
}